:100000000C9438000C940A020C949D020C94550038
:100010000C9455000C9455000C9455000C9455000C
:100020000C9455000C9455000C9455000C945500FC
:100030000C9455000C9455000C9455000C945500EC
:100040000C9455000C9455000C9455000C945500DC
:100050000C9455000C9455000C9455000C945500CC
:100060000C9455000C9455000C9455000C945500BC
:1000700011241FBECFEFD4E0DEBFCDBF13E0A0E060
:10008000B1E0EEE4F3E102C005900D92AC3BB107A4
:10009000D9F723E0ACEBB3E001C01D92AB3CB20753
:1000A000E1F70E9425040C94A5090C9400008093AC
:1000B000001483EF91E00197F1F700C000008091F8
:1000C000001408950E94C10464E081E00E94480584
:1000D00084E892E00E946C056CE183E00E94480590
:1000E00082EA92E00E946C0564E187E00E94480584
:1000F00085EB92E00E946C0508950E94C1046EE2B7
:1001000080E00E9448058BEC92E00E946C0568E05C
:1001100082E00E9448050E948A0564E182E00E9414
:10012000480585ED92E00E946C0564E183E00E9441
:10013000480585EE92E00E946C0564E184E00E942F
:10014000480586EF92E00E946C0564E185E00E941C
:10015000480581E093E00E946C0560E387E00E941F
:1001600048058AE093E00E946C0560E087E00E9409
:1001700048050E94A10508950E94C10460E280E044
:100180000E94480585ED92E00E946C056AE383E0D9
:100190000E94B10560E087E00E9448050E94A10529
:1001A00008950E94C10460E280E00E94480585EE47
:1001B00092E00E946C056DE183E00E94B10567E565
:1001C00083E00E94B10560E087E00E9448050E943C
:1001D000A10508950E94C1046CE280E00E944805D8
:1001E00086EF92E00E946C0564E182E00E9448057F
:1001F0008FE193E00E946C0564E183E00E94480572
:100200008DE293E00E946C0564E184E00E94480561
:100210008BE393E00E946C0560E087E00E94480554
:100220000E94A10508950E94C10460E380E00E943D
:10023000480581E093E00E946C0568E082E00E943E
:1002400048050E948A0564E182E00E94480589E42D
:1002500093E00E946C0564E183E00E94480584E518
:1002600093E00E946C0560E087E00E9448050E94D0
:10027000A10508950E94C1046CE280E00E94480537
:1002800089E493E00E946C0560E085E00E944805E7
:100290008AE593E00E946C0560E087E00E944805D3
:1002A0000E94A10508950F931F93CF93DF93CDB7BD
:1002B000DEB728970FB6F894DEBF0FBECDBF85E03E
:1002C0000E945700182F84E00E945700082F612FCA
:1002D00070E080E090E00E94CA0620E030E04FE746
:1002E00053E40E94620620E030E048E453E40E94B8
:1002F000800720E030E048EC52E40E94F905482FE6
:10030000592F162F862F972FA42FB52F89839A83C5
:10031000AB83BC83602F70E080E090E00E94CA064F
:1003200020E030E04FE753E40E94620620E030E036
:1003300048E453E40E94800720E030E048EC52E4B7
:100340000E94F905E62F462F572F682F792F4D83EE
:100350005E836F837887212F3A814B815C816E2F7A
:100360007E818F81988528960FB6F894DEBF0FBEE8
:10037000CDBFDF91CF911F910F910895CF92DF9262
:10038000EF92FF92CF93DF93EC01C880D980EA808F
:10039000FB8020E030E04EE852ECC701B6010E943D
:1003A0005E0688232CF120E030E04EE852E4C701DD
:1003B000B6010E947C071816F4F0CC80DD80EE8038
:1003C000FF8020E030E04EE852ECC701B6010E9409
:1003D0005E0688239CF020E030E04EE852E4C7013E
:1003E000B6010E947C07181664F48BE893E00BC0FA
:1003F0008BE793E008C080E893E005C086E893E0CF
:1004000002C08EE893E0DF91CF91FF90EF90DF90F4
:10041000CF9008951F920F920FB60F9211242F9331
:100420003F934F935F936F937F938F939F93AF937C
:10043000BF93EF93FF938091BC039091BD038330F2
:10044000910534F401969093BD038093BC0364C07E
:100450008091BE039091BF03009779F481E090E012
:100460009093BF038093BE0382E090E090930701D6
:10047000809306010E947D004FC081309105C9F52F
:1004800080910601909107018230910549F48BE03B
:1004900090E09093BF038093BE030E94BC003CC0D9
:1004A0008330910549F48CE090E09093BF038093F2
:1004B000BE030E94D10030C08430910549F48DE024
:1004C00090E09093BF038093BE030E94EA0024C093
:1004D000059711F58EE090E09093BF038093BE03E3
:1004E00082E090E090930701809306010E9413013F
:1004F00013C00E9789F4809106019091070102972D
:1005000059F48DE890E09093BF038093BE038091EF
:10051000C00390E00E943A01FF91EF91BF91AF912B
:100520009F918F917F916F915F914F913F912F910B
:100530000F900FBE0F901F9018951F920F920FB63D
:100540000F9211242F933F934F935F936F937F9359
:100550008F939F93AF93BF93EF93FF938091BE03CD
:100560009091BF038130910539F41092BF0310922E
:10057000BE030E94620026C09C012B50310924302A
:10058000310578F481E090E09093BF038093BE033F
:1005900082E090E090930701809306010E947D0025
:1005A00011C08D38910571F48EE090E09093BF03F7
:1005B0008093BE0382E090E0909307018093060150
:1005C0000E941301FF91EF91BF91AF919F918F9185
:1005D0007F916F915F914F913F912F910F900FBE3F
:1005E0000F901F90189586E993E00E942E080895B9
:1005F000CF93DF938091BE039091BF038D38910517
:1006000039F58091C0030E94BB0460E283E00E9440
:100610004805C0E4D0E080E00E94B804219720970C
:10062000D1F760E283E00E9448058091C00386957F
:10063000869571F0C0E0D0E08FEF0E94B80421965B
:100640008091C0038695869590E0C817D907A4F3DA
:10065000DF91CF910895CF93DF93CDB7DEB7289781
:100660000FB6F894DEBF0FBECDBF29833A834B830C
:100670005C836D837E838F839887CE0101960E9471
:10068000BE012091BE033091BF032130310509F036
:1006900068C023E08B38920781F580910601909124
:1006A000070183309105A4F068E00E9448050E948C
:1006B000970580910601909107010197909307019A
:1006C0008093060168E00E9448050E948A05B4C034
:1006D000029709F0B1C068E082E00E9448050E94DC
:1006E000970585E090E0909307018093060168E00C
:1006F0000E9448050E948A059FC08658934009F0D1
:100700009BC0809106019091070185309105A4F46A
:1007100068E00E9448050E9497058091060190912B
:1007200007010196909307018093060168E00E94FB
:1007300048050E948A0580C0059709F07DC068E0E1
:1007400085E00E9448050E94970582E090E0909322
:1007500007018093060168E00E9448050E948A050F
:100760006BC02E30310509F067C023E08B3892074B
:1007700089F5809106019091070183309105A9F4D4
:1007800068E083E00E9448050E9497058091060179
:10079000909107010197909307018093060168E00B
:1007A0000E9448050E948A0547C0029709F044C08C
:1007B00068E082E00E9448050E94970583E090E08F
:1007C000909307018093060168E00E9448050E940B
:1007D0008A0532C08658934079F580910601909140
:1007E000070182309105A9F468E082E00E94480583
:1007F0000E949705809106019091070101969093C0
:1008000007018093060168E00E9448050E948A055E
:1008100013C0039789F468E083E00E9448050E94B2
:10082000970582E090E0909307018093060168E0CD
:100830000E9448050E948A0528960FB6F894DEBFEC
:100840000FBECDBFDF91CF910895CF93DF93CDB78A
:10085000DEB729970FB6F894DEBF0FBECDBF8FE18C
:1008600090E00E94EF0586EB93E00E942E082FE3B4
:100870008DE093E0215080409040E1F700C00000FF
:100880000E94E3050E94C1040E941A05C09A0E94BA
:1008900062008BB7806C8BBF8FB780688FBF85B7C6
:1008A0008F6085BF78940E945301522E632E742E60
:1008B000852E262E372E482E998786E00E945700D7
:1008C000982E8093C00387E00E9457000E94530136
:1008D00029833A834B835C836D837E838F839887E0
:1008E000E22EF32E042F152FA62EB72EC82ED92EAA
:1008F000652D762D872D982D0E945E0681110CC0E6
:100900002A2D3B2D4C2D5D2D622D732D842D998527
:100910000E945E06882351F029813A814B815C81D7
:100920006D817E818F8198850E942B0386E00E94D5
:1009300057008093C00398120E94F8029090C00361
:1009400087E00E945700B09B0E94F3028FEF90E770
:1009500022E0815090402040E1F700C000005E2C72
:100960006F2C702E812E2A2C3B2C4C2CD986AECF8E
:10097000809300120895E0E0F0E191E89083808395
:10098000089580EB8093001080E890E0E0E0F2E1D1
:10099000108201970097E1F781EB8093001080E8C7
:1009A00090E0E0E0F2E1108201970097E1F782EB3E
:1009B0008093001080E890E0E0E0F2E1108201977F
:1009C0000097E1F783EB8093001080E890E0E0E08F
:1009D000F2E1108201970097E1F784EB8093001019
:1009E00080E890E0E0E0F2E1108201970097E1F703
:1009F00085EB8093001080E890E0E0E0F2E1108267
:100A000001970097E1F786EB8093001080E890E073
:100A1000E0E0F2E1108201970097E1F787EB809325
:100A2000001080E890E0E0E0F2E11082019700978A
:100A3000E1F70895E0E0F0E18EEA808381EA8083C7
:100A40008AED808382E1808388EC808388EA8083DA
:100A50008FE3808385ED808380E8808381E88083D5
:100A600080E5808389ED808381E2808380E28083DA
:100A700082E080838BED808380E380838DEA8083B6
:100A8000108284EA808386EA80838FEA80830895D7
:100A90008055E0E0F0E18083862F8F70808360775F
:100AA00062956F70606160830895880F991F880F49
:100AB000991FDC01A857BF4F8C91E0E0F2E18083E1
:100AC00011968C911197808312968C911297808346
:100AD00013968C91808308950F931F93CF93DF9388
:100AE000FC018081882389F08F010F5F1F4FC0E0D8
:100AF000D0E090E00E9455052196F80181918F0188
:100B0000882319F0C032D105A1F7DF91CF911F9151
:100B10000F910895E0E0F2E180E18083808380839B
:100B200080839CE7908398E3908380830895E0E03E
:100B3000F2E11082108210821082108210821082E4
:100B40000895E0E0F2E1108288EF80839CEF9083CB
:100B500026EF20833FE330832083908380831082BD
:100B600008950F931F93CF93DF93182F062F0E94A2
:100B70004805C0E0D2E11882188280E1888394E9B8
:100B8000988327ED28833FEF3883288398838883D1
:100B900018821882602F81E0810F0E944805188218
:100BA00092E0988383E0888323E228833FE33883BD
:100BB000888338832883888398831882DF91CF9134
:100BC0001F910F91089585B7806885BF08955D9B3B
:100BD000FECF8CB908955F9BFECF8CB1089589B983
:100BE00088E18AB96BEE75E087EE95E00E94E30735
:100BF00008955058BB27AA270ED044C135D130F0F4
:100C00003AD120F031F49F3F11F41EF42AC10EF4C2
:100C1000E095E7FB20C1E92F46D180F3BA176207C0
:100C200073078407950718F071F49EF55EC10EF402
:100C3000E0950B2EBA2FA02D0B01B90190010C01EC
:100C4000CA01A0011124FF27591B99F0593F50F404
:100C5000503E68F11A16F040A22F232F342F44275C
:100C6000585FF3CF469537952795A795F040539554
:100C7000C9F77EF41F16BA0B620B730B840BBAF024
:100C80009150A1F0FF0FBB1F661F771F881FC2F78F
:100C90000EC0BA0F621F731F841F48F487957795A3
:100CA0006795B795F7959E3F08F0B3CF9395880F5A
:100CB00008F09927EE0F979587950895A8D008F426
:100CC00081E008950CD0DEC0D6D040F0CDD030F019
:100CD00021F45F3F19F0BFC0511108C1C2C0E3D079
:100CE00098F39923C9F35523B1F3951B550BBB27F3
:100CF000AA2762177307840738F09F5F5F4F220FA0
:100D0000331F441FAA1FA9F333D00E2E3AF0E0E898
:100D100030D091505040E695001CCAF729D0FE2FE4
:100D200027D0660F771F881FBB1F26173707480776
:100D3000AB07B0E809F0BB0B802DBF01FF2793582C
:100D40005F4F2AF09E3F510568F085C0CFC05F3FDE
:100D5000ECF3983EDCF3869577956795B795F79514
:100D60009F5FC9F7880F911D9695879597F908950C
:100D7000E1E0660F771F881FBB1F621773078407A8
:100D8000BA0720F0621B730B840BBA0BEE1F88F7B7
:100D9000E0950895E89409C097FB3EF490958095FE
:100DA000709561957F4F8F4F9F4F9923A9F0F92F31
:100DB00096E9BB279395F695879577956795B795AF
:100DC000F111F8CFFAF4BB0F11F460FF1BC06F5F95
:100DD0007F4F8F4F9F4F16C0882311F096E911C0A7
:100DE000772321F09EE8872F762F05C0662371F0C8
:100DF00096E8862F70E060E02AF09A95660F771FDC
:100E0000881FDAF7880F9695879597F90895990FB7
:100E10000008550FAA0BE0E8FEEF16161706E807C4
:100E2000F907C0F012161306E407F50798F0621BE5
:100E3000730B840B950B39F40A2661F0232B242BBA
:100E4000252B21F408950A2609F4A140A6958FEFD9
:100E5000811D811D089597F99F6780E870E060E02B
:100E600008959FEF80EC089500240A941616170643
:100E700018060906089500240A941216130614068B
:100E800005060895092E0394000C11F4882352F0EE
:100E9000BB0F40F4BF2B11F460FF04C06F5F7F4FA6
:100EA0008F4F9F4F089557FD9058440F551F59F08D
:100EB0005F3F71F04795880F97FB991F61F09F3F47
:100EC00079F087950895121613061406551FF2CF70
:100ED0004695F1DF08C0161617061806991FF1CFC0
:100EE00086957105610508940895E894BB276627E7
:100EF0007727CB0197F908958ADF08F48FEF0895DB
:100F00000BD0C0CFB1DF28F0B6DF18F0952309F081
:100F1000A2CFA7CF1124EACFC6DFA0F3959FD1F3CC
:100F2000950F50E0551F629FF001729FBB27F00D97
:100F3000B11D639FAA27F00DB11DAA1F649F6627EC
:100F4000B00DA11D661F829F2227B00DA11D621F3B
:100F5000739FB00DA11D621F839FA00D611D221FF5
:100F6000749F3327A00D611D231F849F600D211DD9
:100F7000822F762F6A2F11249F5750408AF0E1F07C
:100F800088234AF0EE0FFF1FBB1F661F771F881FC5
:100F900091505040A9F79E3F510570F05CCFA6CF0D
:100FA0005F3FECF3983EDCF3869577956795B795B0
:100FB000F795E7959F5FC1F7FE2B880F911D9695DA
:100FC000879597F908950F931F93CF93DF93EC01C3
:100FD0008B01009731F46115710519F480E090E000
:100FE00038C06EE070E081E090E00E945B08FC0198
:100FF0000097A1F380E883830115110571F0138731
:10100000028781E883838091C1039091C203892B79
:1010100021F4F093C203E093C1032097C9F0D18774
:10102000C0878381826083838091C3039091C403CE
:10103000892B71F4F093C403E093C3038091C5033B
:101040009091C603892B21F4F093C603E093C50366
:10105000CF01DF91CF911F910F9108950F931F93AF
:10106000CF93DF93E091C303F091C403238121FF69
:101070001BC0EC0100E010E089916091C303709106
:10108000C403DB011896ED91FC911997882331F088
:101090000995892B89F30FEF1FEFEECF8AE00995B1
:1010A000892B11F4C80102C08FEF9FEFDF91CF9120
:1010B0001F910F9108950F931F93CF93DF93869FF6
:1010C0008001879F100D969F100D1124C8010E946A
:1010D0007708EC01009729F0A80160E070E00E9419
:1010E0009E09CE01DF91CF911F910F910895CF936B
:1010F000DF938230910510F482E090E0E091C90323
:10110000F091CA0320E030E0A0E0B0E0309739F180
:101110004081518148175907B8F04817590771F4B1
:1011200082819381109729F013969C938E93129746
:101130002CC09093CA038093C90327C021153105A1
:1011400031F04217530718F0A901DB0101C0EF018C
:101150009A01BD01DF010280F381E02DD7CF211577
:101160003105F9F0281B390B2430310580F48A81D0
:101170009B816115710521F0FB019383828304C07B
:101180009093CA038093C903FE01329644C0FE01C6
:10119000E20FF31F81939193225031093983288301
:1011A0003AC02091C7033091C803232B41F420910A
:1011B0000201309103013093C8032093C7032091AB
:1011C0000001309101012115310541F42DB73EB7E1
:1011D0004091040150910501241B350BE091C70398
:1011E000F091C803E217F307A0F42E1B3F0B28175A
:1011F000390778F0AC014E5F5F4F2417350748F090
:101200004E0F5F1F5093C8034093C7038193919380
:1012100002C0E0E0F0E0CF01DF91CF910895CF93DD
:10122000DF93009709F487C0FC0132971382128282
:10123000C091C903D091CA03209781F420813181E4
:10124000280F391F8091C7039091C8038217930715
:1012500079F5F093C803E093C7036DC0DE0120E089
:1012600030E0AE17BF0750F412964D915C91139782
:101270009D014115510509F1DA01F3CFB383A28332
:1012800040815181840F951F8A179B0771F48D91BE
:101290009C911197840F951F0296918380831296DB
:1012A0008D919C911397938382832115310529F4A5
:1012B000F093CA03E093C9033EC0D9011396FC938F
:1012C000EE9312974D915D91A40FB51FEA17FB079E
:1012D00079F480819181840F951F0296D90111962E
:1012E0009C938E938281938113969C938E931297F5
:1012F000E0E0F0E08A819B81009719F0FE01EC01AB
:10130000F9CFCE01029628813981820F931F209157
:10131000C7033091C8032817390769F4309729F4B7
:101320001092CA031092C90302C013821282D09392
:10133000C803C093C703DF91CF910895DC0101C0BA
:0E1340006D9341505040E0F70895F894FFCFB0
:10134E000000CB032000020000000000005C000043
:10135E000C000C007C287C2858DC68002410480007
:10136E0028542840000C0000007884008478000087
:10137E0054385400107C10008040000010101000F3
:10138E000040000060100C0038543800487C4000CB
:10139E004864580044542C001C107C005C542400FB
:1013AE003854240064140C0068542C00485438003F
:1013BE00004800008048000010284400282828001B
:1013CE00442810000454080038445C007814780057
:1013DE007C542800384428007C4438007C54440057
:1013EE007C140400384474007C107C00447C44005F
:1013FE0020403C007C106C007C4040007C187C003F
:10140E0078103C00384438007C1408003844B8008A
:10141E007C14680048542400047C04007C407C004A
:10142E003C603C007C307C006C106C000C700C003E
:10143E0064544C00007C44000C106000447C00009E
:10144E0008040800808080000004080030487800FE
:10145E007C4830003048480030487C0030685000EE
:10146E001078140090A878007C087000507440002A
:10147E00808074007C106800447C400078107800F6
:10148E007808700030483000F82810003048F80016
:10149E007810080050582800083C48003840780062
:1014AE0038403800782078004830480098A07800FE
:1014BE004868580010788400007C00008478100082
:1014CE000804080457656C636F6D6520746F207493
:1014DE00686520626573742070696E6720706F6E28
:1014EE00670067616D6520696E2074686520776F8F
:1014FE00726C642100546F7563682072696768743A
:10150E0020746F20737461727421004D61696E20B6
:10151E006D656E75004F6E652D706C61796572200C
:10152E006D6F64650054776F2D706C6179657273A1
:10153E00206D6F6465004869676873636F726573C9
:10154E000053657474696E677300546F7563682019
:10155E00726967687420746F20656E7465720031ED
:10156E002E2036353020706F696E747300322E2047
:10157E0034323220706F696E747300332E20323025
:10158E003020706F696E7473004272696768746E92
:10159E0065737300536F756E6400557365206C65CB
:1015AE00667420736C69646520746F207365742093
:1015BE006272696768746E657373004C45465400B9
:1015CE00524947485400444F574E005550004E451F
:1015DE00555452414C00496E746572727570746543
:1015EE0064206279206A6F79737469636B20627507
:0C15FE0074746F6E2100526573657400F8
:00000001FF
