S01800004E69636F6C61735F5365696C6C6965722E73726563AB
S11300000C94F6000C94E9030C947C040C941301F6
S11300100C9413010C9413010C9413010C9413010C
S11300200C9413010C9413010C9413010C941301FC
S11300300C9413010C9413010C9413010C941301EC
S11300400C9413010C9413010C9413010C941301DC
S11300500C9413010C9413010C9413010C941301CC
S11300600C9413010C9413010C9413010C941301BC
S113007000000000005C00000C000C007C287C28C0
S113008058DC68002410480028542840000C000064
S1130090007884008478000054385400107C1000E8
S11300A080400000101010000040000060100C00A0
S11300B038543800487C40004864580044542C00AC
S11300C01C107C005C5424003854240064140C007C
S11300D068542C0048543800004800008048000050
S11300E0102844002828280044281000045408003C
S11300F038445C00781478007C5428003844280084
S11301007C4438007C5444007C140400384474005B
S11301107C107C00447C440020403C007C106C003B
S11301207C4040007C187C0078103C003844380047
S11301307C1408003844B8007C1468004854240037
S1130140047C04007C407C003C603C007C307C00EF
S11301506C106C000C700C0064544C00007C440067
S11301600C106000447C00000804080080808000BB
S113017000040800304878007C48300030484800CB
S113018030487C00306850001078140090A8780043
S11301907C08700050744000808074007C106800FB
S11301A0447C4000781078007808700030483000B3
S11301B0F82810003048F80078100800505828003B
S11301C0083C4800384078003840380078207800EF
S11301D04830480098A07800486858001078840097
S11301E0007C0000847810000804080411241FBE59
S11301F0CFEFD4E0DEBFCDBF12E0A0E0B1E0E2E19A
S1130200FDE102C005900D92AE33B107D9F722E0AB
S1130210AEE3B2E001C01D92AD34B207E1F70E9433
S1130220FF050C94870E0C9400008093001483EF58
S113023091E00197F1F700C0000080910014089547
S11302400E94ED070E94990387EA91E60197F1F76E
S113025000C0000040E460EE8FE00E94CF0341E064
S113026061E08BE20E94CF030895EF92FF920F9317
S11302701F93CF93DF937C01FC0140815181440F94
S1130280551F42955295507F5427407F5427552738
S113029060EE82E30E94CF03F7016081718176955D
S11302A06795769567957695679581E30E94B30384
S11302B0F70142816FE085E30E94CF03F701828159
S11302C09381181619069CF487010C5F1F4FC0E038
S11302D0D0E0F80161918F018C2F8A5C0E94B303F6
S11302E02196F70122813381C217D30794F30E9428
S11302F0C703DF91CF911F910F91FF90EF90089565
S11303007F928F929F92AF92BF92CF92DF92EF92A1
S1130310FF920F931F93CF93DF93CDB7DEB72C9744
S11303200FB6F894DEBF0FBECDBF6C0182E60E940B
S1130330A103882E81E60E94A103912C96948794B0
S11303409694879496948794969487949694879495
S113035098E0899F800C911C1124992485E60E94C1
S1130360A103982F9F70A92EB12C8823A1F08E0190
S11303700B5F1F4F7801E80EF11C0F2EF6E67F2E5F
S1130380F02D872D0E94A103F80181938F017394AE
S1130390EE15FF05B1F740E061E08CE20E94CF0367
S11303A09A828982BC82AB828CE0FE013196D601AE
S11303B001900D928A95E1F7C6012C960FB6F89438
S11303C0DEBF0FBECDBFDF91CF911F910F91FF9084
S11303D0EF90DF90CF90BF90AF909F908F907F90E1
S11303E008950E94CD0664E081E00E94540788E0ED
S11303F091E00E9476076CE183E00E94540786E254
S113040091E00E94760764E187E00E94540789E343
S113041091E00E94760708950E94CD066EE280E086
S11304200E9454078FE491E00E94760768E082E01E
S11304300E9454070E94940764E182E00E945407DA
S113044089E591E00E94760764E183E00E94540705
S113045089E691E00E94760764E184E00E945407F3
S11304608AE791E00E94760764E185E00E945407E0
S113047085E891E00E94760760E387E00E945407D4
S11304808EE891E00E94760760E087E00E945407BE
S11304900E94AB0708950E94CD0660E280E00E94AE
S11304A0540789E591E00E9476076AE383E00E949D
S11304B0BB0760E087E00E9454070E94AB070895E1
S11304C00E94CD0660E280E00E94540789E691E034
S11304D00E9476076DE183E00E94BB0767E583E035
S11304E00E94BB0760E087E00E9454070E94AB07AC
S11304F008950E94CD066CE280E00E9454078AE7CA
S113050091E00E94760764E182E00E94540783EA46
S113051091E00E94760764E183E00E94540781EB36
S113052091E00E94760764E184E00E9454078FEB17
S113053091E00E94760760E087E00E9454070E94E1
S1130540AB0708950E94CD0660E380E00E94540743
S113055085E891E00E94760768E082E00E945407F3
S11305600E94940764E182E00E9454078DEC91E0BC
S11305700E94760764E183E00E94540788ED91E0CD
S11305800E94760760E087E00E9454070E94AB0750
S113059008950E94CD066CE280E00E9454078DEC21
S11305A091E00E94760760E085E00E9454078EED9A
S11305B091E00E94760760E087E00E9454070E9461
S11305C0AB0708950F931F93CF93DF93CDB7DEB797
S11305D028970FB6F894DEBF0FBECDBF85E00E940A
S11305E01501182F84E00E941501082F612F70E077
S11305F080E090E00E94E90820E030E04FE753E417
S11306000E94810820E030E048E453E40E949F09FE
S113061020E030E048EC52E40E941808482F592F9B
S1130620162F862F972FA42FB52F89839A83AB83F8
S1130630BC83602F70E080E090E00E94E90820E035
S113064030E04FE753E40E94810820E030E048E4C2
S113065053E40E949F0920E030E048EC52E40E94F9
S11306601808E62F462F572F682F792F4D835E8366
S11306706F837887212F3A814B815C816E2F7E8135
S11306808F81988528960FB6F894DEBF0FBECDBF34
S1130690DF91CF911F910F910895CF92DF92EF9246
S11306A0FF92CF93DF93EC01C880D980EA80FB806E
S11306B020E030E04EE852ECC701B6010E947D080C
S11306C088232CF120E030E04EE852E4C701B60163
S11306D00E949B091816F4F0CC80DD80EE80FF8028
S11306E020E030E04EE852ECC701B6010E947D08DC
S11306F088239CF020E030E04EE852E4C701B601C4
S11307000E949B09181664F48FE092E00BC08FEFEF
S113071091E008C084E092E005C08AE092E002C063
S113072082E192E0DF91CF91FF90EF90DF90CF9044
S113073008950E94FE0780EC0E94F5070E940008BD
S11307400895CF93C82F0E94FE0783E00E94F50707
S11307508C2F0E94F5070E94F907C82F0E940008F9
S11307608C2FCF910895CF93DF93D82FC62F0E945B
S1130770FE0782E00E94F5078D2F0E94F5078C2F5B
S11307800E94F5070E940008DF91CF9108950E940E
S1130790FE0781E80E94F5070E94000808951F9350
S11307A0CF93DF93182FD62FC42F0E94FE0785E026
S11307B00E94F507812F0E94F5078D2F0E94F507EF
S11307C08C2F0E94F5070E940008DF91CF911F91A2
S11307D008951F920F920FB60F9211242F933F93F7
S11307E04F935F936F937F938F939F93AF93BF9335
S11307F0EF93FF9380913E0290913F0283309105E5
S113080034F4019690933F0280933E0264C0809139
S1130810400290914102009779F481E090E0909336
S113082041028093400282E090E09093070180931C
S113083006010E940C024FC081309105C9F58091D8
S11308400601909107018230910549F48BE090E014
S113085090934102809340020E944B023CC083303B
S1130860910549F48CE090E090934102809340021A
S11308700E94600230C08430910549F48DE090E01C
S113088090934102809340020E94790224C005970C
S113089011F58EE090E0909341028093400282E053
S11308A090E090930701809306010E94A20213C076
S11308B00E9789F48091060190910701029759F4EB
S11308C08DE890E09093410280934002809142022F
S11308D090E00E94C902FF91EF91BF91AF919F9167
S11308E08F917F916F915F914F913F912F910F90D5
S11308F00FBE0F901F9018951F920F920FB60F9274
S113090011242F933F934F935F936F937F938F9310
S11309109F93AF93BF93EF93FF9380914002909185
S113092041028130910539F4109241021092400243
S11309300E94F10126C09C012B503109243031055D
S113094078F481E090E0909341028093400282E049
S113095090E090930701809306010E940C0211C05D
S11309608D38910571F48EE090E09093410280936C
S1130970400282E090E090930701809306010E9478
S1130980A202FF91EF91BF91AF919F918F917F91BF
S11309906F915F914F913F912F910F900FBE0F90E8
S11309A01F901895CF93DF9380914002909141025C
S11309B08D38910539F5809142020E94C70660E2A4
S11309C083E00E945407C0E4D0E080E00E94C406A3
S11309D021972097D1F760E283E00E945407809129
S11309E042028695869571F0C0E0D0E08FEF0E94B8
S11309F0C4062196809142028695869590E0C81798
S1130A00D907A4F3DF91CF910895CF93DF93CDB7A6
S1130A10DEB728970FB6F894DEBF0FBECDBF29838B
S1130A203A834B835C836D837E838F839887CE0167
S1130A3001960E944D0320914002309141022130E1
S1130A40310509F068C022E08F30920781F580916A
S1130A5006019091070183309105A4F068E00E949B
S1130A6054070E94A1078091060190910701019704
S1130A70909307018093060168E00E9454070E9446
S1130A809407B4C0029709F0B1C068E082E00E9404
S1130A9054070E94A10785E090E09093070180939A
S1130AA0060168E00E9454070E9494079FC08A5080
S1130AB0924009F09BC08091060190910701853016
S1130AC09105A4F468E00E9454070E94A107809154
S1130AD00601909107010196909307018093060106
S1130AE068E00E9454070E94940780C0059709F0AB
S1130AF07DC068E085E00E9454070E94A10782E05F
S1130B0090E0909307018093060168E00E945407E7
S1130B100E9494076BC02E30310509F067C022E0B3
S1130B208F30920789F580910601909107018330F7
S1130B309105A9F468E083E00E9454070E94A1078C
S1130B40809106019091070101979093070180938A
S1130B50060168E00E9454070E94940747C0029768
S1130B6009F044C068E082E00E9454070E94A10793
S1130B7083E090E0909307018093060168E00E946F
S1130B8054070E94940732C08A50924079F58091AC
S1130B9006019091070182309105A9F468E082E092
S1130BA00E9454070E94A1078091060190910701B9
S1130BB00196909307018093060168E00E94540710
S1130BC00E94940713C0039789F468E083E00E94AD
S1130BD054070E94A10782E090E09093070180935C
S1130BE0060168E00E9454070E94940728960FB6F5
S1130BF0F894DEBF0FBECDBFDF91CF910895CF93A0
S1130C00DF93CDB7DEB7A1970FB6F894DEBF0FBE62
S1130C10CDBF8FE190E00E940E088AE192E00E942D
S1130C20610A2FE38DE093E0215080409040E1F78A
S1130C3000C000000E9402080E94CD060E94260700
S1130C400E9420010E94F1018DEA90E09A83898339
S1130C5081E090E09C838B8389E98D83CE010196AA
S1130C600E9435012FE38DE093E0215080409040B5
S1130C70E1F700C00000CE010D960E948001898931
S1130C801F928F9388898F938F858F938E858F93EF
S1130C908D858F9380E292E09F938F930E944D0AFB
S1130CA08BB7806C8BBF8FB780688FBF85B78F6021
S1130CB085BF86B716BE78940E94E202522E632E38
S1130CC0742E852E262E372E482E99A386E00E9458
S1130CD01501982E8093420287E00E9415010FB6F9
S1130CE0F894DEBF0FBECDBF0E94E202298F3A8F77
S1130CF04B8F5C8F6D8F7E8F8F8F98A3E22EF32E98
S1130D00042F152FA62EB72EC82ED92E652D762D7D
S1130D10872D982D0E947D0881110CC02A2D3B2D12
S1130D204C2D5D2D622D732D842D99A10E947D087B
S1130D30882351F0298D3A8D4B8D5C8D6D8D7E8D80
S1130D408F8D98A10E94050586E00E94150180936D
S1130D50420298120E94D2049090420287E00E94BC
S1130D60150186B39FEF20E782E091502040804038
S1130D70E1F700C000005E2C6F2C702E812E2A2C0F
S1130D803B2C4C2CD9A2B0CF809300120895E0E004
S1130D90F0E191E890838083089580EB80930010C4
S1130DA080E890E0E0E0F2E1108201970097E1F73B
S1130DB081EB8093001080E890E0E0E0F2E11082A3
S1130DC001970097E1F782EB8093001080E890E0B0
S1130DD0E0E0F2E1108201970097E1F783EB809362
S1130DE0001080E890E0E0E0F2E1108201970097C3
S1130DF0E1F784EB8093001080E890E0E0E0F2E11A
S1130E00108201970097E1F785EB8093001080E84A
S1130E1090E0E0E0F2E1108201970097E1F786EBC1
S1130E208093001080E890E0E0E0F2E11082019706
S1130E300097E1F787EB8093001080E890E0E0E012
S1130E40F2E1108201970097E1F70895E0E0F0E104
S1130E508EEA808381EA80838AED808382E18083C5
S1130E6088EC808388EA80838FE3808385ED8083A8
S1130E7080E8808381E8808380E5808389ED8083B6
S1130E8081E2808380E2808382E080838BED8083B3
S1130E9080E380838DEA8083108284EA808386EAFB
S1130EA080838FEA808308958055E0E0F0E18083B9
S1130EB0862F8F708083607762956F706061608326
S1130EC00895880F991F880F991F20E030E0805102
S1130ED09040A0E0B2E1FC01E20FF31FE491EC9337
S1130EE02F5F3F4F24303105B1F708950F931F93BF
S1130EF0CF93DF93FC018081882389F08F010F5FFA
S1130F001F4FC0E0D0E090E00E9461072196F801F5
S1130F1081918F01882319F0C032D105A1F7DF91A7
S1130F20CF911F910F910895E0E0F2E180E1808379
S1130F308083808380839CE7908398E3908380837D
S1130F400895E0E0F2E11082108210821082108293
S1130F50108210820895E0E0F2E1108288EF80832D
S1130F609CEF908326EF20833FE33083208390839C
S1130F708083108208950F931F93CF93DF93182FCC
S1130F80062F0E945407C0E0D2E11882188280E143
S1130F90888394E9988327ED28833FEF3883288357
S1130FA09883888318821882602F81E0810F0E94C1
S1130FB05407188292E0988383E0888323E228838D
S1130FC03FE338838883388328838883988318820F
S1130FD0DF91CF911F910F91089587B3806B87BBE9
S1130FE0BE98C49A81E58DB908958FB9779BFECFD9
S1130FF008951FB8779BFECF8FB10895C4980895C4
S1131000C49A089585B7806885BF08955D9BFECF17
S11310108CB908955F9BFECF8CB1089589B988E19E
S11310208AB96AE078E086E098E00E94020A0895AE
S11310305058BB27AA270ED044C135D130F03AD13D
S113104020F031F49F3F11F41EF42AC10EF4E09510
S1131050E7FB20C1E92F46D180F3BA176207730773
S11310608407950718F071F49EF55EC10EF4E095BF
S11310700B2EBA2FA02D0B01B90190010C01CA014E
S1131080A0011124FF27591B99F0593F50F4503EF9
S113109068F11A16F040A22F232F342F4427585FEB
S11310A0F3CF469537952795A795F0405395C9F703
S11310B07EF41F16BA0B620B730B840BBAF09150BB
S11310C0A1F0FF0FBB1F661F771F881FC2F70EC05A
S11310D0BA0F621F731F841F48F48795779567952D
S11310E0B795F7959E3F08F0B3CF9395880F08F016
S11310F09927EE0F979587950895A8D008F481E075
S113110008950CD0DEC0D6D040F0CDD030F021F41C
S11311105F3F19F0BFC0511108C1C2C0E3D098F3BA
S11311209923C9F35523B1F3951B550BBB27AA2764
S113113062177307840738F09F5F5F4F220F331FD6
S1131140441FAA1FA9F333D00E2E3AF0E0E830D0A2
S113115091505040E695001CCAF729D0FE2F27D0A5
S1131160660F771F881FBB1F261737074807AB0773
S1131170B0E809F0BB0B802DBF01FF2793585F4FE8
S11311802AF09E3F510568F085C0CFC05F3FECF365
S1131190983EDCF3869577956795B795F7959F5FAD
S11311A0C9F7880F911D9695879597F90895E1E001
S11311B0660F771F881FBB1F621773078407BA0760
S11311C020F0621B730B840BBA0BEE1F88F7E095BB
S11311D00895E89409C097FB3EF490958095709526
S11311E061957F4F8F4F9F4F9923A9F0F92F96E96F
S11311F0BB279395F695879577956795B795F111E4
S1131200F8CFFAF4BB0F11F460FF1BC06F5F7F4F80
S11312108F4F9F4F16C0882311F096E911C0772392
S113122021F09EE8872F762F05C0662371F096E89B
S1131230862F70E060E02AF09A95660F771F881F6A
S1131240DAF7880F9695879597F90895990F00080E
S1131250550FAA0BE0E8FEEF16161706E807F90784
S1131260C0F012161306E407F50798F0621B730B1F
S1131270840B950B39F40A2661F0232B242B252BA0
S113128021F408950A2609F4A140A6958FEF811D43
S1131290811D089597F99F6780E870E060E00895E4
S11312A09FEF80EC089500240A941616170618067A
S11312B00906089500240A94121613061406050656
S11312C00895092E0394000C11F4882352F0BB0FE7
S11312D040F4BF2B11F460FF04C06F5F7F4F8F4F4A
S11312E09F4F089557FD9058440F551F59F05F3F85
S11312F071F04795880F97FB991F61F09F3F79F034
S113130087950895121613061406551FF2CF4695B5
S1131310F1DF08C0161617061806991FF1CF869537
S11313207105610508940895E894BB27662777271B
S1131330CB0197F908958ADF08F48FEF08950BD055
S1131340C0CFB1DF28F0B6DF18F0952309F0A2CFA3
S1131350A7CF1124EACFC6DFA0F3959FD1F3950F51
S113136050E0551F629FF001729FBB27F00DB11D25
S1131370639FAA27F00DB11DAA1F649F6627B00DB5
S1131380A11D661F829F2227B00DA11D621F739F9E
S1131390B00DA11D621F839FA00D611D221F749FAC
S11313A03327A00D611D231F849F600D211D822FF3
S11313B0762F6A2F11249F5750408AF0E1F088233A
S11313C04AF0EE0FFF1FBB1F661F771F881F915047
S11313D05040A9F79E3F510570F05CCFA6CF5F3F08
S11313E0ECF3983EDCF3869577956795B795F7957A
S11313F0E7959F5FC1F7FE2B880F911D9695879502
S113140097F908950F931F93CF93DF93EC018B010A
S1131410009731F46115710519F480E090E038C04B
S11314206EE070E081E090E00E94600CFC010097A7
S1131430A1F380E883830115110571F013870287F6
S113144081E883838091430290914402892B21F4A3
S1131450F0934402E09343022097C9F0D187C087F8
S11314608381826083838091450290914602892B17
S113147071F4F0934602E093450280914702909103
S11314804802892B21F4F0934802E0934702CF01EC
S1131490DF91CF911F910F910895A0E0B0E0E3E5B3
S11314A0FAE00C94600EFE01359661917191AF01E2
S11314B080914502909146020E948E0AE2E00C94CB
S11314C07C0E0F931F93CF93DF93E0914502F0912D
S11314D04602238121FF1BC0EC0100E010E089914A
S11314E06091450270914602DB011896ED91FC91E2
S11314F01997882331F00995892B89F30FEF1FEF92
S1131500EECF8AE00995892B11F4C80102C08FEF50
S11315109FEFDF91CF911F910F910895ACE0B0E060
S1131520E4E9FAE00C94500E7C016B018A01FC01A1
S113153017821682838181FFBDC1CE0101964C01C1
S1131540F7019381F60193FD859193FF81916F01DA
S1131550882309F4ABC1853239F493FD859193FF57
S113156081916F01853229F4B70190E00E94C00D8A
S1131570E7CF512C312C20E02032A0F48B3269F0DB
S113158030F4803259F0833269F420612CC08D32FA
S113159039F0803339F4216026C02260246023C0EE
S11315A0286021C027FD27C030ED380F3A3078F489
S11315B026FF06C0FAE05F9E300D1124532E13C09F
S11315C08AE0389E300D1124332E20620CC08E32F6
S11315D021F426FD6BC1206406C08C3611F420680A
S11315E002C0883641F4F60193FD859193FF819101
S11315F06F018111C1CF982F9F7D9554933028F4AA
S11316000C5F1F4FFFE3F9830DC0833631F083373E
S113161071F0833509F05BC022C0F80180818983B1
S11316200E5F1F4F44244394512C540115C03801BC
S1131630F2E06F0E711CF801A080B18026FF03C098
S1131640652D70E002C06FEF7FEFC5012C870E940B
S1131650B50D2C0183012C852F77222E17C038015C
S1131660F2E06F0E711CF801A080B18026FF03C068
S1131670652D70E002C06FEF7FEFC5012C870E94DB
S1131680A30D2C012C852068222E830123FC1BC072
S1131690832D90E048165906B0F4B70180E290E03B
S11316A00E94C00D3A94F4CFF50127FC859127FEE2
S11316B081915F01B70190E00E94C00D31103A940E
S11316C0F1E04F1A51084114510471F7E5C0843612
S11316D011F0893639F5F80127FF07C0608171815F
S11316E0828193810C5F1F4F08C0608171818827BC
S11316F077FD8095982F0E5F1F4F2F76B22E97FFA0
S113170009C090958095709561957F4F8F4F9F4F3D
S11317102068B22E2AE030E0A4010E94F20DA82E27
S1131720A81844C0853729F42F7EB22E2AE030E071
S113173025C0F22FF97FBF2E8F36C1F018F48835FB
S113174079F0B4C0803719F0883721F0AFC02F2F5B
S11317502061B22EB4FE0DC08B2D8460B82E09C05A
S113176024FF0AC09F2F9660B92E06C028E030E0FF
S113177005C020E130E002C020E132E0F801B7FE0C
S113178007C060817181828193810C5F1F4F06C005
S11317906081718180E090E00E5F1F4FA4010E9480
S11317A0F20DA82EA818FB2DFF77BF2EB6FE0BC096
S11317B02B2D2E7FA51450F4B4FE0AC0B2FC08C031
S11317C02B2D2E7E05C07A2C2B2D03C07A2C01C024
S11317D0752C24FF0DC0FE01EA0DF11D80818033BC
S11317E011F4297E09C022FF06C07394739404C0C7
S11317F0822F867809F0739423FD13C020FF06C05E
S11318005A2C731418F4530C5718732C731468F46B
S1131810B70180E290E02C870E94C00D73942C8560
S1131820F5CF731410F4371801C0312C24FF12C003
S1131830B70180E390E02C870E94C00D2C8522FF25
S113184017C021FF03C088E590E002C088E790E05C
S1131850B7010CC0822F867859F021FD02C080E2C6
S113186001C08BE227FD8DE2B70190E00E94C00D1C
S1131870A51438F4B70180E390E00E94C00D5A9497
S1131880F7CFAA94F401EA0DF11D8081B70190E02D
S11318900E94C00DA110F5CF332009F451CEB70139
S11318A080E290E00E94C00D3A94F6CFF701868161
S11318B0978102C08FEF9FEF2C96E2E10C946C0E9F
S11318C00F931F93CF93DF93869F8001879F100D03
S11318D0969F100D1124C8010E947C0CEC01009706
S11318E029F0A80160E070E00E94AE0DCE01DF9106
S11318F0CF911F910F910895CF93DF93823091057B
S113190010F482E090E0E0914B02F0914C0220E070
S113191030E0A0E0B0E0309739F1408151814817C0
S11319205907B8F04817590771F4828193811097C9
S113193029F013969C938E9312972CC090934C028B
S113194080934B0227C02115310531F0421753070C
S113195018F0A901DB0101C0EF019A01BD01DF010B
S11319600280F381E02DD7CF21153105F9F0281B32
S1131970390B2430310580F48A819B81611571050E
S113198021F0FB019383828304C090934C028093E3
S11319904B02FE01329644C0FE01E20FF31F819315
S11319A0919322503109398328833AC02091490206
S11319B030914A02232B41F420910201309103011A
S11319C030934A0220934902209100013091010191
S11319D02115310541F42DB73EB7409104015091D2
S11319E00501241B350BE0914902F0914A02E217EC
S11319F0F307A0F42E1B3F0B2817390778F0AC012E
S1131A004E5F5F4F2417350748F04E0F5F1F50930A
S1131A104A02409349028193919302C0E0E0F0E0CE
S1131A20CF01DF91CF910895CF93DF93009709F40D
S1131A3087C0FC01329713821282C0914B02D0916D
S1131A404C02209781F420813181280F391F809125
S1131A50490290914A028217930779F5F0934A025A
S1131A60E09349026DC0DE0120E030E0AE17BF070D
S1131A7050F412964D915C9113979D0141155105B7
S1131A8009F1DA01F3CFB383A28340815181840F3A
S1131A90951F8A179B0771F48D919C911197840F60
S1131AA0951F02969183808312968D919C91139732
S1131AB0938382832115310529F4F0934C02E0933A
S1131AC04B023EC0D9011396FC93EE9312974D91AD
S1131AD05D91A40FB51FEA17FB0779F4808191810A
S1131AE0840F951F0296D90111969C938E9382813F
S1131AF0938113969C938E931297E0E0F0E08A8191
S1131B009B81009719F0FE01EC01F9CFCE010296FA
S1131B1028813981820F931F2091490230914A0212
S1131B202817390769F4309729F410924C0210925F
S1131B304B0202C013821282D0934A02C09349021C
S1131B40DF91CF910895FC01059061507040011020
S1131B50D8F7809590958E0F9F1F0895DC0101C0E2
S1131B606D9341505040E0F70895FC01615070407E
S1131B7001900110D8F7809590958E0F9F1F0895BE
S1131B800F931F93CF93DF93182F092FEB018B81B2
S1131B9081FD03C08FEF9FEF20C082FF10C04E81F4
S1131BA05F812C813D81421753077CF4E881F981E0
S1131BB09F012F5F3F4F39832883108306C0E88538
S1131BC0F985812F0995892B29F72E813F812F5F74
S1131BD03F4F3F832E83812F902FDF91CF911F9111
S1131BE00F910895FA01AA27283051F1203181F18B
S1131BF0E8946F936E7F6E5F7F4F8F4F9F4FAF4F11
S1131C00B1E03ED0B4E03CD0670F781F891F9A1F23
S1131C10A11D680F791F8A1F911DA11D6A0F711DD7
S1131C20811D911DA11D20D009F468943F912AE0E3
S1131C30269F11243019305D3193DEF6CF010895CB
S1131C40462F4770405D4193B3E00FD0C9F7F6CFFC
S1131C50462F4F70405D4A3318F0495D31FD4052C4
S1131C60419302D0A9F7EACFB4E0A695979587955A
S1131C7077956795BA95C9F7009761057105089539
S1131C809B01AC010A2E06945795479537952795E5
S1131C90BA95C9F7620F731F841F951FA01D08957D
S1131CA02F923F924F925F926F927F928F929F9268
S1131CB0AF92BF92CF92DF92EF92FF920F931F9356
S1131CC0CF93DF93CDB7DEB7CA1BDB0B0FB6F89407
S1131CD0DEBF0FBECDBF09942A88398848885F8447
S1131CE06E847D848C849B84AA84B984C884DF80B8
S1131CF0EE80FD800C811B81AA81B981CE0FD11D9C
S1131D000FB6F894DEBF0FBECDBFED010895F89471
S1051D10FFCFFF
S1131D1200004D022000020057656C636F6D652060
S1131D22746F2074686520626573742070696E67CD
S1131D3220706F6E670067616D6520696E2074683C
S1131D426520776F726C642100546F75636820722A
S1131D526967687420746F20737461727421004D12
S1131D6261696E206D656E75004F6E652D706C61D4
S1131D72796572206D6F64650054776F2D706C61A4
S1131D8279657273206D6F6465004869676873636F
S1131D926F7265730053657474696E677300546F70
S1131DA275636820726967687420746F20656E7445
S1131DB2657200312E2036353020706F696E74736F
S1131DC200322E2034323220706F696E7473003305
S1131DD22E2032303020706F696E74730042726943
S1131DE26768746E65737300536F756E6400557320
S1131DF265206C65667420736C69646520746F2059
S1131E02736574206272696768746E657373004CDB
S1131E1245465400524947485400444F574E0055D2
S1131E2250004E45555452414C005265736574003E
S1131E3249443A2025642C206C656E6774683A2004
S1111E4225642C20646174613A2025640A0032
S9030000FC
