S01800004E69636F6C61735F5365696C6C6965722E73726563AB
S11300000C94F6000C9438040C94CB040C94130157
S11300100C9413010C9413010C9413010C9413010C
S11300200C9413010C9413010C9413010C941301FC
S11300300C9413010C9413010C9413010C941301EC
S11300400C9413010C9413010C9413010C941301DC
S11300500C9413010C9413010C9413010C941301CC
S11300600C9413010C9413010C9413010C941301BC
S113007000000000005C00000C000C007C287C28C0
S113008058DC68002410480028542840000C000064
S1130090007884008478000054385400107C1000E8
S11300A080400000101010000040000060100C00A0
S11300B038543800487C40004864580044542C00AC
S11300C01C107C005C5424003854240064140C007C
S11300D068542C0048543800004800008048000050
S11300E0102844002828280044281000045408003C
S11300F038445C00781478007C5428003844280084
S11301007C4438007C5444007C140400384474005B
S11301107C107C00447C440020403C007C106C003B
S11301207C4040007C187C0078103C003844380047
S11301307C1408003844B8007C1468004854240037
S1130140047C04007C407C003C603C007C307C00EF
S11301506C106C000C700C0064544C00007C440067
S11301600C106000447C00000804080080808000BB
S113017000040800304878007C48300030484800CB
S113018030487C00306850001078140090A8780043
S11301907C08700050744000808074007C106800FB
S11301A0447C4000781078007808700030483000B3
S11301B0F82810003048F80078100800505828003B
S11301C0083C4800384078003840380078207800EF
S11301D04830480098A07800486858001078840097
S11301E0007C0000847810000804080411241FBE59
S11301F0CFEFD4E0DEBFCDBF12E0A0E0B1E0E0EB92
S1130200FDE102C005900D92A038B107D9F722E0B4
S1130210A0E8B2E001C01D92AF38B207E1F70E9436
S11302204E060C94D60E0C9400008093001483EFB9
S113023091E00197F1F700C0000080910014089547
S11302400F931F93CF93DF931F92CDB7DEB70E9416
S11302503B080E94E8032FEF8FE791E02150804094
S11302609040E1F700C000C08EE00E94F003898353
S11302708981807E8038C9F003E211E088E091E052
S11302800E94B00A89811F928F931F930F930E943B
S11302909C0A8EE00E94F00389838981807E0F90FE
S11302A00F900F900F90803849F740E460EE8FE094
S11302B00E941E0441E061E08BE20E941E048EE075
S11302C00E94F00389838981807E8034B9F003E23F
S11302D011E088E091E00E94B00A8EE00E94F003F1
S11302E01F928F931F930F930E949C0A8981807E93
S11302F00F900F900F900F90803459F70F90DF916B
S1130300CF911F910F910895EF92FF920F931F9336
S1130310CF93DF937C01FC01C081D181BE0176952E
S11303206795769567957695679581E30E940204B3
S1130330AE01440F551F42955295507F5427407F7C
S11303405427552760EE82E30E941E04F701428180
S113035053814F7055276FE085E30E941E04F70117
S113036082819381181619069CF487010C5F1F4F34
S1130370C0E0D0E0F80161918F018C2F8A5C0E946B
S113038002042196F70122813381C217D30794F323
S11303900E941604DF91CF911F910F91FF90EF906F
S11303A00895AF92BF92CF92DF92EF92FF920F9394
S11303B01F93CF93DF93CDB7DEB72C970FB6F89486
S11303C0DEBF0FBECDBF6C018CE20E94F0038160E2
S11303D0813009F03FC08FE291E00E94B00A85E6C7
S11303E00E94F003A82E8823A1F08E010B5F1F4FFB
S11303F07801E80EF11C0F2EF6E6BF2EF02D8B2DA2
S11304000E94F003F80181938F01B394EE15FF0568
S1130410B1F740E061E08CE20E941E0481E60E9494
S1130420F003182F82E60E94F003212F30E0322FD0
S11304302227282B3A8329838A2D8F7090E09C836E
S11304408B838CE0FE013196D60101900D928A9542
S1130450E1F704C088E391E00E94B00AC6012C963B
S11304600FB6F894DEBF0FBECDBFDF91CF911F91C1
S11304700F91FF90EF90DF90CF90BF90AF900895D1
S11304800E94170764E081E00E949E078AE491E0DD
S11304900E94C4076CE183E00E949E0788E691E015
S11304A00E94C40764E187E00E949E078BE791E005
S11304B00E94C40708950E9417076EE280E00E941C
S11304C09E0781E991E00E94C40768E082E00E94EF
S11304D09E070E94E20764E182E00E949E078BE986
S11304E091E00E94C40764E183E00E949E078BEAC6
S11304F091E00E94C40764E184E00E949E078CEBB3
S113050091E00E94C40764E185E00E949E0787ECA5
S113051091E00E94C40760E387E00E949E0780ED9B
S113052091E00E94C40760E087E00E949E070E9459
S1130530F90708950E94170760E280E00E949E0771
S11305408BE991E00E94C4076AE383E00E940908F2
S113055060E087E00E949E070E94F90708950E94C8
S1130560170760E280E00E949E078BEA91E00E94F8
S1130570C4076DE183E00E94090867E583E00E94F7
S1130580090860E087E00E949E070E94F907089529
S11305900E9417076CE280E00E949E078CEB91E0BA
S11305A00E94C40764E182E00E949E0785EE91E008
S11305B00E94C40764E183E00E949E0783EF91E0F8
S11305C00E94C40764E184E00E949E0781E092E0F7
S11305D00E94C40760E087E00E949E070E94F9071A
S11305E008950E94170760E380E00E949E0787EC4D
S11305F091E00E94C40768E082E00E949E070E9486
S1130600E20764E182E00E949E078FE092E00E948C
S1130610C40764E183E00E949E078AE192E00E949D
S1130620C40760E087E00E949E070E94F9070895CE
S11306300E9417076CE280E00E949E078FE092E020
S11306400E94C40760E085E00E949E0780E292E079
S11306500E94C40760E087E00E949E070E94F90799
S113066008950F931F93CF93DF93CDB7DEB72897E9
S11306700FB6F894DEBF0FBECDBF85E00E94150112
S1130680182F84E00E941501082F612F70E080E08C
S113069090E00E94380920E030E04FE753E40E94E4
S11306A0D00820E030E048E453E40E94EE0920E062
S11306B030E048EC52E40E946708482F592F162F67
S11306C0862F972FA42FB52F89839A83AB83BC835E
S11306D0602F70E080E090E00E94380920E030E074
S11306E04FE753E40E94D00820E030E048E453E4AC
S11306F00E94EE0920E030E048EC52E40E946708D2
S1130700E62F462F572F682F792F4D835E836F83F3
S11307107887212F3A814B815C816E2F7E818F8176
S1130720988528960FB6F894DEBF0FBECDBFDF9133
S1130730CF911F910F910895CF92DF92EF92FF9284
S1130740CF93DF93EC01C880D980EA80FB8020E05E
S113075030E04EE852ECC701B6010E94CC08882371
S11307602CF120E030E04EE852E4C701B6010E94CB
S1130770EA091816F4F0CC80DD80EE80FF8020E0DA
S113078030E04EE852ECC701B6010E94CC08882341
S11307909CF020E030E04EE852E4C701B6010E942C
S11307A0EA09181664F481E592E00BC081E492E052
S11307B008C086E492E005C08CE492E002C084E5BF
S11307C092E0DF91CF91FF90EF90DF90CF9008956A
S11307D00E944D0880EC0E9443080E944F0808952F
S11307E0CF93C82F0E944D0883E00E9443088C2FAA
S11307F00E9443080E944808C82F0E944F088C2F6B
S1130800CF910895CF93DF93D82FC62F0E944D0820
S113081082E00E9443088D2F0E9443088C2F0E947F
S113082043080E944F08DF91CF9108950E944D081C
S113083081E80E9443080E944F0808951F93CF93B4
S1130840DF93182FD62FC42F0E944D0885E00E94F5
S11308504308812F0E9443088D2F0E9443088C2F48
S11308600E9443080E944F08DF91CF911F91089581
S11308701F920F920FB60F9211242F933F934F9311
S11308805F936F937F938F939F93AF93BF93EF93F4
S1130890FF9380918002909181028330910534F41A
S11308A00196909381028093800264C080918202B9
S11308B090918302009779F481E090E09093830211
S11308C08093820282E090E0909307018093060176
S11308D00E945B024FC081309105C9F580910601E9
S11308E0909107018230910549F48BE090E0909358
S11308F08302809382020E949A023CC08330910555
S113090049F48CE090E090938302809382020E94E9
S1130910AF0230C08430910549F48DE090E09093AB
S11309208302809382020E94C80224C0059711F5B5
S11309308EE090E0909383028093820282E090E0C4
S113094090930701809306010E94F10213C00E9751
S113095089F48091060190910701029759F48DE87A
S113096090E090938302809382028091840290E0CD
S11309700E941803FF91EF91BF91AF919F918F91C6
S11309807F916F915F914F913F912F910F900FBE87
S11309900F901F9018951F920F920FB60F9211246B
S11309A02F933F934F935F936F937F938F939F9373
S11309B0AF93BF93EF93FF93809182029091830250
S11309C08130910539F410928302109282020E94C0
S11309D0400226C09C012B5031092430310578F4A3
S11309E081E090E0909383028093820282E090E021
S11309F090930701809306010E945B0211C08D3819
S1130A00910571F48EE090E09093830280938202CA
S1130A1082E090E090930701809306010E94F10226
S1130A20FF91EF91BF91AF919F918F917F916F91C2
S1130A305F914F913F912F910F900FBE0F901F9098
S1130A401895CF93DF9380918202909183028D3821
S1130A50910539F5809184020E94110760E283E0D8
S1130A600E949E07C0E4D0E080E00E940E07219718
S1130A702097D1F760E283E00E949E078091840270
S1130A808695869571F0C0E0D0E08FEF0E940E0746
S1130A902196809184028695869590E0C817D9079F
S1130AA0A4F3DF91CF910895CF93DF93CDB7DEB751
S1130AB028970FB6F894DEBF0FBECDBF29833A83C3
S1130AC04B835C836D837E838F839887CE010196ED
S1130AD00E949C03209182023091830221303105CF
S1130AE009F068C022E08135920781F58091060102
S1130AF09091070183309105A4F068E00E949E075D
S1130B000E94EF078091060190910701019790934D
S1130B1007018093060168E00E949E070E94E20795
S1130B20B4C0029709F0B1C068E082E00E949E0759
S1130B300E94EF0785E090E09093070180930601FF
S1130B4068E00E949E070E94E2079FC08C54924076
S1130B5009F09BC0809106019091070185309105B1
S1130B60A4F468E00E949E070E94EF0780910601AA
S1130B70909107010196909307018093060168E024
S1130B800E949E070E94E20780C0059709F07DC07D
S1130B9068E085E00E949E070E94EF0782E090E0F3
S1130BA0909307018093060168E00E949E070E94CB
S1130BB0E2076BC02E30310509F067C022E08135B1
S1130BC0920789F580910601909107018330910580
S1130BD0A9F468E083E00E949E070E94EF078091D9
S1130BE006019091070101979093070180930601F4
S1130BF068E00E949E070E94E20747C0029709F03E
S1130C0044C068E082E00E949E070E94EF0783E0F0
S1130C1090E0909307018093060168E00E949E078C
S1130C200E94E20732C08C54924079F5809106010B
S1130C309091070182309105A9F468E082E00E9456
S1130C409E070E94EF07809106019091070101968B
S1130C50909307018093060168E00E949E070E941A
S1130C60E20713C0039789F468E083E00E949E07BB
S1130C700E94EF0782E090E09093070180930601C1
S1130C8068E00E949E070E94E20728960FB6F89437
S1130C90DEBF0FBECDBFDF91CF910895CF93DF9319
S1130CA0CDB7DEB7A1970FB6F894DEBF0FBECDBFA8
S1130CB08FE190E00E945D088CE592E00E94B00A0A
S1130CC02FE38DE093E0215080409040E1F700C095
S1130CD000000E9451080E9417070E9470070E949A
S1130CE020010E94400283EA90E09A83898381E094
S1130CF090E09C838B8389E98D83CE0101960E94C9
S1130D0084012FE38DE093E0215080409040E1F78F
S1130D1000C00000CE010D960E94D10189891F9266
S1130D208F9388898F938F858F938E858F938D85ED
S1130D308F9382E692E09F938F930E949C0A8BB7D5
S1130D40806C8BBF85B78F6085BF78940E94310318
S1130D50522E632E742E852E262E372E482E99A3BE
S1130D6086E00E941501982E8093840287E00E94F9
S1130D7015010FB6F894DEBF0FBECDBF0E9431033C
S1130D80298F3A8F4B8F5C8F6D8F7E8F8F8F98A3B7
S1130D90E22EF32E042F152FA62EB72EC82ED92EF1
S1130DA0652D762D872D982D0E94CC0881110CC0BD
S1130DB02A2D3B2D4C2D5D2D622D732D842D99A153
S1130DC00E94CC08882351F0298D3A8D4B8D5C8D7F
S1130DD06D8D7E8D8F8D98A10E94540586E00E94B2
S1130DE015018093840298120E9421059090840238
S1130DF087E00E94150186B39FEF20E782E09150BF
S1130E0020408040E1F700C000005E2C6F2C702E63
S1130E10812E2A2C3B2C4C2CD9A2B0CF80930012CB
S1130E200895E0E0F0E191E890838083089580EBF9
S1130E308093001080E890E0E0E0F2E110820197F6
S1130E400097E1F781EB8093001080E890E0E0E008
S1130E50F2E1108201970097E1F782EB8093001092
S1130E6080E890E0E0E0F2E1108201970097E1F77A
S1130E7083EB8093001080E890E0E0E0F2E11082E0
S1130E8001970097E1F784EB8093001080E890E0ED
S1130E90E0E0F2E1108201970097E1F785EB80939F
S1130EA0001080E890E0E0E0F2E110820197009702
S1130EB0E1F786EB8093001080E890E0E0E0F2E157
S1130EC0108201970097E1F787EB8093001080E888
S1130ED090E0E0E0F2E1108201970097E1F70895D5
S1130EE0E0E0F0E18EEA808381EA80838AED80830A
S1130EF082E1808388EC808388EA80838FE3808327
S1130F0085ED808380E8808381E8808380E5808329
S1130F1089ED808381E2808380E2808382E0808324
S1130F208BED808380E380838DEA8083108284EA62
S1130F30808386EA80838FEA808308958055E0E089
S1130F40F0E18083862F8F708083607762956F7065
S1130F50606160830895CF93DF93880F991F880F92
S1130F60991FDC01A051B04020E030E0C0E0D2E1A4
S1130F70ED91F0E0E491E8832F5F3F4F2430310599
S1130F80B9F7DF91CF9108950F931F93CF93DF9318
S1130F90FC018081882389F08F010F5F1F4FC0E01F
S1130FA0D0E090E00E94AB072196F80181918F0177
S1130FB0882319F0C032D105A1F7DF91CF911F9199
S1130FC00F910895E0E0F2E180E1808380838083E3
S1130FD080839CE7908398E3908380830895E0E086
S1130FE0F2E110821082108210821082108210822C
S1130FF00895E0E0F2E1108288EF80839CEF908313
S113100026EF20833FE33083208390838083108204
S113101008950F931F93CF93DF93182F062F0E94E9
S11310209E07C0E0D2E11882188280E1888394E9A7
S1131030988327ED28833FEF388328839883888318
S113104018821882602F81E0810F0E949E07188207
S113105092E0988383E0888323E228833FE3388304
S1131060888338832883888398831882DF91CF917B
S11310701F910F91089587B3806B87BBBE98C49A64
S113108081E58DB908958FB9779BFECF8FB108950F
S11310901FB8779BFECF8FB10895C4980895C49A62
S11310A0089585B7806885BF08955D9BFECF8CB990
S11310B008955F9BFECF8CB1089589B988E18AB900
S11310C069E578E085E598E00E94510A0895505852
S11310D0BB27AA270ED044C135D130F03AD120F035
S11310E031F49F3F11F41EF42AC10EF4E095E7FB9E
S11310F020C1E92F46D180F3BA176207730784072A
S1131100950718F071F49EF55EC10EF4E0950B2E70
S1131110BA2FA02D0B01B90190010C01CA01A00145
S11311201124FF27591B99F0593F50F4503E68F1A0
S11311301A16F040A22F232F342F4427585FF3CFE1
S1131140469537952795A795F0405395C9F77EF4B2
S11311501F16BA0B620B730B840BBAF09150A1F0FB
S1131160FF0FBB1F661F771F881FC2F70EC0BA0F81
S1131170621F731F841F48F4879577956795B79509
S1131180F7959E3F08F0B3CF9395880F08F0992701
S1131190EE0F979587950895A8D008F481E00895F7
S11311A00CD0DEC0D6D040F0CDD030F021F45F3F7B
S11311B019F0BFC0511108C1C2C0E3D098F39923FC
S11311C0C9F35523B1F3951B550BBB27AA27621707
S11311D07307840738F09F5F5F4F220F331F441F4C
S11311E0AA1FA9F333D00E2E3AF0E0E830D0915084
S11311F05040E695001CCAF729D0FE2F27D0660F71
S1131200771F881FBB1F261737074807AB07B0E8AF
S113121009F0BB0B802DBF01FF2793585F4F2AF0C5
S11312209E3F510568F085C0CFC05F3FECF3983E08
S1131230DCF3869577956795B795F7959F5FC9F722
S1131240880F911D9695879597F90895E1E0660FAB
S1131250771F881FBB1F621773078407BA0720F024
S1131260621B730B840BBA0BEE1F88F7E09508958D
S1131270E89409C097FB3EF490958095709561952C
S11312807F4F8F4F9F4F9923A9F0F92F96E9BB27E2
S11312909395F695879577956795B795F111F8CF5E
S11312A0FAF4BB0F11F460FF1BC06F5F7F4F8F4FC9
S11312B09F4F16C0882311F096E911C0772321F0BF
S11312C09EE8872F762F05C0662371F096E8862F57
S11312D070E060E02AF09A95660F771F881FDAF7AE
S11312E0880F9695879597F90895990F0008550FDB
S11312F0AA0BE0E8FEEF16161706E807F907C0F098
S113130012161306E407F50798F0621B730B840B9F
S1131310950B39F40A2661F0232B242B252B21F479
S113132008950A2609F4A140A6958FEF811D811D19
S1131330089597F99F6780E870E060E008959FEF53
S113134080EC089500240A94161617061806090658
S1131350089500240A941216130614060506089527
S1131360092E0394000C11F4882352F0BB0F40F4AF
S1131370BF2B11F460FF04C06F5F7F4F8F4F9F4FEF
S1131380089557FD9058440F551F59F05F3F71F071
S11313904795880F97FB991F61F09F3F79F08795D8
S11313A00895121613061406551FF2CF4695F1DF61
S11313B008C0161617061806991FF1CF86957105F1
S11313C0610508940895E894BB2766277727CB0125
S11313D097F908958ADF08F48FEF08950BD0C0CFF2
S11313E0B1DF28F0B6DF18F0952309F0A2CFA7CF1C
S11313F01124EACFC6DFA0F3959FD1F3950F50E0F7
S1131400551F629FF001729FBB27F00DB11D639FB2
S1131410AA27F00DB11DAA1F649F6627B00DA11D58
S1131420661F829F2227B00DA11D621F739FB00DFE
S1131430A11D621F839FA00D611D221F749F33276E
S1131440A00D611D231F849F600D211D822F762F07
S11314506A2F11249F5750408AF0E1F088234AF004
S1131460EE0FFF1FBB1F661F771F881F9150504050
S1131470A9F79E3F510570F05CCFA6CF5F3FECF318
S1131480983EDCF3869577956795B795F795E7953C
S11314909F5FC1F7FE2B880F911D9695879597F94D
S11314A008950F931F93CF93DF93EC018B01009763
S11314B031F46115710519F480E090E038C06EE0F4
S11314C070E081E090E00E94AF0CFC010097A1F372
S11314D080E883830115110571F01387028781E881
S11314E083838091850290918602892B21F4F09365
S11314F08602E09385022097C9F0D187C087838153
S1131500826083838091870290918802892B71F491
S1131510F0938802E09387028091890290918A0275
S1131520892B21F4F0938A02E0938902CF01DF91A1
S1131530CF911F910F910895A0E0B0E0E2EAFAE0A4
S11315400C94AF0EFE01359661917191AF018091BB
S11315508702909188020E94DD0AE2E00C94CB0E8F
S11315600F931F93CF93DF93E0918702F09188024A
S1131570238121FF1BC0EC0100E010E08991609100
S1131580870270918802DB011896ED91FC911997FE
S1131590882331F00995892B89F30FEF1FEFEECFE4
S11315A08AE00995892B11F4C80102C08FEF9FEFDF
S11315B0DF91CF911F910F910895ACE0B0E0E3EE7D
S11315C0FAE00C949F0E7C016B018A01FC011782E6
S11315D01682838181FFBDC1CE0101964C01F701C2
S11315E09381F60193FD859193FF81916F01882387
S11315F009F4ABC1853239F493FD859193FF819150
S11316006F01853229F4B70190E00E940F0EE7CFF5
S1131610512C312C20E02032A0F48B3269F030F4CC
S1131620803259F0833269F420612CC08D3239F054
S1131630803339F4216026C02260246023C02860EE
S113164021C027FD27C030ED380F3A3078F426FF4B
S113165006C0FAE05F9E300D1124532E13C08AE0B9
S1131660389E300D1124332E20620CC08E3221F4AA
S113167026FD6BC1206406C08C3611F4206802C0BC
S1131680883641F4F60193FD859193FF81916F01B2
S11316908111C1CF982F9F7D9554933028F40C5F0E
S11316A01F4FFFE3F9830DC0833631F0833771F0A8
S11316B0833509F05BC022C0F801808189830E5F05
S11316C01F4F44244394512C540115C03801F2E0B7
S11316D06F0E711CF801A080B18026FF03C0652D38
S11316E070E002C06FEF7FEFC5012C870E94040EEB
S11316F02C0183012C852F77222E17C03801F2E0AC
S11317006F0E711CF801A080B18026FF03C0652D07
S113171070E002C06FEF7FEFC5012C870E94F20DCD
S11317202C012C852068222E830123FC1BC0832DD1
S113173090E048165906B0F4B70180E290E00E94A8
S11317400F0E3A94F4CFF50127FC859127FE819181
S11317505F01B70190E00E940F0E31103A94F1E05E
S11317604F1A51084114510471F7E5C0843611F041
S1131770893639F5F80127FF07C0608171818281BC
S113178093810C5F1F4F08C060817181882777FDAA
S11317908095982F0E5F1F4F2F76B22E97FF09C0AA
S11317A090958095709561957F4F8F4F9F4F2068DE
S11317B0B22E2AE030E0A4010E94410EA82EA818FF
S11317C044C0853729F42F7EB22E2AE030E025C0AC
S11317D0F22FF97FBF2E8F36C1F018F4883579F0D7
S11317E0B4C0803719F0883721F0AFC02F2F2061A3
S11317F0B22EB4FE0DC08B2D8460B82E09C024FF18
S11318000AC09F2F9660B92E06C028E030E005C0BC
S113181020E130E002C020E132E0F801B7FE07C069
S113182060817181828193810C5F1F4F06C060814A
S1131830718180E090E00E5F1F4FA4010E94410E71
S1131840A82EA818FB2DFF77BF2EB6FE0BC02B2D9C
S11318502E7FA51450F4B4FE0AC0B2FC08C02B2D90
S11318602E7E05C07A2C2B2D03C07A2C01C0752C3A
S113187024FF0DC0FE01EA0DF11D8081803311F4B7
S1131880297E09C022FF06C07394739404C0822F7A
S1131890867809F0739423FD13C020FF06C05A2CE8
S11318A0731418F4530C5718732C731468F4B70199
S11318B080E290E02C870E940F0E73942C85F5CF64
S11318C0731410F4371801C0312C24FF12C0B7016F
S11318D080E390E02C870E940F0E2C8522FF17C016
S11318E021FF03C088E590E002C088E790E0B701DB
S11318F00CC0822F867859F021FD02C080E201C01D
S11319008BE227FD8DE2B70190E00E940F0EA51433
S113191038F4B70180E390E00E940F0E5A94F7CF99
S1131920AA94F401EA0DF11D8081B70190E00E94B0
S11319300F0EA110F5CF332009F451CEB70180E288
S113194090E00E940F0E3A94F6CFF70186819781BA
S113195002C08FEF9FEF2C96E2E10C94BB0E0F9325
S11319601F93CF93DF93869F8001879F100D969FCF
S1131970100D1124C8010E94CB0CEC01009729F032
S1131980A80160E070E00E94FD0DCE01DF91CF91CF
S11319901F910F910895CF93DF938230910510F436
S11319A082E090E0E0918D02F0918E0220E030E040
S11319B0A0E0B0E0309739F14081518148175907D0
S11319C0B8F04817590771F482819381109729F070
S11319D013969C938E9312972CC090938E028093AF
S11319E08D0227C02115310531F04217530718F035
S11319F0A901DB0101C0EF019A01BD01DF010280F1
S1131A00F381E02DD7CF21153105F9F0281B390BCF
S1131A102430310580F48A819B816115710521F0A0
S1131A20FB019383828304C090938E0280938D0282
S1131A30FE01329644C0FE01E20FF31F819391939D
S1131A4022503109398328833AC020918B02309186
S1131A508C02232B41F42091020130910301309335
S1131A608C0220938B0220910001309101012115F9
S1131A70310541F42DB73EB7409104015091050161
S1131A80241B350BE0918B02F0918C02E217F307D3
S1131A90A0F42E1B3F0B2817390778F0AC014E5FDA
S1131AA05F4F2417350748F04E0F5F1F50938C0289
S1131AB040938B028193919302C0E0E0F0E0CF0168
S1131AC0DF91CF910895CF93DF93009709F487C0F6
S1131AD0FC01329713821282C0918D02D0918E0242
S1131AE0209781F420813181280F391F80918B0246
S1131AF090918C028217930779F5F0938C02E0930E
S1131B008B026DC0DE0120E030E0AE17BF0750F459
S1131B1012964D915C9113979D014115510509F160
S1131B20DA01F3CFB383A28340815181840F951FDF
S1131B308A179B0771F48D919C911197840F951FBF
S1131B4002969183808312968D919C91139793832F
S1131B5082832115310529F4F0938E02E0938D02DE
S1131B603EC0D9011396FC93EE9312974D915D916B
S1131B70A40FB51FEA17FB0779F480819181840FC4
S1131B80951F0296D90111969C938E93828193811D
S1131B9013969C938E931297E0E0F0E08A819B81E8
S1131BA0009719F0FE01EC01F9CFCE0102962881CD
S1131BB03981820F931F20918B0230918C02281758
S1131BC0390769F4309729F410928E0210928D022D
S1131BD002C013821282D0938C02C0938B02DF91D5
S1131BE0CF910895FC010590615070400110D8F721
S1131BF0809590958E0F9F1F0895DC0101C06D9311
S1131C0041505040E0F70895FC016150704001904C
S1131C100110D8F7809590958E0F9F1F08950F930C
S1131C201F93CF93DF93182F092FEB018B8181FD35
S1131C3003C08FEF9FEF20C082FF10C04E815F81F1
S1131C402C813D81421753077CF4E881F9819F017F
S1131C502F5F3F4F39832883108306C0E885F985B9
S1131C60812F0995892B29F72E813F812F5F3F4FC3
S1131C703F832E83812F902FDF91CF911F910F915E
S1131C800895FA01AA27283051F1203181F1E8940E
S1131C906F936E7F6E5F7F4F8F4F9F4FAF4FB1E05B
S1131CA03ED0B4E03CD0670F781F891F9A1FA11D56
S1131CB0680F791F8A1F911DA11D6A0F711D811D57
S1131CC0911DA11D20D009F468943F912AE0269F1C
S1131CD011243019305D3193DEF6CF010895462F7B
S1131CE04770405D4193B3E00FD0C9F7F6CF462F5C
S1131CF04F70405D4A3318F0495D31FD40524193C5
S1131D0002D0A9F7EACFB4E0A69597958795779581
S1131D106795BA95C9F700976105710508959B0108
S1131D20AC010A2E06945795479537952795BA9591
S1131D30C9F7620F731F841F951FA01D08952F926A
S1131D403F924F925F926F927F928F929F92AF9247
S1131D50BF92CF92DF92EF92FF920F931F93CF9394
S1131D60DF93CDB7DEB7CA1BDB0B0FB6F894DEBF2B
S1131D700FBECDBF09942A88398848885F846E8451
S1131D807D848C849B84AA84B984C884DF80EE809B
S1131D90FD800C811B81AA81B981CE0FD11D0FB6A4
S1131DA0F894DEBF0FBECDBFED010895F894FFCFC8
S1131DB000008F02200002004572726F7220696E6B
S1131DC02043414E20636F6D6D756E696361746964
S1131DD06F6E004D6F64652069732025630A0042AD
S1131DE075666665722030004E6F7468696E672090
S1131DF0696E206275666665720057656C636F6D07
S1131E006520746F2074686520626573742070693E
S1131E106E6720706F6E670067616D6520696E2064
S1131E2074686520776F726C642100546F75636801
S1131E3020726967687420746F20737461727421EE
S1131E40004D61696E206D656E75004F6E652D7075
S1131E506C61796572206D6F64650054776F2D70C5
S1131E606C6179657273206D6F6465004869676899
S1131E7073636F7265730053657474696E6773007E
S1131E80546F75636820726967687420746F206585
S1131E906E74657200312E2036353020706F696E95
S1131EA0747300322E2034323220706F696E747372
S1131EB000332E2032303020706F696E747300420C
S1131EC072696768746E65737300536F756E64002E
S1131ED0557365206C65667420736C696465207441
S1131EE06F20736574206272696768746E657373BA
S1131EF0004C45465400524947485400444F574EFD
S1131F00005550004E45555452414C00526573657E
S1131F10740049443A2025642C206C656E6774680B
S1131F203A2025642C20646174613A2025640A00F7
S9030000FC
