:100000000C9438000C9455000C9455000C94550039
:100010000C9455000C9455000C9455000C9455000C
:100020000C9455000C9455000C9455000C945500FC
:100030000C9455000C9455000C9455000C945500EC
:100040000C9455000C9455000C9455000C945500DC
:100050000C9455000C9455000C9455000C945500CC
:100060000C9455000C9455000C9455000C945500BC
:1000700011241FBECFEFD4E0DEBFCDBF11E0A0E062
:10008000B1E0EEE7F4E002C005900D92AC30B107AC
:10009000D9F721E0ACE0B1E001C01D92A631B20772
:1000A000E1F70E9457000C943D020C9400008FE190
:1000B00090E00E94710086E091E00E94C6002FEF60
:1000C0008FEF9EE0215080409040E1F700C000009B
:1000D000F2CF5D9BFECF8CB908955F9BFECF8CB1B4
:1000E000089589B988E18AB96DE670E089E690E003
:1000F0000E947B0008950F931F93CF93DF93EC0131
:100100008B01009731F46115710519F480E090E0DE
:1001100038C06EE070E081E090E00E94F300FC01E6
:100120000097A1F380E883830115110571F013870F
:10013000028781E8838380910C0190910D01892BC6
:1001400021F4F0930D01E0930C012097C9F0D187C1
:10015000C08783818260838380910E0190910F011B
:10016000892B71F4F0930F01E0930E01809110013F
:1001700090911101892B21F4F0931101E09310016A
:10018000CF01DF91CF911F910F9108950F931F938E
:10019000CF93DF93E0910E01F0910F01238121FFB6
:1001A0001BC0EC0100E010E0899160910E0170919C
:1001B0000F01DB011896ED91FC911997882331F01E
:1001C0000995892B89F30FEF1FEFEECF8AE0099590
:1001D000892B11F4C80102C08FEF9FEFDF91CF91FF
:1001E0001F910F9108950F931F93CF93DF93869FD5
:1001F0008001879F100D969F100D1124C8010E9449
:100200000F01EC01009729F0A80160E070E00E9466
:100210003602CE01DF91CF911F910F910895CF93B8
:10022000DF938230910510F482E090E0E0911401B8
:10023000F091150120E030E0A0E0B0E0309739F116
:100240004081518148175907B8F04817590771F490
:1002500082819381109729F013969C938E93129725
:100260002CC0909315018093140127C021153105EE
:1002700031F04217530718F0A901DB0101C0EF016B
:100280009A01BD01DF010280F381E02DD7CF211556
:100290003105F9F0281B390B2430310580F48A81AF
:1002A0009B816115710521F0FB019383828304C05A
:1002B0009093150180931401FE01329644C0FE0113
:1002C000E20FF31F819391932250310939832883E0
:1002D0003AC02091120130911301232B41F4209157
:1002E00002013091030130931301209312012091F8
:1002F0000001309101012115310541F42DB73EB7C0
:100300004091040150910501241B350BE09112012D
:10031000F0911301E217F307A0F42E1B3F0B2817EF
:10032000390778F0AC014E5F5F4F2417350748F06E
:100330004E0F5F1F509313014093120181939193CD
:1003400002C0E0E0F0E0CF01DF91CF910895CF93BC
:10035000DF93009709F487C0FC0132971382128261
:10036000C0911401D0911501209781F42081318131
:10037000280F391F80911201909113018217930762
:1003800079F5F0931301E09312016DC0DE0120E0D6
:1003900030E0AE17BF0750F412964D915C91139761
:1003A0009D014115510509F1DA01F3CFB383A28311
:1003B00040815181840F951F8A179B0771F48D919D
:1003C0009C911197840F951F0296918380831296BA
:1003D0008D919C911397938382832115310529F484
:1003E000F0931501E09314013EC0D9011396FC93DC
:1003F000EE9312974D915D91A40FB51FEA17FB077D
:1004000079F480819181840F951F0296D90111960C
:100410009C938E938281938113969C938E931297D3
:10042000E0E0F0E08A819B81009719F0FE01EC0189
:10043000F9CFCE01029628813981820F931F209136
:100440001201309113012817390769F4309729F404
:10045000109215011092140102C013821282D093DF
:100460001301C0931201DF91CF910895DC0101C007
:0E0470006D9341505040E0F70895F894FFCF8F
:0C047E000000160120005465737400009B
:00000001FF
