:100000000C9438000C9455000C9455000C94550039
:100010000C9455000C9455000C9455000C9455000C
:100020000C9455000C9455000C9455000C945500FC
:100030000C9455000C9455000C9455000C945500EC
:100040000C9455000C9455000C9455000C945500DC
:100050000C9455000C9455000C9455000C945500CC
:100060000C9455000C9455000C9455000C945500BC
:1000700011241FBECFEFD4E0DEBFCDBF11E0A0E062
:10008000B1E0ECE4F0E102C005900D92A439B107B3
:10009000D9F721E0A4E9B1E001C01D92AE39B20761
:1000A000E1F70E9419010C9424080C94000080933D
:1000B000001483EF91E00197F1F700C000008091F8
:1000C000001408950F931F93CF93DF93CDB7DEB73E
:1000D00028970FB6F894DEBF0FBECDBF85E00E9413
:1000E0005700182F84E00E945700082F612F70E0FE
:1000F00080E090E00E94860220E030E04FE753E489
:100100000E941E0220E030E048E453E40E943C03D9
:1001100020E030E048EC52E40E94B501482F592F0E
:10012000162F862F972FA42FB52F89839A83AB8301
:10013000BC83602F70E080E090E00E94860220E0A7
:1001400030E04FE753E40E941E0220E030E048E434
:1001500053E40E943C0320E030E048EC52E40E946B
:10016000B501E62F462F572F682F792F4D835E83D9
:100170006F837887212F3A814B815C816E2F7E813E
:100180008F81988528960FB6F894DEBF0FBECDBF3D
:10019000DF91CF911F910F910895CF92DF92EF924F
:1001A000FF92CF93DF93EC01C880D980EA80FB8077
:1001B00020E030E04EE852ECC701B6010E941A027E
:1001C00088232CF120E030E04EE852E4C701B6016C
:1001D0000E9438031816F4F0CC80DD80EE80FF809A
:1001E00020E030E04EE852ECC701B6010E941A024E
:1001F00088239CF020E030E04EE852E4C701B601CD
:100200000E943803181664F486E191E00BC086E082
:1002100091E008C08BE091E005C081E191E002C06F
:1002200089E191E0DF91CF91FF90EF90DF90CF9047
:100230000895CF93DF93CDB7DEB728970FB6F89424
:10024000DEBF0FBECDBF8FE190E00E94AB0181E227
:1002500091E00E94FE032FE38DE093E02150804067
:100260009040E1F700C000000E949F0188B38760C2
:1002700088BB0F2EF7E2CF2EF1E0DF2EF02D0F2EF0
:10028000F7E4EF2EF1E0FF2EF02DAA24A39407E669
:1002900011E00E94620029833A834B835C836D8363
:1002A0007E838F839887CE0101960E94CD0028859A
:1002B0002F932F812F932E812F932D812F932C817C
:1002C0002F932B812F932A812F9329812F939F93F3
:1002D0008F93DF92CF920E94EA0386E00E9457003C
:1002E000B82E87E00E9457001F928F931F92BF92F3
:1002F000FF92EF920E94EA0326B396B386B3269547
:1003000021701F922F939A2591701F929F9382FBC9
:10031000882780F91F928F931F930F930E94EA03FF
:100320002FEB87E299E0215080409040E1F700C038
:1003300000000FB6F894DEBF0FBECDBFAACF85B7C1
:10034000806885BF08955D9BFECF8CB908955F9B43
:10035000FECF8CB1089589B988E18AB967EA71E066
:1003600083EA91E00E949F0308955058BB27AA2773
:100370000ED044C135D130F03AD120F031F49F3F56
:1003800011F41EF42AC10EF4E095E7FB20C1E92F19
:1003900046D180F3BA17620773078407950718F0F0
:1003A00071F49EF55EC10EF4E0950B2EBA2FA02DD0
:1003B0000B01B90190010C01CA01A0011124FF2712
:1003C000591B99F0593F50F4503E68F11A16F0400D
:1003D000A22F232F342F4427585FF3CF469537950C
:1003E0002795A795F0405395C9F77EF41F16BA0BD1
:1003F000620B730B840BBAF09150A1F0FF0FBB1F7F
:10040000661F771F881FC2F70EC0BA0F621F731FC7
:10041000841F48F4879577956795B795F7959E3F24
:1004200008F0B3CF9395880F08F09927EE0F9795B2
:1004300087950895A8D008F481E008950CD0DEC017
:10044000D6D040F0CDD030F021F45F3F19F0BFC0DE
:10045000511108C1C2C0E3D098F39923C9F35523C1
:10046000B1F3951B550BBB27AA27621773078407A7
:1004700038F09F5F5F4F220F331F441FAA1FA9F35D
:1004800033D00E2E3AF0E0E830D091505040E6954F
:10049000001CCAF729D0FE2F27D0660F771F881FB0
:1004A000BB1F261737074807AB07B0E809F0BB0B9F
:1004B000802DBF01FF2793585F4F2AF09E3F5105C3
:1004C00068F085C0CFC05F3FECF3983EDCF38695C3
:1004D00077956795B795F7959F5FC9F7880F911D39
:1004E0009695879597F90895E1E0660F771F881F25
:1004F000BB1F621773078407BA0720F0621B730BD8
:10050000840BBA0BEE1F88F7E0950895E89409C0B4
:1005100097FB3EF490958095709561957F4F8F4F36
:100520009F4F9923A9F0F92F96E9BB279395F6954C
:10053000879577956795B795F111F8CFFAF4BB0FCA
:1005400011F460FF1BC06F5F7F4F8F4F9F4F16C02E
:10055000882311F096E911C0772321F09EE8872FB8
:10056000762F05C0662371F096E8862F70E060E074
:100570002AF09A95660F771F881FDAF7880F9695ED
:10058000879597F90895990F0008550FAA0BE0E891
:10059000FEEF16161706E807F907C0F01216130645
:1005A000E407F50798F0621B730B840B950B39F485
:1005B0000A2661F0232B242B252B21F408950A26EB
:1005C00009F4A140A6958FEF811D811D089597F92B
:1005D0009F6780E870E060E008959FEF80EC0895E9
:1005E00000240A9416161706180609060895002412
:1005F0000A9412161306140605060895092E03948C
:10060000000C11F4882352F0BB0F40F4BF2B11F4FF
:1006100060FF04C06F5F7F4F8F4F9F4F089557FD5E
:100620009058440F551F59F05F3F71F04795880F60
:1006300097FB991F61F09F3F79F0879508951216F7
:1006400013061406551FF2CF4695F1DF08C01616A3
:1006500017061806991FF1CF869571056105089454
:100660000895E894BB2766277727CB0197F908956B
:100670008ADF08F48FEF08950BD0C0CFB1DF28F0E8
:10068000B6DF18F0952309F0A2CFA7CF1124EACF47
:10069000C6DFA0F3959FD1F3950F50E0551F629FE1
:1006A000F001729FBB27F00DB11D639FAA27F00DCB
:1006B000B11DAA1F649F6627B00DA11D661F829FF2
:1006C0002227B00DA11D621F739FB00DA11D621FD7
:1006D000839FA00D611D221F749F3327A00D611DF4
:1006E000231F849F600D211D822F762F6A2F1124D6
:1006F0009F5750408AF0E1F088234AF0EE0FFF1F29
:10070000BB1F661F771F881F91505040A9F79E3F5F
:10071000510570F05CCFA6CF5F3FECF3983EDCF361
:10072000869577956795B795F795E7959F5FC1F79C
:10073000FE2B880F911D9695879597F908950F9335
:100740001F93CF93DF93EC018B01009731F4611578
:10075000710519F480E090E038C06EE070E081E04F
:1007600090E00E94FD05FC010097A1F380E88383DF
:100770000115110571F01387028781E88383809149
:10078000940190919501892B21F4F0939501E093C8
:1007900094012097C9F0D187C087838182608383C9
:1007A0008091960190919701892B71F4F0939701B4
:1007B000E09396018091980190919901892B21F401
:1007C000F0939901E0939801CF01DF91CF911F91B0
:1007D0000F910895A0E0B0E0E0EFF3E00C94FD0786
:1007E000FE01359661917191AF01809196019091D2
:1007F00097010E942B04E2E00C9419080F931F93B9
:10080000CF93DF93E0919601F0919701238121FF2F
:100810001BC0EC0100E010E089916091960170919D
:100820009701DB011896ED91FC911997882331F01F
:100830000995892B89F30FEF1FEFEECF8AE0099519
:10084000892B11F4C80102C08FEF9FEFDF91CF9188
:100850001F910F910895ACE0B0E0E1E3F4E00C9457
:10086000ED077C016B018A01FC01178216828381EE
:1008700081FFBDC1CE0101964C01F7019381F601C4
:1008800093FD859193FF81916F01882309F4ABC19A
:10089000853239F493FD859193FF81916F01853203
:1008A00029F4B70190E00E945D07E7CF512C312C6D
:1008B00020E02032A0F48B3269F030F4803259F01D
:1008C000833269F420612CC08D3239F0803339F4E1
:1008D000216026C02260246023C0286021C027FD3B
:1008E00027C030ED380F3A3078F426FF06C0FAE022
:1008F0005F9E300D1124532E13C08AE0389E300DB8
:100900001124332E20620CC08E3221F426FD6BC1DF
:10091000206406C08C3611F4206802C0883641F489
:10092000F60193FD859193FF81916F018111C1CFF4
:10093000982F9F7D9554933028F40C5F1F4FFFE351
:10094000F9830DC0833631F0833771F0833509F0B8
:100950005BC022C0F801808189830E5F1F4F442451
:100960004394512C540115C03801F2E06F0E711CF4
:10097000F801A080B18026FF03C0652D70E002C0A1
:100980006FEF7FEFC5012C870E9452072C01830176
:100990002C852F77222E17C03801F2E06F0E711CC4
:1009A000F801A080B18026FF03C0652D70E002C071
:1009B0006FEF7FEFC5012C870E9440072C012C852B
:1009C0002068222E830123FC1BC0832D90E0481653
:1009D0005906B0F4B70180E290E00E945D073A94B6
:1009E000F4CFF50127FC859127FE81915F01B701C6
:1009F00090E00E945D0731103A94F1E04F1A5108DF
:100A00004114510471F7E5C0843611F0893639F587
:100A1000F80127FF07C060817181828193810C5F9B
:100A20001F4F08C060817181882777FD8095982FBE
:100A30000E5F1F4F2F76B22E97FF09C090958095BD
:100A4000709561957F4F8F4F9F4F2068B22E2AE09F
:100A500030E0A4010E948F07A82EA81844C0853753
:100A600029F42F7EB22E2AE030E025C0F22FF97F44
:100A7000BF2E8F36C1F018F4883579F0B4C08037B6
:100A800019F0883721F0AFC02F2F2061B22EB4FEAD
:100A90000DC08B2D8460B82E09C024FF0AC09F2F83
:100AA0009660B92E06C028E030E005C020E130E0B5
:100AB00002C020E132E0F801B7FE07C06081718119
:100AC000828193810C5F1F4F06C06081718180E03D
:100AD00090E00E5F1F4FA4010E948F07A82EA81858
:100AE000FB2DFF77BF2EB6FE0BC02B2D2E7FA5143E
:100AF00050F4B4FE0AC0B2FC08C02B2D2E7E05C0F7
:100B00007A2C2B2D03C07A2C01C0752C24FF0DC02C
:100B1000FE01EA0DF11D8081803311F4297E09C0A8
:100B200022FF06C07394739404C0822F867809F064
:100B3000739423FD13C020FF06C05A2C731418F4BD
:100B4000530C5718732C731468F4B70180E290E0CB
:100B50002C870E945D0773942C85F5CF731410F4D5
:100B6000371801C0312C24FF12C0B70180E390E098
:100B70002C870E945D072C8522FF17C021FF03C030
:100B800088E590E002C088E790E0B7010CC0822FB2
:100B9000867859F021FD02C080E201C08BE227FD7A
:100BA0008DE2B70190E00E945D07A51438F4B7010B
:100BB00080E390E00E945D075A94F7CFAA94F40175
:100BC000EA0DF11D8081B70190E00E945D07A11040
:100BD000F5CF332009F451CEB70180E290E00E94B6
:100BE0005D073A94F6CFF7018681978102C08FEFB7
:100BF0009FEF2C96E2E10C9409080F931F93CF937B
:100C0000DF93869F8001879F100D969F100D112402
:100C1000C8010E941906EC01009729F0A80160E0C4
:100C200070E00E944B07CE01DF91CF911F910F9191
:100C30000895CF93DF938230910510F482E090E025
:100C4000E0919C01F0919D0120E030E0A0E0B0E057
:100C5000309739F14081518148175907B8F048174A
:100C6000590771F482819381109729F013969C9310
:100C70008E9312972CC090939D0180939C0127C066
:100C80002115310531F04217530718F0A901DB0196
:100C900001C0EF019A01BD01DF010280F381E02D67
:100CA000D7CF21153105F9F0281B390B2430310538
:100CB00080F48A819B816115710521F0FB0193838A
:100CC000828304C090939D0180939C01FE01329623
:100CD00044C0FE01E20FF31F81939193225031092A
:100CE000398328833AC020919A0130919B01232BAC
:100CF00041F4209102013091030130939B01209334
:100D00009A0120910001309101012115310541F432
:100D10002DB73EB74091040150910501241B350BBE
:100D2000E0919A01F0919B01E217F307A0F42E1BCA
:100D30003F0B2817390778F0AC014E5F5F4F24173F
:100D4000350748F04E0F5F1F50939B0140939A0167
:100D50008193919302C0E0E0F0E0CF01DF91CF9169
:100D60000895CF93DF93009709F487C0FC01329771
:100D700013821282C0919C01D0919D01209781F431
:100D800020813181280F391F80919A0190919B0118
:100D90008217930779F5F0939B01E0939A016DC058
:100DA000DE0120E030E0AE17BF0750F412964D91FF
:100DB0005C9113979D014115510509F1DA01F3CFBB
:100DC000B383A28340815181840F951F8A179B07AB
:100DD00071F48D919C911197840F951F02969183C8
:100DE000808312968D919C91139793838283211512
:100DF000310529F4F0939D01E0939C013EC0D90197
:100E00001396FC93EE9312974D915D91A40FB51F2D
:100E1000EA17FB0779F480819181840F951F029670
:100E2000D90111969C938E938281938113969C9302
:100E30008E931297E0E0F0E08A819B81009719F091
:100E4000FE01EC01F9CFCE01029628813981820F93
:100E5000931F20919A0130919B012817390769F45B
:100E6000309729F410929D0110929C0102C01382C8
:100E70001282D0939B01C0939A01DF91CF91089584
:100E8000FC010590615070400110D8F78095909555
:100E90008E0F9F1F0895DC0101C06D93415050409B
:100EA000E0F70895FC016150704001900110D8F7FF
:100EB000809590958E0F9F1F08950F931F93CF934A
:100EC000DF93182F092FEB018B8181FD03C08FEF7A
:100ED0009FEF20C082FF10C04E815F812C813D8139
:100EE000421753077CF4E881F9819F012F5F3F4F40
:100EF00039832883108306C0E885F985812F0995F9
:100F0000892B29F72E813F812F5F3F4F3F832E830F
:100F1000812F902FDF91CF911F910F910895FA01AA
:100F2000AA27283051F1203181F1E8946F936E7F28
:100F30006E5F7F4F8F4F9F4FAF4FB1E03ED0B4E019
:100F40003CD0670F781F891F9A1FA11D680F791F5A
:100F50008A1F911DA11D6A0F711D811D911DA11D6B
:100F600020D009F468943F912AE0269F112430197B
:100F7000305D3193DEF6CF010895462F4770405D16
:100F80004193B3E00FD0C9F7F6CF462F4F70405DC5
:100F90004A3318F0495D31FD4052419302D0A9F720
:100FA000EACFB4E0A6959795879577956795BA951A
:100FB000C9F700976105710508959B01AC010A2EE0
:100FC00006945795479537952795BA95C9F7620FB7
:100FD000731F841F951FA01D08952F923F924F925B
:100FE0005F926F927F928F929F92AF92BF92CF92B9
:100FF000DF92EF92FF920F931F93CF93DF93CDB7C2
:10100000DEB7CA1BDB0B0FB6F894DEBF0FBECDBF39
:1010100009942A88398848885F846E847D848C840A
:101020009B84AA84B984C884DF80EE80FD800C8113
:101030001B81AA81B981CE0FD11D0FB6F894DEBFF6
:0C1040000FBECDBFED010895F894FFCF66
:10104C0000009E0120004C4546540052494748542C
:10105C0000444F574E005550004E45555452414C8C
:10106C00005265736574004A6F79737469636B2001
:10107C0069732025733A20782025332E662C20792D
:10108C002025332E660A00536C69646572732061E7
:10109C0072653A206C6566742025642C2072696731
:1010AC0068742025640A00427574746F6E73206135
:1010BC0072653A206C6566742025752C206A6F79F0
:1010CC00737469636B2025752C20726967687420B2
:0410DC0025750A006C
:00000001FF
