:100000000C9438000C947A020C940D030C94550057
:100010000C9455000C9455000C9455000C9455000C
:100020000C9455000C9455000C9455000C945500FC
:100030000C9455000C9455000C9455000C945500EC
:100040000C9455000C9455000C9455000C945500DC
:100050000C9455000C9455000C9455000C945500CC
:100060000C9455000C9455000C9455000C945500BC
:1000700011241FBECFEFD4E0DEBFCDBF13E0A0E060
:10008000B1E0E4EEF9E102C005900D92AC3EB1079B
:10009000D9F723E0ACEEB3E001C01D92AB3FB2074D
:1000A000E1F70E9495040C94F00C0C9400008093EE
:1000B000001483EF91E00197F1F700C000008091F8
:1000C00000140895CF93DF931F92CDB7DEB70E943F
:1000D00023028EE00E942B02898340E460EE8FE0D1
:1000E0000E943D0243E063E08BE20E943D020F90DC
:1000F000DF91CF9108950E94350564E081E00E9470
:10010000BC0584E892E00E94E0056CE183E00E9477
:10011000BC0582EA92E00E94E00564E187E00E946B
:10012000BC0585EB92E00E94E00508950E9435052C
:100130006EE280E00E94BC058BEC92E00E94E0053C
:1001400068E082E00E94BC050E94FE0564E182E056
:100150000E94BC0585ED92E00E94E00564E183E029
:100160000E94BC0585EE92E00E94E00564E184E017
:100170000E94BC0586EF92E00E94E00564E185E004
:100180000E94BC0581E093E00E94E00560E387E007
:100190000E94BC058AE093E00E94E00560E087E0F1
:1001A0000E94BC050E94150608950E94350560E274
:1001B00080E00E94BC0585ED92E00E94E0056AE3C4
:1001C00083E00E94250660E087E00E94BC050E9453
:1001D000150608950E94350560E280E00E94BC0586
:1001E00085EE92E00E94E0056DE183E00E94250625
:1001F00067E583E00E94250660E087E00E94BC0579
:100200000E94150608950E9435056CE280E00E9468
:10021000BC0586EF92E00E94E00564E182E00E9466
:10022000BC058FE193E00E94E00564E183E00E9459
:10023000BC058DE293E00E94E00564E184E00E9449
:10024000BC058BE393E00E94E00560E087E00E943C
:10025000BC050E94150608950E94350560E380E004
:100260000E94BC0581E093E00E94E00568E082E026
:100270000E94BC050E94FE0564E182E00E94BC056C
:1002800089E493E00E94E00564E183E00E94BC05FC
:1002900084E593E00E94E00560E087E00E94BC05F1
:1002A0000E94150608950E9435056CE280E00E94C8
:1002B000BC0589E493E00E94E00560E085E00E94CF
:1002C000BC058AE593E00E94E00560E087E00E94BB
:1002D000BC050E94150608950F931F93CF93DF93DB
:1002E000CDB7DEB728970FB6F894DEBF0FBECDBFEF
:1002F00085E00E945700182F84E00E945700082FC5
:10030000612F70E080E090E00E94520720E030E032
:100310004FE753E40E94EA0620E030E048E453E46B
:100320000E94080820E030E048EC52E40E94810678
:10033000482F592F162F862F972FA42FB52F89833B
:100340009A83AB83BC83602F70E080E090E00E94D2
:10035000520720E030E04FE753E40E94EA0620E035
:1003600030E048E453E40E94080820E030E048EC24
:1003700052E40E948106E62F462F572F682F792FCF
:100380004D835E836F837887212F3A814B815C8117
:100390006E2F7E818F81988528960FB6F894DEBFE8
:1003A0000FBECDBFDF91CF911F910F910895CF92D6
:1003B000DF92EF92FF92CF93DF93EC01C880D98058
:1003C000EA80FB8020E030E04EE852ECC701B60145
:1003D0000E94E60688232CF120E030E04EE852E44B
:1003E000C701B6010E9404081816F4F0CC80DD8025
:1003F000EE80FF8020E030E04EE852ECC701B6010D
:100400000E94E60688239CF020E030E04EE852E4AB
:10041000C701B6010E940408181664F48BE893E043
:100420000BC08BE793E008C080E893E005C086E846
:1004300093E002C08EE893E0DF91CF91FF90EF90C0
:10044000DF90CF9008950E94670680EC0E945E06C0
:100450000E9469060895CF93C82F0E94670683E023
:100460000E945E068C2F0E945E060E946206C82FC4
:100470000E9469068C2FCF9108951F93CF93DF932D
:10048000182FD62FC42F0E94670685E00E945E06B3
:10049000812F0E945E068D2F0E945E068C2F0E9487
:1004A0005E060E946906DF91CF911F9108950E9418
:1004B00057068EE00E942B021F928F9386E993E0ED
:1004C0009F938F930E94B6080E9423028EE00E94A1
:1004D0002B021F928F9384EB93E09F938F930E9444
:1004E000B6088DB79EB708960FB6F8949EBF0FBE9C
:1004F0008DBF08951F920F920FB60F9211242F9364
:100500003F934F935F936F937F938F939F93AF939B
:10051000BF93EF93FF938091EC039091ED038330B1
:10052000910534F401969093ED038093EC0364C03D
:100530008091EE039091EF03009779F481E090E0D1
:100540009093EF038093EE0382E090E09093070195
:10055000809306010E9496004FC081309105C9F535
:1005600080910601909107018230910549F48BE05A
:1005700090E09093EF038093EE030E94D5003CC07F
:100580008330910549F48CE090E09093EF038093E1
:10059000EE030E94EA0030C08430910549F48DE0FA
:1005A00090E09093EF038093EE030E94030124C038
:1005B000059711F58EE090E09093EF038093EE03A2
:1005C00082E090E090930701809306010E942C0145
:1005D00013C00E9789F4809106019091070102974C
:1005E00059F48DE890E09093EF038093EE038091AF
:1005F000F00390E00E945301FF91EF91BF91AF9102
:100600009F918F917F916F915F914F913F912F912A
:100610000F900FBE0F901F9018951F920F920FB65C
:100620000F9211242F933F934F935F936F937F9378
:100630008F939F93AF93BF93EF93FF938091EE03BC
:100640009091EF038130910539F41092EF031092ED
:10065000EE030E947B0026C09C012B503109243000
:10066000310578F481E090E09093EF038093EE03FE
:1006700082E090E090930701809306010E9496002B
:1006800011C08D38910571F48EE090E09093EF03E6
:100690008093EE0382E090E090930701809306013F
:1006A0000E942C01FF91EF91BF91AF919F918F918B
:1006B0007F916F915F914F913F912F910F900FBE5E
:1006C0000F901F90189586EC93E00E94CA08089539
:1006D000CF93DF938091EE039091EF038D389105D6
:1006E00039F58091F0030E942F0560E283E00E94BB
:1006F000BC05C0E4D0E080E00E942C052197209743
:10070000D1F760E283E00E94BC058091F0038695FA
:10071000869571F0C0E0D0E08FEF0E942C05219605
:100720008091F0038695869590E0C817D907A4F3C9
:10073000DF91CF910895CF93DF93CDB7DEB72897A0
:100740000FB6F894DEBF0FBECDBF29833A834B832B
:100750005C836D837E838F839887CE0101960E9490
:10076000D7012091EE033091EF032130310509F0DC
:1007700068C023E08B38920781F580910601909143
:10078000070183309105A4F068E00E94BC050E9437
:100790000B06809106019091070101979093070144
:1007A0008093060168E00E94BC050E94FE05B4C06B
:1007B000029709F0B1C068E082E00E94BC050E9487
:1007C0000B0685E090E0909307018093060168E0B6
:1007D0000E94BC050E94FE059FC08658934009F008
:1007E0009BC0809106019091070185309105A4F48A
:1007F00068E00E94BC050E940B0680910601909162
:1008000007010196909307018093060168E00E941A
:10081000BC050E94FE0580C0059709F07DC068E018
:1008200085E00E94BC050E940B0682E090E0909358
:1008300007018093060168E00E94BC050E94FE0546
:100840006BC02E30310509F067C023E08B3892076A
:1008500089F5809106019091070183309105A9F4F3
:1008600068E083E00E94BC050E940B0680910601AF
:10087000909107010197909307018093060168E02A
:100880000E94BC050E94FE0547C0029709F044C0C3
:1008900068E082E00E94BC050E940B0683E090E0C5
:1008A000909307018093060168E00E94BC050E94B6
:1008B000FE0532C08658934079F5809106019091EB
:1008C000070182309105A9F468E082E00E94BC052E
:1008D0000E940B068091060190910701019690936A
:1008E00007018093060168E00E94BC050E94FE0596
:1008F00013C0039789F468E083E00E94BC050E945E
:100900000B0682E090E0909307018093060168E077
:100910000E94BC050E94FE0528960FB6F894DEBF23
:100920000FBECDBFDF91CF910895CF93DF93CDB7A9
:10093000DEB729970FB6F894DEBF0FBECDBF8FE1AB
:1009400090E00E94770686EE93E00E94CA082FE3AB
:100950008DE093E0215080409040E1F700C000001E
:100960000E946B060E9435050E948E050E94570268
:100970000E946200C09A0E947B008BB7806C8BBF84
:100980008FB780688FBF85B78F6085BF78940E94CE
:100990006C01522E632E742E852E262E372E482E55
:1009A000998786E00E945700982E8093F00387E095
:1009B0000E9457000E946C0129833A834B835C8319
:1009C0006D837E838F839887E22EF32E042F152F5D
:1009D000A62EB72EC82ED92E652D762D872D982DB3
:1009E0000E94E60681110CC02A2D3B2D4C2D5D2D59
:1009F000622D732D842D99850E94E606882351F07F
:100A000029813A814B815C816D817E818F819885BE
:100A10000E949B0386E00E9457008093F003981287
:100A20000E9468039090F00387E00E945700B09BFB
:100A30000E9463038FEF90E722E0815090402040B6
:100A4000E1F700C000005E2C6F2C702E812E2A2C46
:100A50003B2C4C2CD986AECF809300120895E0E059
:100A6000F0E191E890838083089580EB80930010FB
:100A700080E890E0E0E0F2E1108201970097E1F772
:100A800081EB8093001080E890E0E0E0F2E11082DA
:100A900001970097E1F782EB8093001080E890E0E7
:100AA000E0E0F2E1108201970097E1F783EB809399
:100AB000001080E890E0E0E0F2E1108201970097FA
:100AC000E1F784EB8093001080E890E0E0E0F2E151
:100AD000108201970097E1F785EB8093001080E882
:100AE00090E0E0E0F2E1108201970097E1F786EBF9
:100AF0008093001080E890E0E0E0F2E1108201973E
:100B00000097E1F787EB8093001080E890E0E0E049
:100B1000F2E1108201970097E1F70895E0E0F0E13B
:100B20008EEA808381EA80838AED808382E18083FC
:100B300088EC808388EA80838FE3808385ED8083DF
:100B400080E8808381E8808380E5808389ED8083ED
:100B500081E2808380E2808382E080838BED8083EA
:100B600080E380838DEA8083108284EA808386EA32
:100B700080838FEA808308958055E0E0F0E18083F0
:100B8000862F8F708083607762956F70606160835D
:100B90000895880F991F880F991FDC01A857BF4F30
:100BA0008C91E0E0F2E1808311968C911197808323
:100BB00012968C911297808313968C91808308955E
:100BC0000F931F93CF93DF93FC018081882389F0DB
:100BD0008F010F5F1F4FC0E0D0E090E00E94C90579
:100BE0002196F80181918F01882319F0C032D10537
:100BF000A1F7DF91CF911F910F910895E0E0F2E10D
:100C000080E180838083808380839CE7908398E366
:100C1000908380830895E0E0F2E1108210821082D8
:100C200010821082108210820895E0E0F2E11082BA
:100C300088EF80839CEF908326EF20833FE330830F
:100C4000208390838083108208950F931F93CF9306
:100C5000DF93182F062F0E94BC05C0E0D2E1188256
:100C6000188280E1888394E9988327ED28833FEFF9
:100C7000388328839883888318821882602F81E0C4
:100C8000810F0E94BC05188292E0988383E08883DC
:100C900023E228833FE3388388833883288388834B
:100CA00098831882DF91CF911F910F91089587B398
:100CB000806B87BBC49A81E58DB908958FB9779B06
:100CC000FECF08951FB8779BFECF8FB10895C498CB
:100CD0000895C49A089585B7806885BF08955D9B7F
:100CE000FECF8CB908955F9BFECF8CB1089589B972
:100CF00088E18AB963E776E08FE696E00E946B08A8
:100D000008955058BB27AA270ED044C135D130F0E2
:100D10003AD120F031F49F3F11F41EF42AC10EF4B1
:100D2000E095E7FB20C1E92F46D180F3BA176207AF
:100D300073078407950718F071F49EF55EC10EF4F1
:100D4000E0950B2EBA2FA02D0B01B90190010C01DB
:100D5000CA01A0011124FF27591B99F0593F50F4F3
:100D6000503E68F11A16F040A22F232F342F44274B
:100D7000585FF3CF469537952795A795F040539543
:100D8000C9F77EF41F16BA0B620B730B840BBAF013
:100D90009150A1F0FF0FBB1F661F771F881FC2F77E
:100DA0000EC0BA0F621F731F841F48F48795779592
:100DB0006795B795F7959E3F08F0B3CF9395880F49
:100DC00008F09927EE0F979587950895A8D008F415
:100DD00081E008950CD0DEC0D6D040F0CDD030F008
:100DE00021F45F3F19F0BFC0511108C1C2C0E3D068
:100DF00098F39923C9F35523B1F3951B550BBB27E2
:100E0000AA2762177307840738F09F5F5F4F220F8E
:100E1000331F441FAA1FA9F333D00E2E3AF0E0E887
:100E200030D091505040E695001CCAF729D0FE2FD3
:100E300027D0660F771F881FBB1F26173707480765
:100E4000AB07B0E809F0BB0B802DBF01FF2793581B
:100E50005F4F2AF09E3F510568F085C0CFC05F3FCD
:100E6000ECF3983EDCF3869577956795B795F79503
:100E70009F5FC9F7880F911D9695879597F90895FB
:100E8000E1E0660F771F881FBB1F62177307840797
:100E9000BA0720F0621B730B840BBA0BEE1F88F7A6
:100EA000E0950895E89409C097FB3EF490958095ED
:100EB000709561957F4F8F4F9F4F9923A9F0F92F20
:100EC00096E9BB279395F695879577956795B7959E
:100ED000F111F8CFFAF4BB0F11F460FF1BC06F5F84
:100EE0007F4F8F4F9F4F16C0882311F096E911C096
:100EF000772321F09EE8872F762F05C0662371F0B7
:100F000096E8862F70E060E02AF09A95660F771FCA
:100F1000881FDAF7880F9695879597F90895990FA6
:100F20000008550FAA0BE0E8FEEF16161706E807B3
:100F3000F907C0F012161306E407F50798F0621BD4
:100F4000730B840B950B39F40A2661F0232B242BA9
:100F5000252B21F408950A2609F4A140A6958FEFC8
:100F6000811D811D089597F99F6780E870E060E01A
:100F700008959FEF80EC089500240A941616170632
:100F800018060906089500240A941216130614067A
:100F900005060895092E0394000C11F4882352F0DD
:100FA000BB0F40F4BF2B11F460FF04C06F5F7F4F95
:100FB0008F4F9F4F089557FD9058440F551F59F07C
:100FC0005F3F71F04795880F97FB991F61F09F3F36
:100FD00079F087950895121613061406551FF2CF5F
:100FE0004695F1DF08C0161617061806991FF1CFAF
:100FF00086957105610508940895E894BB276627D6
:101000007727CB0197F908958ADF08F48FEF0895C9
:101010000BD0C0CFB1DF28F0B6DF18F0952309F070
:10102000A2CFA7CF1124EACFC6DFA0F3959FD1F3BB
:10103000950F50E0551F629FF001729FBB27F00D86
:10104000B11D639FAA27F00DB11DAA1F649F6627DB
:10105000B00DA11D661F829F2227B00DA11D621F2A
:10106000739FB00DA11D621F839FA00D611D221FE4
:10107000749F3327A00D611D231F849F600D211DC8
:10108000822F762F6A2F11249F5750408AF0E1F06B
:1010900088234AF0EE0FFF1FBB1F661F771F881FB4
:1010A00091505040A9F79E3F510570F05CCFA6CFFC
:1010B0005F3FECF3983EDCF3869577956795B7959F
:1010C000F795E7959F5FC1F7FE2B880F911D9695C9
:1010D000879597F908950F931F93CF93DF93EC01B2
:1010E0008B01009731F46115710519F480E090E0EF
:1010F00038C06EE070E081E090E00E94C90AFC0117
:101100000097A1F380E883830115110571F013871F
:10111000028781E883838091F1039091F203892B08
:1011200021F4F093F203E093F1032097C9F0D18703
:10113000C0878381826083838091F3039091F4035D
:10114000892B71F4F093F403E093F3038091F5039A
:101150009091F603892B21F4F093F603E093F503C5
:10116000CF01DF91CF911F910F910895A0E0B0E0E2
:10117000ECEBF8E00C94C90CFE013596619171918D
:10118000AF018091F3039091F4030E94F708E2E02D
:101190000C94E50C0F931F93CF93DF93E091F3032F
:1011A000F091F403238121FF1BC0EC0100E010E06B
:1011B00089916091F3037091F403DB011896ED912E
:1011C000FC911997882331F00995892B89F30FEF4A
:1011D0001FEFEECF8AE00995892B11F4C80102C0F8
:1011E0008FEF9FEFDF91CF911F910F910895ACE0AA
:1011F000B0E0EDEFF8E00C94B90C7C016B018A01D2
:10120000FC0117821682838181FFBDC1CE01019648
:101210004C01F7019381F60193FD859193FF819134
:101220006F01882309F4ABC1853239F493FD8591B0
:1012300093FF81916F01853229F4B70190E00E94FC
:10124000290CE7CF512C312C20E02032A0F48B3236
:1012500069F030F4803259F0833269F420612CC097
:101260008D3239F0803339F4216026C02260246049
:1012700023C0286021C027FD27C030ED380F3A3049
:1012800078F426FF06C0FAE05F9E300D1124532E3D
:1012900013C08AE0389E300D1124332E20620CC01A
:1012A0008E3221F426FD6BC1206406C08C3611F409
:1012B000206802C0883641F4F60193FD859193FFC2
:1012C00081916F018111C1CF982F9F7D95549330EB
:1012D00028F40C5F1F4FFFE3F9830DC0833631F014
:1012E000833771F0833509F05BC022C0F80180813B
:1012F00089830E5F1F4F44244394512C540115C021
:101300003801F2E06F0E711CF801A080B18026FF59
:1013100003C0652D70E002C06FEF7FEFC5012C8721
:101320000E941E0C2C0183012C852F77222E17C0C2
:101330003801F2E06F0E711CF801A080B18026FF29
:1013400003C0652D70E002C06FEF7FEFC5012C87F1
:101350000E940C0C2C012C852068222E830123FC7A
:101360001BC0832D90E048165906B0F4B70180E207
:1013700090E00E94290C3A94F4CFF50127FC859166
:1013800027FE81915F01B70190E00E94290C311086
:101390003A94F1E04F1A51084114510471F7E5C035
:1013A000843611F0893639F5F80127FF07C06081CE
:1013B0007181828193810C5F1F4F08C060817181B0
:1013C000882777FD8095982F0E5F1F4F2F76B22EBE
:1013D00097FF09C090958095709561957F4F8F4FCD
:1013E0009F4F2068B22E2AE030E0A4010E945B0CDF
:1013F000A82EA81844C0853729F42F7EB22E2AE0E3
:1014000030E025C0F22FF97FBF2E8F36C1F018F4DF
:10141000883579F0B4C0803719F0883721F0AFC033
:101420002F2F2061B22EB4FE0DC08B2D8460B82EFC
:1014300009C024FF0AC09F2F9660B92E06C028E07D
:1014400030E005C020E130E002C020E132E0F801E8
:10145000B7FE07C060817181828193810C5F1F4F4D
:1014600006C06081718180E090E00E5F1F4FA40193
:101470000E945B0CA82EA818FB2DFF77BF2EB6FE8E
:101480000BC02B2D2E7FA51450F4B4FE0AC0B2FC65
:1014900008C02B2D2E7E05C07A2C2B2D03C07A2C54
:1014A00001C0752C24FF0DC0FE01EA0DF11D8081E5
:1014B000803311F4297E09C022FF06C0739473940F
:1014C00004C0822F867809F0739423FD13C020FF97
:1014D00006C05A2C731418F4530C5718732C731439
:1014E00068F4B70180E290E02C870E94290C739485
:1014F0002C85F5CF731410F4371801C0312C24FF5C
:1015000012C0B70180E390E02C870E94290C2C8543
:1015100022FF17C021FF03C088E590E002C088E7E2
:1015200090E0B7010CC0822F867859F021FD02C0EF
:1015300080E201C08BE227FD8DE2B70190E00E94BE
:10154000290CA51438F4B70180E390E00E94290C1F
:101550005A94F7CFAA94F401EA0DF11D8081B701E6
:1015600090E00E94290CA110F5CF332009F451CE50
:10157000B70180E290E00E94290C3A94F6CFF7017F
:101580008681978102C08FEF9FEF2C96E2E10C9449
:10159000D50C0F931F93CF93DF93869F8001879F76
:1015A000100D969F100D1124C8010E94E50AEC0150
:1015B000009729F0A80160E070E00E94170CCE01AE
:1015C000DF91CF911F910F910895CF93DF938230D8
:1015D000910510F482E090E0E091F903F091FA03B4
:1015E00020E030E0A0E0B0E0309739F14081518157
:1015F00048175907B8F04817590771F48281938149
:10160000109729F013969C938E9312972CC0909369
:10161000FA038093F90327C02115310531F04217F1
:10162000530718F0A901DB0101C0EF019A01BD01C8
:10163000DF010280F381E02DD7CF21153105F9F0CC
:10164000281B390B2430310580F48A819B81611578
:10165000710521F0FB019383828304C09093FA0308
:101660008093F903FE01329644C0FE01E20FF31F9E
:101670008193919322503109398328833AC0209174
:10168000F7033091F803232B41F4209102013091AC
:1016900003013093F8032093F70320910001309168
:1016A00001012115310541F42DB73EB740910401E8
:1016B00050910501241B350BE091F703F091F803DD
:1016C000E217F307A0F42E1B3F0B2817390778F019
:1016D000AC014E5F5F4F2417350748F04E0F5F1F78
:1016E0005093F8034093F7038193919302C0E0E095
:1016F000F0E0CF01DF91CF910895CF93DF93009772
:1017000009F487C0FC01329713821282C091F90359
:10171000D091FA03209781F420813181280F391F5D
:101720008091F7039091F8038217930779F5F0936E
:10173000F803E093F7036DC0DE0120E030E0AE1760
:10174000BF0750F412964D915C9113979D0141157E
:10175000510509F1DA01F3CFB383A28340815181AE
:10176000840F951F8A179B0771F48D919C91119797
:10177000840F951F02969183808312968D919C9180
:101780001397938382832115310529F4F093FA038B
:10179000E093F9033EC0D9011396FC93EE931297A0
:1017A0004D915D91A40FB51FEA17FB0779F4808175
:1017B0009181840F951F0296D90111969C938E9367
:1017C0008281938113969C938E931297E0E0F0E0D0
:1017D0008A819B81009719F0FE01EC01F9CFCE01BF
:1017E000029628813981820F931F2091F70330914F
:1017F000F8032817390769F4309729F41092FA038F
:101800001092F90302C013821282D093F803C0939E
:10181000F703DF91CF910895FC010590615070406E
:101820000110D8F7809590958E0F9F1F0895DC01C9
:1018300001C06D9341505040E0F70895FC016150A4
:10184000704001900110D8F7809590958E0F9F1FE2
:1018500008950F931F93CF93DF93182F092FEB0158
:101860008B8181FD03C08FEF9FEF20C082FF10C0EE
:101870004E815F812C813D81421753077CF4E881C2
:10188000F9819F012F5F3F4F39832883108306C062
:10189000E885F985812F0995892B29F72E813F81CC
:1018A0002F5F3F4F3F832E83812F902FDF91CF916A
:1018B0001F910F910895FA01AA27283051F1203184
:1018C00081F1E8946F936E7F6E5F7F4F8F4F9F4FD4
:1018D000AF4FB1E03ED0B4E03CD0670F781F891F16
:1018E0009A1FA11D680F791F8A1F911DA11D6A0FE4
:1018F000711D811D911DA11D20D009F468943F9197
:101900002AE0269F11243019305D3193DEF6CF0195
:101910000895462F4770405D4193B3E00FD0C9F75B
:10192000F6CF462F4F70405D4A3318F0495D31FDC8
:101930004052419302D0A9F7EACFB4E0A69597951B
:10194000879577956795BA95C9F7009761057105F1
:1019500008959B01AC010A2E06945795479537953B
:101960002795BA95C9F7620F731F841F951FA01D95
:1019700008952F923F924F925F926F927F928F9233
:101980009F92AF92BF92CF92DF92EF92FF920F930E
:101990001F93CF93DF93CDB7DEB7CA1BDB0B0FB618
:1019A000F894DEBF0FBECDBF09942A8839884888D5
:1019B0005F846E847D848C849B84AA84B984C8846B
:1019C000DF80EE80FD800C811B81AA81B981CE0F62
:1019D000D11D0FB6F894DEBF0FBECDBFED01089547
:0419E000F894FFCFA9
:1019E4000000FB032000020000000000005C000077
:1019F4000C000C007C287C2858DC6800241048006B
:101A040028542840000C00000078840084780000EA
:101A140054385400107C1000804000001010100056
:101A24000040000060100C0038543800487C40002E
:101A34004864580044542C001C107C005C5424005E
:101A44003854240064140C0068542C0048543800A2
:101A5400004800008048000010284400282828007E
:101A6400442810000454080038445C0078147800BA
:101A74007C542800384428007C4438007C544400BA
:101A84007C140400384474007C107C00447C4400C2
:101A940020403C007C106C007C4040007C187C00A2
:101AA40078103C00384438007C1408003844B800EE
:101AB4007C14680048542400047C04007C407C00AE
:101AC4003C603C007C307C006C106C000C700C00A2
:101AD40064544C00007C44000C106000447C000002
:101AE4000804080080808000000408003048780062
:101AF4007C4830003048480030487C003068500052
:101B04001078140090A878007C087000507440008D
:101B1400808074007C106800447C40007810780059
:101B24007808700030483000F82810003048F80079
:101B34007810080050582800083C480038407800C5
:101B440038403800782078004830480098A0780061
:101B54004868580010788400007C000084781000E5
:101B64000804080457656C636F6D6520746F2074F6
:101B7400686520626573742070696E6720706F6E8B
:101B8400670067616D6520696E2074686520776FF2
:101B9400726C642100546F7563682072696768749D
:101BA40020746F20737461727421004D61696E201A
:101BB4006D656E75004F6E652D706C617965722070
:101BC4006D6F64650054776F2D706C617965727305
:101BD400206D6F6465004869676873636F7265732D
:101BE4000053657474696E677300546F756368207D
:101BF400726967687420746F20656E746572003151
:101C04002E2036353020706F696E747300322E20AA
:101C140034323220706F696E747300332E20323088
:101C24003020706F696E7473004272696768746EF5
:101C340065737300536F756E6400557365206C652E
:101C4400667420736C69646520746F2073657420F6
:101C54006272696768746E657373004C454654001C
:101C6400524947485400444F574E005550004E4582
:101C7400555452414C004D43505F43414E535441DF
:101C840054206176616E742072657365743D2025FD
:101C940063200A004D43505F43414E535441543D29
:101CA400202563200A00496E74657272757074652C
:101CB40064206279206A6F79737469636B2062753A
:0C1CC40074746F6E21005265736574002B
:00000001FF
