S01800004E69636F6C61735F5365696C6C6965722E73726563AB
S11300000C94F6000C9486030C9419040C941301BC
S11300100C9413010C9413010C9413010C9413010C
S11300200C9413010C9413010C9413010C941301FC
S11300300C9413010C9413010C9413010C941301EC
S11300400C9413010C9413010C9413010C941301DC
S11300500C9413010C9413010C9413010C941301CC
S11300600C9413010C9413010C9413010C941301BC
S113007000000000005C00000C000C007C287C28C0
S113008058DC68002410480028542840000C000064
S1130090007884008478000054385400107C1000E8
S11300A080400000101010000040000060100C00A0
S11300B038543800487C40004864580044542C00AC
S11300C01C107C005C5424003854240064140C007C
S11300D068542C0048543800004800008048000050
S11300E0102844002828280044281000045408003C
S11300F038445C00781478007C5428003844280084
S11301007C4438007C5444007C140400384474005B
S11301107C107C00447C440020403C007C106C003B
S11301207C4040007C187C0078103C003844380047
S11301307C1408003844B8007C1468004854240037
S1130140047C04007C407C003C603C007C307C00EF
S11301506C106C000C700C0064544C00007C440067
S11301600C106000447C00000804080080808000BB
S113017000040800304878007C48300030484800CB
S113018030487C00306850001078140090A8780043
S11301907C08700050744000808074007C106800FB
S11301A0447C4000781078007808700030483000B3
S11301B0F82810003048F80078100800505828003B
S11301C0083C4800384078003840380078207800EF
S11301D04830480098A07800486858001078840097
S11301E0007C0000847810000804080411241FBE59
S11301F0CFEFD4E0DEBFCDBF12E0A0E0B1E0E6EB8C
S1130200FCE102C005900D92A636B107D9F722E0B1
S1130210A6E6B2E001C01D92A537B207E1F70E943D
S1130220D6050C94590E0C9400008093001483EFAF
S113023091E00197F1F700C0000080910014089547
S11302400E9493070E94360387EA91E60197F1F72B
S113025000C0000040E060EE8FE00E946C038EE07E
S11302600E943E03807E21F088E091E00E94330AE0
S113027041E061E08BE20E946C030895EF92FF92EB
S11302800F931F93CF93DF937C0180E30E943E037F
S113029080FDFBCFF70140815181440F551F4295EA
S11302A05295507F5427407F5427552760EE82E3B0
S11302B00E946C03F701608171817695679576954C
S11302C067957695679581E30E945003F701428113
S11302D06FE085E30E946C03F70182819381181615
S11302E019069CF487010C5F1F4FC0E0D0E0F801B1
S11302F061918F018C2F8A5C0E9450032196F70133
S113030022813381C217D30794F30E946403DF91DF
S1130310CF911F910F91FF90EF9008950E94730663
S113032064E081E00E94FA0683E291E00E941C07E7
S11303306CE183E00E94FA0681E491E00E941C07CC
S113034064E187E00E94FA0684E591E00E941C07BC
S113035008950E9473066EE280E00E94FA068AE61F
S113036091E00E941C0768E082E00E94FA060E9465
S11303703A0764E182E00E94FA0684E791E00E9471
S11303801C0764E183E00E94FA0684E891E00E947D
S11303901C0764E184E00E94FA0685E991E00E946A
S11303A01C0764E185E00E94FA0680EA91E00E945D
S11303B01C0760E387E00E94FA0689EA91E00E9444
S11303C01C0760E087E00E94FA060E945107089526
S11303D00E94730660E280E00E94FA0684E791E0DE
S11303E00E941C076AE383E00E94610760E087E0E3
S11303F00E94FA060E94510708950E94730660E263
S113040080E00E94FA0684E891E00E941C076DE1F6
S113041083E00E94610767E583E00E94610760E072
S113042087E00E94FA060E94510708950E9473060D
S11304306CE280E00E94FA0685E991E00E941C07C4
S113044064E182E00E94FA068EEB91E00E941C07B0
S113045064E183E00E94FA068CEC91E00E941C07A0
S113046064E184E00E94FA068AED91E00E941C0790
S113047060E087E00E94FA060E94510708950E94F6
S1130480730660E380E00E94FA0680EA91E00E942D
S11304901C0768E082E00E94FA060E943A0764E1C1
S11304A082E00E94FA0688EE91E00E941C0764E153
S11304B083E00E94FA0683EF91E00E941C0760E04B
S11304C087E00E94FA060E94510708950E9473066D
S11304D06CE280E00E94FA0688EE91E00E941C071C
S11304E060E085E00E94FA0689EF91E00E941C0713
S11304F060E087E00E94FA060E94510708950F9376
S11305001F93CF93DF93CDB7DEB728970FB6F89438
S1130510DEBF0FBECDBF85E00E941501182F84E019
S11305200E941501082F612F70E080E090E00E9486
S1130530BB0820E030E04FE753E40E94270820E0A6
S113054030E048E453E40E94710920E030E048ECD4
S113055052E40E94BE07482F592F162F862F972F3B
S1130560A42FB52F89839A83AB83BC83602F70E05B
S113057080E090E00E94BB0820E030E04FE753E4C5
S11305800E94270820E030E048E453E40E94710907
S113059020E030E048EC52E40E94BE07E62F462FEC
S11305A0572F682F792F4D835E836F837887212F90
S11305B03A814B815C816E2F7E818F81988528964C
S11305C00FB6F894DEBF0FBECDBFDF91CF911F9160
S11305D00F910895CF92DF92EF92FF92CF93DF9322
S11305E0EC01C880D980EA80FB8020E030E04EE84E
S11305F052ECC701B6010E94230888232CF120E0A5
S113060030E04EE852E4C701B6010E946D091816A5
S1130610F4F0CC80DD80EE80FF8020E030E04EE816
S113062052ECC701B6010E94230888239CF020E005
S113063030E04EE852E4C701B6010E946D09181675
S113064064F48AE292E00BC08AE192E008C08FE190
S113065092E005C085E292E002C08DE292E0DF9173
S1130660CF91FF90EF90DF90CF9008950E94A40760
S113067080EC0E949B070E94A6070895CF93C82F81
S11306800E94A40783E00E949B078C2F0E949B0773
S11306900E949F07C82F0E94A6078C2FCF91089510
S11306A0CF93DF93D82FC62F0E94A40782E00E9425
S11306B09B078D2F0E949B078C2F0E949B070E94F3
S11306C0A607DF91CF9108950E94A40781E80E94B4
S11306D09B070E94A60708951F93CF93DF93182FBB
S11306E0D62FC42F0E94A40785E00E949B07812F68
S11306F00E949B078D2F0E949B078C2F0E949B07B3
S11307000E94A607DF91CF911F9108951F920F9227
S11307100FB60F9211242F933F934F935F936F93D0
S11307207F938F939F93AF93BF93EF93FF938091A6
S11307306602909167028330910534F40196909398
S113074067028093660264C0809168029091690296
S1130750009779F481E090E09093690280936802B5
S113076082E090E090930701809306010E94A90122
S11307704FC081309105C9F5809106019091070120
S11307808230910549F48BE090E090936902809364
S113079068020E94E8013CC08330910549F48CE072
S11307A090E090936902809368020E94FD0130C03A
S11307B08430910549F48DE090E090936902809330
S11307C068020E94160224C0059711F58EE090E09D
S11307D0909369028093680282E090E0909307010D
S11307E0809306010E943F0213C00E9789F4809102
S11307F0060190910701029759F48DE890E09093D7
S113080069028093680280916A0290E00E94660205
S1130810FF91EF91BF91AF919F918F917F916F91D4
S11308205F914F913F912F910F900FBE0F901F90AA
S113083018951F920F920FB60F9211242F933F9386
S11308404F935F936F937F938F939F93AF93BF93D4
S1130850EF93FF9380916802909169028130910532
S113086039F410926902109268020E948E0126C027
S11308709C012B5031092430310578F481E090E05B
S1130880909369028093680282E090E0909307015C
S1130890809306010E94A90111C08D38910571F45D
S11308A08EE090E0909369028093680282E090E089
S11308B090930701809306010E943F02FF91EF91FC
S11308C0BF91AF919F918F917F916F915F914F9164
S11308D03F912F910F900FBE0F901F901895CF93BB
S11308E0DF9380916802909169028D38910539F502
S11308F080916A020E946D0660E283E00E94FA061B
S1130900C0E4D0E080E00E946A0621972097D1F7E6
S113091060E283E00E94FA0680916A0286958695D9
S113092071F0C0E0D0E08FEF0E946A0621968091BA
S11309306A028695869590E0C817D907A4F3DF91DB
S1130940CF9108951F93CF93DF93CDB7DEB764970C
S11309500FB6F894DEBF0FBECDBF2D873E874F87FD
S1130960588B698B7A8B8B8B9C8BCE010D960E9456
S1130970EA0220916802309169022130310509F0C0
S113098068C022E08A32920781F580910601909135
S1130990070183309105A4F068E00E94FA060E94E2
S11309A047078091060190910701019790930701F1
S11309B08093060168E00E94FA060E943A07ECC0A0
S11309C0029709F0E9C068E082E00E94FA060E94FA
S11309D0470785E090E0909307018093060168E063
S11309E00E94FA060E943A07D7C08552924009F045
S11309F0D3C0809106019091070185309105A4F43C
S1130A0068E00E94FA060E944707809106019091CF
S1130A1007010196909307018093060168E00E9404
S1130A20FA060E943A07B8C0059709F0B5C068E015
S1130A3085E00E94FA060E94470782E090E09093C6
S1130A4007018093060168E00E94FA060E943A07B3
S1130A50A3C02E30310509F06AC022E08A32920721
S1130A6089F5809106019091070183309105A9F4DD
S1130A7068E083E00E94FA060E944707809106011D
S1130A80909107010197909307018093060168E014
S1130A900E94FA060E943A077FC0029709F07CC0C0
S1130AA068E082E00E94FA060E94470783E090E033
S1130AB0909307018093060168E00E94FA060E9461
S1130AC03A076AC08552924009F066C080910601D7
S1130AD09091070182309105A9F468E082E00E94B8
S1130AE0FA060E944707809106019091070101963A
S1130AF0909307018093060168E00E94FA060E9421
S1130B003A074AC0039709F047C068E083E00E94AF
S1130B10FA060E94470782E090E0909307018093D1
S1130B20060168E00E94FA060E943A0735C02B507D
S1130B3031092230310580F581E090E09A83898380
S1130B4082E090E09C838B836D857E858F85988978
S1130B500E948F08162F6D8369897A898B899C89F5
S1130B600E948F086E831F926F931F921F931F9290
S1130B7082E08F931F9281E08F9385E392E09F93AD
S1130B808F930E941F0ACE0101960E943E010FB668
S1130B90F894DEBF0FBECDBF64960FB6F894DEBFE7
S1130BA00FBECDBFDF91CF911F910895CF93DF93F7
S1130BB0CDB7DEB729970FB6F894DEBF0FBECDBF11
S1130BC08FE190E00E94B4078FE592E00E94330A1F
S1130BD02FE38DE093E0215080409040E1F700C086
S1130BE000000E94A8070E9473060E94CC060E947F
S1130BF020010E948E018BB7806C8BBF8FB78068F9
S1130C008FBF85B78F6085BF86B716BE78940E9464
S1130C107F02522E632E742E852E262E372E482EBA
S1130C20998786E00E941501982E80936A0287E0D6
S1130C300E9415010E947F0229833A834B835C83BF
S1130C406D837E838F839887E22EF32E042F152FD6
S1130C50A62EB72EC82ED92E652D762D872D982D2C
S1130C600E94230881110CC02A2D3B2D4C2D5D2D93
S1130C70622D732D842D99850E942308882351F0B9
S1130C8029813A814B815C816D817E818F81988538
S1130C900E94A20486E00E94150180936A029812C1
S1130CA00E946F0490906A0287E00E94150186B347
S1130CB08FEF90E722E0815090402040E1F700C0A0
S1130CC000005E2C6F2C702E812E2A2C3B2C4C2C79
S1130CD0D986B0CF809300120895E0E0F0E191E866
S1130CE090838083089580EB8093001080E890E0E7
S1130CF0E0E0F2E1108201970097E1F781EB809345
S1130D00001080E890E0E0E0F2E1108201970097A3
S1130D10E1F782EB8093001080E890E0E0E0F2E1FC
S1130D20108201970097E1F783EB8093001080E82D
S1130D3090E0E0E0F2E1108201970097E1F784EBA4
S1130D408093001080E890E0E0E0F2E110820197E7
S1130D500097E1F785EB8093001080E890E0E0E0F5
S1130D60F2E1108201970097E1F786EB809300107F
S1130D7080E890E0E0E0F2E1108201970097E1F76B
S1130D8087EB8093001080E890E0E0E0F2E11082CD
S1130D9001970097E1F70895E0E0F0E18EEA80839F
S1130DA081EA80838AED808382E1808388EC80837A
S1130DB088EA80838FE3808385ED808380E8808365
S1130DC081E8808380E5808389ED808381E280836C
S1130DD080E2808382E080838BED808380E3808364
S1130DE08DEA8083108284EA808386EA80838FEA96
S1130DF0808308958055E0E0F0E18083862F8F7032
S1130E008083607762956F70606160830895880F56
S1130E10991F880F991F20E030E080519040A0E096
S1130E20B2E1FC01E20FF31FE491EC932F5F3F4F1B
S1130E3024303105B1F708950F931F93CF93DF93B7
S1130E40FC018081882389F08F010F5F1F4FC0E070
S1130E50D0E090E00E9407072196F80181918F016C
S1130E60882319F0C032D105A1F7DF91CF911F91EA
S1130E700F910895E0E0F2E180E180838083808334
S1130E8080839CE7908398E3908380830895E0E0D7
S1130E90F2E110821082108210821082108210827D
S1130EA00895E0E0F2E1108288EF80839CEF908364
S1130EB026EF20833FE33083208390838083108256
S1130EC008950F931F93CF93DF93182F062F0E943B
S1130ED0FA06C0E0D2E11882188280E1888394E99E
S1130EE0988327ED28833FEF38832883988388836A
S1130EF018821882602F81E0810F0E94FA061882FE
S1130F0092E0988383E0888323E228833FE3388355
S1130F10888338832883888398831882DF91CF91CC
S1130F201F910F91089587B3806B87BBBE98C49AB5
S1130F3081E58DB908958FB9779BFECF08951FB8C9
S1130F40779BFECF8FB10895C4980895C49A0895ED
S1130F5085B7806885BF08955D9BFECF8CB90895E1
S1130F605F9BFECF8CB1089589B988E18AB960EBA3
S1130F7077E08CEA97E00E94D40908955058BB2783
S1130F80AA270ED070C161D130F066D120F031F4BF
S1130F909F3F11F41EF456C10EF4E095E7FB4CC1DB
S1130FA0E92F72D180F3BA17620773078407950794
S1130FB018F071F49EF58AC10EF4E0950B2EBA2F49
S1130FC0A02D0B01B90190010C01CA01A00111244B
S1130FD0FF27591B99F0593F50F4503E68F11A16F7
S1130FE0F040A22F232F342F4427585FF3CF469588
S1130FF037952795A795F0405395C9F77EF41F16AA
S1131000BA0B620B730B840BBAF09150A1F0FF0F73
S1131010BB1F661F771F881FC2F70EC0BA0F621F5F
S1131020731F841F48F4879577956795B795F7954F
S11310309E3F08F0B3CF9395880F08F09927EE0FE1
S1131040979587950895D4D008F481E008950CD03D
S11310500AC102D140F0F9D030F021F45F3F19F019
S1131060EBC0511134C1EEC00FD198F39923C9F3E9
S11310705523B1F3951B550BBB27AA27621773079A
S1131080840738F09F5F5F4F220F331F441FAA1F4E
S1131090A9F333D00E2E3AF0E0E830D0915050400E
S11310A0E695001CCAF729D0FE2F27D0660F771FBC
S11310B0881FBB1F261737074807AB07B0E809F09E
S11310C0BB0B802DBF01FF2793585F4F2AF09E3F33
S11310D0510568F0B1C0FBC05F3FECF3983EDCF310
S11310E0869577956795B795F7959F5FC9F7880FAC
S11310F0911D9695879597F90895E1E0660F771FFE
S1131100881FBB1F621773078407BA0720F0621B8E
S1131110730B840BBA0BEE1F88F7E0950895BCD0CF
S113112088F09F5790F0B92F9927B751A0F0D1F0CC
S1131130660F771F881F991F1AF0BA95C9F712C056
S1131140B13081F0C3D0B1E00895C0C0672F782FCB
S11311508827B85F39F0B93FCCF3869577956795C2
S1131160B395D9F73EF490958095709561957F4F2E
S11311708F4F9F4F0895E89409C097FB3EF49095D4
S11311808095709561957F4F8F4F9F4F9923A9F05C
S1131190F92F96E9BB279395F695879577956795EB
S11311A0B795F111F8CFFAF4BB0F11F460FF1BC02F
S11311B06F5F7F4F8F4F9F4F16C0882311F096E9C2
S11311C011C0772321F09EE8872F762F05C0662370
S11311D071F096E8862F70E060E02AF09A95660F29
S11311E0771F881FDAF7880F9695879597F90895E2
S11311F0990F0008550FAA0BE0E8FEEF1616170624
S1131200E807F907C0F012161306E407F50798F08B
S1131210621B730B840B950B39F40A2661F0232BA4
S1131220242B252B21F408950A2609F4A140A69520
S11312308FEF811D811D089597F99F6780E870E005
S113124060E008959FEF80EC089500240A94161638
S1131250170618060906089500240A9412161306A0
S1131260140605060895092E0394000C11F488232E
S113127052F0BB0F40F4BF2B11F460FF04C06F5F4A
S11312807F4F8F4F9F4F089557FD9058440F551F20
S113129059F05F3F71F04795880F97FB991F61F0F4
S11312A09F3F79F087950895121613061406551F6B
S11312B0F2CF4695F1DF08C0161617061806991FD7
S11312C0F1CF86957105610508940895E894BB27CC
S11312D066277727CB0197F908958ADF08F48FEF03
S11312E008950BD0C0CFB1DF28F0B6DF18F09523F6
S11312F009F0A2CFA7CF1124EACFC6DFA0F3959FB0
S1131300D1F3950F50E0551F629FF001729FBB27E8
S1131310F00DB11D639FAA27F00DB11DAA1F649F94
S11313206627B00DA11D661F829F2227B00DA11D47
S1131330621F739FB00DA11D621F839FA00D611DCD
S1131340221F749F3327A00D611D231F849F600DEE
S1131350211D822F762F6A2F11249F5750408AF027
S1131360E1F088234AF0EE0FFF1FBB1F661F771FB3
S1131370881F91505040A9F79E3F510570F05CCFF3
S1131380A6CF5F3FECF3983EDCF38695779567959F
S1131390B795F795E7959F5FC1F7FE2B880F911DD1
S11313A09695879597F908950F931F93CF93DF939D
S11313B0EC018B01009731F46115710519F480E09B
S11313C090E038C06EE070E081E090E00E94320C62
S11313D0FC010097A1F380E883830115110571F0E6
S11313E01387028781E8838380916B0290916C025A
S11313F0892B21F4F0936C02E0936B022097C9F0DF
S1131400D187C08783818260838380916D029091AC
S11314106E02892B71F4F0936E02E0936D02809159
S11314206F0290917002892B21F4F0937002E09383
S11314306F02CF01DF91CF911F910F910895A0E02A
S1131440B0E0E5E2FAE00C94320EFE0135966191CB
S11314507191AF0180916D0290916E020E94600AB9
S1131460E2E00C944E0E0F931F93CF93DF93E09121
S11314706D02F0916E02238121FF1BC0EC0100E09C
S113148010E0899160916D0270916E02DB011896F3
S1131490ED91FC911997882331F00995892B89F3F3
S11314A00FEF1FEFEECF8AE00995892B11F4C801E5
S11314B002C08FEF9FEFDF91CF911F910F9108959D
S11314C0ACE0B0E0E6E6FAE00C94220E7C016B019D
S11314D08A01FC0117821682838181FFBDC1CE017E
S11314E001964C01F7019381F60193FD859193FFD9
S11314F081916F01882309F4ABC1853239F493FDDE
S1131500859193FF81916F01853229F4B70190E0B1
S11315100E94920DE7CF512C312C20E02032A0F410
S11315208B3269F030F4803259F0833269F42061EF
S11315302CC08D3239F0803339F4216026C022600A
S1131540246023C0286021C027FD27C030ED380F58
S11315503A3078F426FF06C0FAE05F9E300D11247D
S1131560532E13C08AE0389E300D1124332E20628E
S11315700CC08E3221F426FD6BC1206406C08C366B
S113158011F4206802C0883641F4F60193FD859178
S113159093FF81916F018111C1CF982F9F7D955445
S11315A0933028F40C5F1F4FFFE3F9830DC083369B
S11315B031F0833771F0833509F05BC022C0F80144
S11315C0808189830E5F1F4F44244394512C54011E
S11315D015C03801F2E06F0E711CF801A080B180D3
S11315E026FF03C0652D70E002C06FEF7FEFC501D9
S11315F02C870E94870D2C0183012C852F77222EA6
S113160017C03801F2E06F0E711CF801A080B180A0
S113161026FF03C0652D70E002C06FEF7FEFC501A8
S11316202C870E94750D2C012C852068222E8301A5
S113163023FC1BC0832D90E048165906B0F4B70173
S113164080E290E00E94920D3A94F4CFF50127FCD9
S1131650859127FE81915F01B70190E00E94920D70
S113166031103A94F1E04F1A51084114510471F7C2
S1131670E5C0843611F0893639F5F80127FF07C033
S113168060817181828193810C5F1F4F08C06081EA
S11316907181882777FD8095982F0E5F1F4F2F76D5
S11316A0B22E97FF09C090958095709561957F4FF4
S11316B08F4F9F4F2068B22E2AE030E0A4010E9491
S11316C0C40DA82EA81844C0853729F42F7EB22E45
S11316D02AE030E025C0F22FF97FBF2E8F36C1F00B
S11316E018F4883579F0B4C0803719F0883721F0C0
S11316F0AFC02F2F2061B22EB4FE0DC08B2D84609D
S1131700B82E09C024FF0AC09F2F9660B92E06C0C8
S113171028E030E005C020E130E002C020E132E002
S1131720F801B7FE07C060817181828193810C5FEB
S11317301F4F06C06081718180E090E00E5F1F4FF3
S1131740A4010E94C40DA82EA818FB2DFF77BF2E5C
S1131750B6FE0BC02B2D2E7FA51450F4B4FE0AC088
S1131760B2FC08C02B2D2E7E05C07A2C2B2D03C075
S11317707A2C01C0752C24FF0DC0FE01EA0DF11D69
S11317808081803311F4297E09C022FF06C073943E
S1131790739404C0822F867809F0739423FD13C0D8
S11317A020FF06C05A2C731418F4530C5718732CCA
S11317B0731468F4B70180E290E02C870E94920DC4
S11317C073942C85F5CF731410F4371801C0312CA1
S11317D024FF12C0B70180E390E02C870E94920D91
S11317E02C8522FF17C021FF03C088E590E002C0CA
S11317F088E790E0B7010CC0822F867859F021FD6C
S113180002C080E201C08BE227FD8DE2B70190E0C7
S11318100E94920DA51438F4B70180E390E00E9471
S1131820920D5A94F7CFAA94F401EA0DF11D808128
S1131830B70190E00E94920DA110F5CF332009F476
S113184051CEB70180E290E00E94920D3A94F6CF17
S1131850F7018681978102C08FEF9FEF2C96E2E11A
S11318600C943E0E0F931F93CF93DF93869F8001BA
S1131870879F100D969F100D1124C8010E944E0CD5
S1131880EC01009729F0A80160E070E00E94800D4F
S1131890CE01DF91CF911F910F910895CF93DF93E4
S11318A08230910510F482E090E0E0917302F091AF
S11318B0740220E030E0A0E0B0E0309739F14081DC
S11318C0518148175907B8F04817590771F48281B4
S11318D09381109729F013969C938E9312972CC0A2
S11318E0909374028093730227C02115310531F05F
S11318F04217530718F0A901DB0101C0EF019A0157
S1131900BD01DF010280F381E02DD7CF2115310520
S1131910F9F0281B390B2430310580F48A819B812E
S11319206115710521F0FB019383828304C09093B8
S1131930740280937302FE01329644C0FE01E20FEA
S1131940F31F8193919322503109398328833AC03C
S11319502091710230917202232B41F420910201F3
S1131960309103013093720220937102209100019F
S1131970309101012115310541F42DB73EB7409155
S1131980040150910501241B350BE0917102F09183
S11319907202E217F307A0F42E1B3F0B2817390736
S11319A078F0AC014E5F5F4F2417350748F04E0FB7
S11319B05F1F50937202409371028193919302C00E
S11319C0E0E0F0E0CF01DF91CF910895CF93DF9372
S11319D0009709F487C0FC01329713821282C091E8
S11319E07302D0917402209781F420813181280FF1
S11319F0391F80917102909172028217930779F5D1
S1131A00F0937202E09371026DC0DE0120E030E0D9
S1131A10AE17BF0750F412964D915C9113979D0138
S1131A204115510509F1DA01F3CFB383A283408153
S1131A305181840F951F8A179B0771F48D919C9196
S1131A401197840F951F02969183808312968D912E
S1131A509C911397938382832115310529F4F09384
S1131A607402E09373023EC0D9011396FC93EE9383
S1131A7012974D915D91A40FB51FEA17FB0779F4F6
S1131A8080819181840F951F0296D90111969C93B0
S1131A908E938281938113969C938E931297E0E0A8
S1131AA0F0E08A819B81009719F0FE01EC01F9CFE7
S1131AB0CE01029628813981820F931F20917102F1
S1131AC0309172022817390769F4309729F410927B
S1131AD074021092730202C013821282D0937202B3
S1131AE0C0937102DF91CF910895FC01059061507C
S1131AF070400110D8F7809590958E0F9F1F089520
S1131B00DC0101C06D9341505040E0F70895FC01A1
S1131B106150704001900110D8F7809590958E0F18
S1131B209F1F08950F931F93CF93DF93182F092FAF
S1131B30EB018B8181FD03C08FEF9FEF20C082FFFB
S1131B4010C04E815F812C813D81421753077CF484
S1131B50E881F9819F012F5F3F4F398328831083E8
S1131B6006C0E885F985812F0995892B29F72E81EF
S1131B703F812F5F3F4F3F832E83812F902FDF9133
S1131B80CF911F910F910895FA01AA27283051F19E
S1131B90203181F1E8946F936E7F6E5F7F4F8F4F9A
S1131BA09F4FAF4FB1E03ED0B4E03CD0670F781FF9
S1131BB0891F9A1FA11D680F791F8A1F911DA11DDE
S1131BC06A0F711D811D911DA11D20D009F4689417
S1131BD03F912AE0269F11243019305D3193DEF6BF
S1131BE0CF010895462F4770405D4193B3E00FD075
S1131BF0C9F7F6CF462F4F70405D4A3318F0495D60
S1131C0031FD4052419302D0A9F7EACFB4E0A69542
S1131C109795879577956795BA95C9F70097610564
S1131C20710508959B01AC010A2E069457954795BA
S1131C3037952795BA95C9F7620F731F841F951FAF
S1131C40A01D08952F923F924F925F926F927F92C0
S1131C508F929F92AF92BF92CF92DF92EF92FF92B8
S1131C600F931F93CF93DF93CDB7DEB7CA1BDB0B64
S1131C700FB6F894DEBF0FBECDBF09942A88398809
S1131C8048885F846E847D848C849B84AA84B98410
S1131C90C884DF80EE80FD800C811B81AA81B9811C
S1131CA0CE0FD11D0FB6F894DEBF0FBECDBFED0130
S1091CB00895F894FFCF33
S1131CB600007502200002004D43503235313520B4
S1131CC6697320696E206E6F726D616C206D6F642E
S1131CD665200057656C636F6D6520746F207468AA
S1131CE66520626573742070696E6720706F6E6715
S1131CF60067616D6520696E2074686520776F7270
S1131D066C642100546F7563682072696768742077
S1131D16746F20737461727421004D61696E206D55
S1131D26656E75004F6E652D706C61796572206DF8
S1131D366F64650054776F2D706C617965727320DA
S1131D466D6F6465004869676873636F72657300D5
S1131D5653657474696E677300546F756368207293
S1131D666967687420746F20656E74657200312E1D
S1131D762036353020706F696E747300322E20342D
S1131D86323220706F696E747300332E2032303015
S1131D9620706F696E7473004272696768746E6549
S1131DA6737300536F756E6400557365206C6566B6
S1131DB67420736C69646520746F20736574206283
S1131DC672696768746E657373004C4546540052B5
S1131DD64947485400444F574E005550004E455508
S1131DE65452414C0053656E64696E673A20494407
S1131DF63A2025642C206C656E6774683A20256445
S1131E062C20783A2025692C20793A25690A005233
S1091E1665736574000011
S9030000FC
