:100000000C94F6000C9486030C9419040C941301C0
:100010000C9413010C9413010C9413010C94130110
:100020000C9413010C9413010C9413010C94130100
:100030000C9413010C9413010C9413010C941301F0
:100040000C9413010C9413010C9413010C941301E0
:100050000C9413010C9413010C9413010C941301D0
:100060000C9413010C9413010C9413010C941301C0
:1000700000000000005C00000C000C007C287C28C4
:1000800058DC68002410480028542840000C000068
:10009000007884008478000054385400107C1000EC
:1000A00080400000101010000040000060100C00A4
:1000B00038543800487C40004864580044542C00B0
:1000C0001C107C005C5424003854240064140C0080
:1000D00068542C0048543800004800008048000054
:1000E0001028440028282800442810000454080040
:1000F00038445C00781478007C5428003844280088
:100100007C4438007C5444007C140400384474005F
:100110007C107C00447C440020403C007C106C003F
:100120007C4040007C187C0078103C00384438004B
:100130007C1408003844B8007C146800485424003B
:10014000047C04007C407C003C603C007C307C00F3
:100150006C106C000C700C0064544C00007C44006B
:100160000C106000447C00000804080080808000BF
:1001700000040800304878007C48300030484800CF
:1001800030487C00306850001078140090A8780047
:100190007C08700050744000808074007C106800FF
:1001A000447C4000781078007808700030483000B7
:1001B000F82810003048F80078100800505828003F
:1001C000083C4800384078003840380078207800F3
:1001D0004830480098A0780048685800107884009B
:1001E000007C0000847810000804080411241FBE5D
:1001F000CFEFD4E0DEBFCDBF12E0A0E0B1E0EEEF84
:10020000F6E102C005900D92AC33B107D9F722E0B8
:10021000ACE3B2E001C01D92AB34B207E1F70E943B
:10022000BD050C947D0B0C9400008093001483EFAB
:1002300091E00197F1F700C000008091001408954B
:100240000E947A070E94360387EA91E60197F1F748
:1002500000C0000040E060EE8FE00E946C038EE082
:100260000E943E03807E21F088E091E00E94060A11
:1002700041E061E08BE20E946C030895EF92FF92EF
:100280000F931F93CF93DF937C0180E30E943E0383
:1002900080FDFBCFF70140815181440F551F4295EE
:1002A0005295507F5427407F5427552760EE82E3B4
:1002B0000E946C03F7016081718176956795769550
:1002C00067957695679581E30E945003F701428117
:1002D0006FE085E30E946C03F70182819381181619
:1002E00019069CF487010C5F1F4FC0E0D0E0F801B5
:1002F00061918F018C2F8A5C0E9450032196F70137
:1003000022813381C217D30794F30E946403DF91E3
:10031000CF911F910F91FF90EF9008950E945A0680
:1003200064E081E00E94E10683E291E00E9403071D
:100330006CE183E00E94E10681E491E00E94030702
:1003400064E187E00E94E10684E591E00E940307F2
:1003500008950E945A066EE280E00E94E1068AE655
:1003600091E00E94030768E082E00E94E1060E949B
:10037000210764E182E00E94E10684E791E00E94A7
:10038000030764E183E00E94E10684E891E00E94B3
:10039000030764E184E00E94E10685E991E00E94A0
:1003A000030764E185E00E94E10680EA91E00E9493
:1003B000030760E387E00E94E10689EA91E00E947A
:1003C000030760E087E00E94E1060E943807089575
:1003D0000E945A0660E280E00E94E10684E791E014
:1003E0000E9403076AE383E00E94480760E087E019
:1003F0000E94E1060E94380708950E945A0660E2B2
:1004000080E00E94E10684E891E00E9403076DE12C
:1004100083E00E94480767E583E00E94480760E0A8
:1004200087E00E94E1060E94380708950E945A065C
:100430006CE280E00E94E10685E991E00E940307FA
:1004400064E182E00E94E1068EEB91E00E940307E6
:1004500064E183E00E94E1068CEC91E00E940307D6
:1004600064E184E00E94E1068AED91E00E940307C6
:1004700060E087E00E94E1060E94380708950E942C
:100480005A0660E380E00E94E10680EA91E00E9463
:10049000030768E082E00E94E1060E94210764E110
:1004A00082E00E94E10688EE91E00E94030764E189
:1004B00083E00E94E10683EF91E00E94030760E081
:1004C00087E00E94E1060E94380708950E945A06BC
:1004D0006CE280E00E94E10688EE91E00E94030752
:1004E00060E085E00E94E10689EF91E00E94030749
:1004F00060E087E00E94E1060E94380708950F93AC
:100500001F93CF93DF93CDB7DEB728970FB6F8943C
:10051000DEBF0FBECDBF85E00E941501182F84E01D
:100520000E941501082F612F70E080E090E00E948A
:10053000A20820E030E04FE753E40E940E0820E0DC
:1005400030E048E453E40E94580920E030E048ECF1
:1005500052E40E94A507482F592F162F862F972F58
:10056000A42FB52F89839A83AB83BC83602F70E05F
:1005700080E090E00E94A20820E030E04FE753E4E2
:100580000E940E0820E030E048E453E40E9458093D
:1005900020E030E048EC52E40E94A507E62F462F09
:1005A000572F682F792F4D835E836F837887212F94
:1005B0003A814B815C816E2F7E818F819885289650
:1005C0000FB6F894DEBF0FBECDBFDF91CF911F9164
:1005D0000F910895CF92DF92EF92FF92CF93DF9326
:1005E000EC01C880D980EA80FB8020E030E04EE852
:1005F00052ECC701B6010E940A0888232CF120E0C2
:1006000030E04EE852E4C701B6010E9454091816C2
:10061000F4F0CC80DD80EE80FF8020E030E04EE81A
:1006200052ECC701B6010E940A0888239CF020E022
:1006300030E04EE852E4C701B6010E945409181692
:1006400064F48AE292E00BC08AE192E008C08FE194
:1006500092E005C085E292E002C08DE292E0DF9177
:10066000CF91FF90EF90DF90CF9008950E948B077D
:1006700080EC0E9482070E948D070895CF93C82FB7
:100680000E948B0783E00E9482078C2F0E948207C2
:100690000E948607C82F0E948D078C2FCF91089546
:1006A000CF93DF93D82FC62F0E948B0782E00E9442
:1006B00082078D2F0E9482078C2F0E9482070E9442
:1006C0008D07DF91CF9108950E948B0781E80E94EA
:1006D00082070E948D0708951F93CF93DF93182FF1
:1006E000D62FC42F0E948B0785E00E948207812F9E
:1006F0000E9482078D2F0E9482078C2F0E94820702
:100700000E948D07DF91CF911F9108951F920F9244
:100710000FB60F9211242F933F934F935F936F93D4
:100720007F938F939F93AF93BF93EF93FF938091AA
:100730003C0290913D028330910534F401969093F0
:100740003D0280933C0264C080913E0290913F0242
:10075000009779F481E090E090933F0280933E020D
:1007600082E090E090930701809306010E94A90126
:100770004FC081309105C9F5809106019091070124
:100780008230910549F48BE090E090933F02809392
:100790003E020E94E8013CC08330910549F48CE0A0
:1007A00090E090933F0280933E020E94FD0130C092
:1007B0008430910549F48DE090E090933F0280935E
:1007C0003E020E94160224C0059711F58EE090E0CB
:1007D00090933F0280933E0282E090E09093070165
:1007E000809306010E943F0213C00E9789F4809106
:1007F000060190910701029759F48DE890E09093DB
:100800003F0280933E028091400290E00E94660287
:10081000FF91EF91BF91AF919F918F917F916F91D8
:100820005F914F913F912F910F900FBE0F901F90AE
:1008300018951F920F920FB60F9211242F933F938A
:100840004F935F936F937F938F939F93AF93BF93D8
:10085000EF93FF9380913E0290913F02813091058A
:1008600039F410923F0210923E020E948E0126C07F
:100870009C012B5031092430310578F481E090E05F
:1008800090933F0280933E0282E090E090930701B4
:10089000809306010E94A90111C08D38910571F461
:1008A0008EE090E090933F0280933E0282E090E0E1
:1008B00090930701809306010E943F02FF91EF9100
:1008C000BF91AF919F918F917F916F915F914F9168
:1008D0003F912F910F900FBE0F901F901895CF93BF
:1008E000DF9380913E0290913F028D38910539F55A
:1008F000809140020E94540660E283E00E94E1067B
:10090000C0E4D0E080E00E94510621972097D1F703
:1009100060E283E00E94E106809140028695869520
:1009200071F0C0E0D0E08FEF0E94510621968091D7
:1009300040028695869590E0C817D907A4F3DF9109
:10094000CF910895CF93DF93CDB7DEB764970FB6FD
:10095000F894DEBF0FBECDBF2D873E874F87588BE3
:10096000698B7A8B8B8B9C8BCE010D960E94EA0251
:1009700020913E0230913F022130310509F068C0DC
:1009800022E08A32920781F5809106019091070159
:1009900083309105A4F068E00E94E1060E942E07D2
:1009A0008091060190910701019790930701809330
:1009B000060168E00E94E1060E942107D5C0029767
:1009C00009F0D2C068E082E00E94E1060E942E0792
:1009D00085E090E0909307018093060168E00E9413
:1009E000E1060E942107C0C08552924009F0BCC0B8
:1009F000809106019091070185309105A4F468E08B
:100A00000E94E1060E942E07809106019091070145
:100A10000196909307018093060168E00E94E10629
:100A20000E942107A1C0059709F09EC068E085E0FB
:100A30000E94E1060E942E0782E090E09093070159
:100A40008093060168E00E94E1060E9421078CC0A5
:100A50002E30310509F069C022E08A32920789F50B
:100A6000809106019091070183309105A9F468E017
:100A700083E00E94E1060E942E078091060190917A
:100A800007010197909307018093060168E00E9497
:100A9000E1060E94210768C0029709F065C068E07E
:100AA00082E00E94E1060E942E0783E090E090938E
:100AB00007018093060168E00E94E1060E94210779
:100AC00053C08552924009F04FC080910601909129
:100AD000070182309105A9F468E082E00E94E106F6
:100AE0000E942E0780910601909107010196909334
:100AF00007018093060168E00E94E1060E94210739
:100B000033C0039789F568E083E00E94E1060E9404
:100B10002E0782E090E0909307018093060168E041
:100B20000E94E1060E9421071FC02B50310922308C
:100B30003105D0F481E090E09A83898382E090E0EF
:100B40009C838B836D857E858F8598890E9476082E
:100B50006D8369897A898B899C890E9476086E8366
:100B6000CE0101960E943E0164960FB6F894DEBF56
:100B70000FBECDBFDF91CF910895CF93DF93CDB757
:100B8000DEB729970FB6F894DEBF0FBECDBF8FE159
:100B900090E00E949B0785E392E00E94060A2FE303
:100BA0008DE093E0215080409040E1F700C00000CC
:100BB0000E948F070E945A060E94B3060E942001DD
:100BC0000E948E018BB7806C8BBF8FB780688FBF00
:100BD00085B78F6085BF86B716BE78940E947F0266
:100BE000522E632E742E852E262E372E482E998750
:100BF00086E00E941501982E8093400287E00E94B3
:100C000015010E947F0229833A834B835C836D83A5
:100C10007E838F839887E22EF32E042F152FA62E26
:100C2000B72EC82ED92E652D762D872D982D0E9492
:100C30000A0881110CC02A2D3B2D4C2D5D2D622DF3
:100C4000732D842D99850E940A08882351F02981EB
:100C50003A814B815C816D817E818F8198850E9474
:100C6000A20486E00E9415018093400298120E941F
:100C70006F049090400287E00E94150186B38FEFC9
:100C800090E722E0815090402040E1F700C0000052
:100C90005E2C6F2C702E812E2A2C3B2C4C2CD9864E
:100CA000B0CF809300120895E0E0F0E191E89083E6
:100CB0008083089580EB8093001080E890E0E0E06E
:100CC000F2E1108201970097E1F781EB8093001029
:100CD00080E890E0E0E0F2E1108201970097E1F710
:100CE00082EB8093001080E890E0E0E0F2E1108277
:100CF00001970097E1F783EB8093001080E890E084
:100D0000E0E0F2E1108201970097E1F784EB809335
:100D1000001080E890E0E0E0F2E110820197009797
:100D2000E1F785EB8093001080E890E0E0E0F2E1ED
:100D3000108201970097E1F786EB8093001080E81E
:100D400090E0E0E0F2E1108201970097E1F787EB95
:100D50008093001080E890E0E0E0F2E110820197DB
:100D60000097E1F70895E0E0F0E18EEA808381EA00
:100D700080838AED808382E1808388EC808388EAA7
:100D800080838FE3808385ED808380E8808381E8A2
:100D9000808380E5808389ED808381E2808380E2A7
:100DA000808382E080838BED808380E380838DEA83
:100DB0008083108284EA808386EA80838FEA80833E
:100DC00008958055E0E0F0E18083862F8F70808366
:100DD000607762956F70606160830895880F991FD6
:100DE000880F991F20E030E080519040A0E0B2E1F0
:100DF000FC01E20FF31FE491EC932F5F3F4F24308F
:100E00003105B1F708950F931F93CF93DF93FC0142
:100E10008081882389F08F010F5F1F4FC0E0D0E0F1
:100E200090E00E94EE062196F80181918F018823BF
:100E300019F0C032D105A1F7DF91CF911F910F9129
:100E40000895E0E0F2E180E1808380838083808305
:100E50009CE7908398E3908380830895E0E0F2E13B
:100E600010821082108210821082108210820895E7
:100E7000E0E0F2E1108288EF80839CEF908326EF20
:100E800020833FE330832083908380831082089502
:100E90000F931F93CF93DF93182F062F0E94E10625
:100EA000C0E0D2E11882188280E1888394E99883B7
:100EB00027ED28833FEF388328839883888318821F
:100EC0001882602F81E0810F0E94E106188292E073
:100ED000988383E0888323E228833FE338838883F1
:100EE00038832883888398831882DF91CF911F915C
:100EF0000F91089587B3806B87BBBE98C49A81E534
:100F00008DB908958FB9779BFECF08951FB8779B51
:100F1000FECF8FB10895C4980895C49A089585B7F7
:100F2000806885BF08955D9BFECF8CB908955F9B57
:100F3000FECF8CB1089589B988E18AB967E977E075
:100F400083E997E00E94BB0908955058BB27AA2760
:100F50000ED070C161D130F066D120F031F49F3FE6
:100F600011F41EF456C10EF4E095E7FB4CC1E92FD5
:100F700072D180F3BA17620773078407950718F0D8
:100F800071F49EF58AC10EF4E0950B2EBA2FA02DB8
:100F90000B01B90190010C01CA01A0011124FF2726
:100FA000591B99F0593F50F4503E68F11A16F04021
:100FB000A22F232F342F4427585FF3CF4695379520
:100FC0002795A795F0405395C9F77EF41F16BA0BE5
:100FD000620B730B840BBAF09150A1F0FF0FBB1F93
:100FE000661F771F881FC2F70EC0BA0F621F731FDC
:100FF000841F48F4879577956795B795F7959E3F39
:1010000008F0B3CF9395880F08F09927EE0F9795C6
:1010100087950895D4D008F481E008950CD00AC1D2
:1010200002D140F0F9D030F021F45F3F19F0EBC06D
:10103000511134C1EEC00FD198F39923C9F3552350
:10104000B1F3951B550BBB27AA27621773078407BB
:1010500038F09F5F5F4F220F331F441FAA1FA9F371
:1010600033D00E2E3AF0E0E830D091505040E69563
:10107000001CCAF729D0FE2F27D0660F771F881FC4
:10108000BB1F261737074807AB07B0E809F0BB0BB3
:10109000802DBF01FF2793585F4F2AF09E3F5105D7
:1010A00068F0B1C0FBC05F3FECF3983EDCF386957F
:1010B00077956795B795F7959F5FC9F7880F911D4D
:1010C0009695879597F90895E1E0660F771F881F39
:1010D000BB1F621773078407BA0720F0621B730BEC
:1010E000840BBA0BEE1F88F7E0950895BCD088F00A
:1010F0009F5790F0B92F9927B751A0F0D1F0660F04
:10110000771F881F991F1AF0BA95C9F712C0B1301E
:1011100081F0C3D0B1E00895C0C0672F782F882731
:10112000B85F39F0B93FCCF3869577956795B3955D
:10113000D9F73EF490958095709561957F4F8F4FCC
:101140009F4F0895E89409C097FB3EF490958095D1
:10115000709561957F4F8F4F9F4F9923A9F0F92F7D
:1011600096E9BB279395F695879577956795B795FB
:10117000F111F8CFFAF4BB0F11F460FF1BC06F5FE1
:101180007F4F8F4F9F4F16C0882311F096E911C0F3
:10119000772321F09EE8872F762F05C0662371F014
:1011A00096E8862F70E060E02AF09A95660F771F28
:1011B000881FDAF7880F9695879597F90895990F04
:1011C0000008550FAA0BE0E8FEEF16161706E80711
:1011D000F907C0F012161306E407F50798F0621B32
:1011E000730B840B950B39F40A2661F0232B242B07
:1011F000252B21F408950A2609F4A140A6958FEF26
:10120000811D811D089597F99F6780E870E060E077
:1012100008959FEF80EC089500240A94161617068F
:1012200018060906089500240A94121613061406D7
:1012300005060895092E0394000C11F4882352F03A
:10124000BB0F40F4BF2B11F460FF04C06F5F7F4FF2
:101250008F4F9F4F089557FD9058440F551F59F0D9
:101260005F3F71F04795880F97FB991F61F09F3F93
:1012700079F087950895121613061406551FF2CFBC
:101280004695F1DF08C0161617061806991FF1CF0C
:1012900086957105610508940895E894BB27662733
:1012A0007727CB0197F908958ADF08F48FEF089527
:1012B0000BD0C0CFB1DF28F0B6DF18F0952309F0CE
:1012C000A2CFA7CF1124EACFC6DFA0F3959FD1F319
:1012D000950F50E0551F629FF001729FBB27F00DE4
:1012E000B11D639FAA27F00DB11DAA1F649F662739
:1012F000B00DA11D661F829F2227B00DA11D621F88
:10130000739FB00DA11D621F839FA00D611D221F41
:10131000749F3327A00D611D231F849F600D211D25
:10132000822F762F6A2F11249F5750408AF0E1F0C8
:1013300088234AF0EE0FFF1FBB1F661F771F881F11
:1013400091505040A9F79E3F510570F05CCFA6CF59
:101350005F3FECF3983EDCF3869577956795B795FC
:10136000F795E7959F5FC1F7FE2B880F911D969526
:10137000879597F908950F931F93CF93DF93EC010F
:101380008B01009731F46115710519F480E090E04C
:1013900038C06EE070E081E090E00E94330AFC010A
:1013A0000097A1F380E883830115110571F013877D
:1013B000028781E883838091410290914202892BC8
:1013C00021F4F0934202E09341022097C9F0D187C3
:1013D000C08783818260838380914302909144021D
:1013E000892B71F4F0934402E0934302809145020B
:1013F00090914602892B21F4F0934602E093450236
:10140000CF01DF91CF911F910F9108950F931F93FB
:10141000CF93DF93E0914302F0914402238121FFB7
:101420001BC0EC0100E010E08991609143027091D3
:101430004402DB011896ED91FC911997882331F055
:101440000995892B89F30FEF1FEFEECF8AE00995FD
:10145000892B11F4C80102C08FEF9FEFDF91CF916C
:101460001F910F9108950F931F93CF93DF93869F42
:101470008001879F100D969F100D1124C8010E94B6
:101480004F0AEC01009729F0A80160E070E00E948B
:10149000760BCE01DF91CF911F910F910895CF93DD
:1014A000DF938230910510F482E090E0E0914902F0
:1014B000F0914A0220E030E0A0E0B0E0309739F14E
:1014C0004081518148175907B8F04817590771F4FE
:1014D00082819381109729F013969C938E93129793
:1014E0002CC090934A028093490227C021153105F0
:1014F00031F04217530718F0A901DB0101C0EF01D9
:101500009A01BD01DF010280F381E02DD7CF2115C3
:101510003105F9F0281B390B2430310580F48A811C
:101520009B816115710521F0FB019383828304C0C7
:1015300090934A0280934902FE01329644C0FE0114
:10154000E20FF31F8193919322503109398328834D
:101550003AC02091470230914802232B41F4209158
:1015600002013091030130934802209347022091F9
:101570000001309101012115310541F42DB73EB72D
:101580004091040150910501241B350BE091470265
:10159000F0914802E217F307A0F42E1B3F0B281727
:1015A000390778F0AC014E5F5F4F2417350748F0DC
:1015B0004E0F5F1F509348024093470281939193CF
:1015C00002C0E0E0F0E0CF01DF91CF910895CF932A
:1015D000DF93009709F487C0FC01329713821282CF
:1015E000C0914902D0914A02209781F42081318133
:1015F000280F391F80914702909148028217930764
:1016000079F5F0934802E09347026DC0DE0120E0D7
:1016100030E0AE17BF0750F412964D915C911397CE
:101620009D014115510509F1DA01F3CFB383A2837E
:1016300040815181840F951F8A179B0771F48D910A
:101640009C911197840F951F029691838083129627
:101650008D919C911397938382832115310529F4F1
:10166000F0934A02E09349023EC0D9011396FC93DD
:10167000EE9312974D915D91A40FB51FEA17FB07EA
:1016800079F480819181840F951F0296D90111967A
:101690009C938E938281938113969C938E93129741
:1016A000E0E0F0E08A819B81009719F0FE01EC01F7
:1016B000F9CFCE01029628813981820F931F2091A4
:1016C0004702309148022817390769F4309729F406
:1016D00010924A021092490202C013821282D093E1
:1016E0004802C0934702DF91CF910895DC0101C009
:0E16F0006D9341505040E0F70895F894FFCFFD
:1016FE0000004B02200002004D43503235313520A0
:10170E00697320696E206E6F726D616C206D6F64EF
:10171E0065200057656C636F6D6520746F2074686B
:10172E006520626573742070696E6720706F6E67D6
:10173E000067616D6520696E2074686520776F7231
:10174E006C642100546F7563682072696768742039
:10175E00746F20737461727421004D61696E206D17
:10176E00656E75004F6E652D706C61796572206DBA
:10177E006F64650054776F2D706C6179657273209C
:10178E006D6F6465004869676873636F7265730097
:10179E0053657474696E677300546F756368207255
:1017AE006967687420746F20656E74657200312EDF
:1017BE002036353020706F696E747300322E2034EF
:1017CE00323220706F696E747300332E20323030D7
:1017DE0020706F696E7473004272696768746E650B
:1017EE00737300536F756E6400557365206C656678
:1017FE007420736C69646520746F20736574206245
:10180E0072696768746E657373004C454654005276
:10181E004947485400444F574E005550004E4555C9
:0C182E005452414C005265736574000078
:00000001FF
