:1000000071C000008EC000008CC000008AC00000DB
:1000100088C0000086C0000084C0000082C00000CC
:1000200080C000007EC000007CC000007AC00000DC
:1000300078C0000076C0000074C0000072C00000EC
:1000400070C000006EC000006CC000006AC00000FC
:1000500068C0000066C0000064C0000062C000000C
:1000600060C000005EC000005CC000005AC000001C
:1000700058C0000056C0000054C0000052C000002C
:1000800050C000004EC000004CC000004AC000003C
:1000900048C0000046C0000044C0000042C000004C
:1000A00040C000003EC000003CC000003AC000005C
:1000B00038C0000036C0000034C0000032C000006C
:1000C00030C000002EC000002CC000002AC000007C
:1000D00028C0000026C0000024C0000022C000008C
:1000E00020C0000011241FBECFEFD1E2DEBFCDBF84
:1000F00000E00CBF12E0A0E0B2E0E4E9FBE000E0C9
:100100000BBF02C007900D92AC30B107D9F722E0C7
:10011000ACE0B2E001C01D92A831B207E1F7D6D041
:1001200037C56ECFEAE7F0E0808180688083808108
:1001300087608083ECE7F0E08081807E8083ABE79E
:10014000B0E08C91877F8C938081806480838081F4
:100150008F7780830895EAE7F0E080818064808370
:10016000808186FDFDCF8091780090917900937019
:1001700008956DD185D087EA91E60197F1F700C027
:10018000000040E060EE8FE08DD041E061E08BE266
:1001900089C008958F929F92AF92BF92CF92DF92C3
:1001A000EF92FF920F931F93CF93DF93CDB7DEB7FC
:1001B0002C970FB6F894DEBF0FBECDBF5C018CE26A
:1001C00064D080FF49C082E660D0182F81E65DD000
:1001D000212F332727FD3095359527953595279580
:1001E000359527953595279535952795277033278C
:1001F00098E08902200D311D11244901992485E6DA
:1002000044D08F70C82EDD24C7FCD0947E01E5E079
:10021000EE0EF11C00E010E008C086E6800F35D03D
:10022000F70181937F010F5F1F4F0C151D05ACF384
:100230000830110594F340E061E08CE233D09A82FB
:100240008982DC82CB828CE0FE013196D50101905F
:100250000D928A95E1F700C0C5012C960FB6F8946F
:10026000DEBF0FBECDBFDF91CF911F910F91FF90E9
:10027000EF90DF90CF90BF90AF909F908F900895B8
:10028000F9D080ECECD0FAC00895CF93C82FF2D00B
:1002900083E0E5D08C2FE3D0E7D0C82FEFD08C2FB0
:1002A000CF9108951F93CF93DF93182FD62FC42F8C
:1002B000E1D085E0D4D0812FD2D08D2FD0D08C2F1B
:1002C000CED0DCD0DF91CF911F910895CF93DF93F3
:1002D000CDB7DEB72C970FB6F894DEBF0FBECDBFFB
:1002E00087E690E0DDD086E092E0DDD22FE38DE07E
:1002F00093E0215080409040E1F700C0000012DF01
:1003000038DF32D000E010E0CE01019643DF6D818E
:10031000772767FD7095872F972F64D14CD0C80140
:1003200002D08C01F1CFCF93DF93EC0114DF9C015D
:100330008233910574F480910C0290910D02892B07
:1003400041F4219681E090E090930D0280930C029D
:1003500007C02536310524F010920D0210920C02D0
:10036000CE01DF91CF910895259AA1E8B0E08C915C
:1003700088618C93E0E8F0E08081826080838081F6
:100380008E7F808380818068808380818F7B808363
:100390008FE39CE9909387008093860088EB9BE035
:1003A00090938900809388008C918A7F8C938C91A4
:1003B00082608C930895CF92DF92EF92FF922CE9A6
:1003C00033E549EC56EBC2D126EA3BE944EC5AE36B
:1003D00073D06B017C0127E230EA49E05BE3B2D1E4
:1003E000181654F02AEF3DEE4BE65AE3C701B6016A
:1003F000C7D0882364F015C00F2EF7E2CF2EF0EAA5
:10040000DF2EF9E0EF2EFBE3FF2EF02D0AC00F2EBA
:10041000FAEFCF2EFDEEDF2EFBE6EF2EFAE3FF2EF6
:10042000F02D20E030E44CE157E4C701B6018ED155
:1004300020E030E048E452E489D1A6D070938900EE
:1004400060938800FF90EF90DF90CF90089584B183
:10045000866884B92398209A81E58CBD08958EBD65
:100460000DB407FEFDCF08951EBC0DB407FEFDCFF1
:100470008EB5089585B1887385B908952F9A08952A
:10048000E0ECF0E0908195FFFDCF8093C6000895E9
:10049000E0ECF0E080818823ECF78091C6000895BD
:1004A0008093C40088E18093C10068E472E080E436
:1004B00092E0AFC108955058BB27AA270ED008C1BB
:1004C000F9D030F0FED020F031F49F3F11F41EF44B
:1004D000EEC00EF4E095E7FBE4C0E92F0AD180F30B
:1004E000BA17620773078407950718F071F49EF531
:1004F00022C10EF4E0950B2EBA2FA02D0B01B901ED
:1005000090010C01CA01A0011124FF27591B99F089
:10051000593F50F4503E68F11A16F040A22F232F95
:10052000342F4427585FF3CF469537952795A795E5
:10053000F0405395C9F77EF41F16BA0B620B730B8C
:10054000840BBAF09150A1F0FF0FBB1F661F771FFD
:10055000881FC2F70EC0BA0F621F731F841F48F4B2
:10056000879577956795B795F7959E3F08F0B3CF38
:100570009395880F08F09927EE0F97958795089522
:100580006CD008F481E00895BCD088F09F5790F0BB
:10059000B92F9927B751A0F0D1F0660F771F881FA8
:1005A000991F1AF0BA95C9F712C0B13081F0C3D0C3
:1005B000B1E00895C0C0672F782F8827B85F39F061
:1005C000B93FCCF3869577956795B395D9F73EF407
:1005D00090958095709561957F4F8F4F9F4F0895AF
:1005E000E89409C097FB3EF49095809570956195CD
:1005F0007F4F8F4F9F4F9923A9F0F92F96E9BB2783
:100600009395F695879577956795B795F111F8CFFE
:10061000FAF4BB0F11F460FF1BC06F5F7F4F8F4F69
:100620009F4F16C0882311F096E911C0772321F05F
:100630009EE8872F762F05C0662371F096E8862FF7
:1006400070E060E02AF09A95660F771F881FDAF74E
:10065000880F9695879597F90895990F0008550F7B
:10066000AA0BE0E8FEEF16161706E807F907C0F038
:1006700012161306E407F50798F0621B730B840B40
:10068000950B39F40A2661F0232B242B252B21F41A
:1006900008950A2609F4A140A6958FEF811D811DBA
:1006A000089597F99F6780E870E060E008959FEFF4
:1006B00080EC089500240A941616170618060906F9
:1006C000089500240A9412161306140605060895C8
:1006D000092E0394000C11F4882352F0BB0F40F450
:1006E000BF2B11F460FF04C06F5F7F4F8F4F9F4F90
:1006F000089557FD9058440F551F59F05F3F71F012
:100700004795880F97FB991F61F09F3F79F0879578
:100710000895121613061406551FF2CF4695F1DF01
:1007200008C0161617061806991FF1CF8695710591
:10073000610508940895E894BB2766277727CB01C5
:1007400097F908958ADF08F48FEF08950BD0C0CF92
:10075000B1DF28F0B6DF18F0952309F0A2CFA7CFBC
:100760001124EACFC6DFA0F3959FD1F3950F50E097
:10077000551F629FF001729FBB27F00DB11D639F53
:10078000AA27F00DB11DAA1F649F6627B00DA11DF9
:10079000661F829F2227B00DA11D621F739FB00D9F
:1007A000A11D621F839FA00D611D221F749F33270F
:1007B000A00D611D231F849F600D211D822F762FA8
:1007C0006A2F11249F5750408AF0E1F088234AF0A5
:1007D000EE0FFF1FBB1F661F771F881F91505040F1
:1007E000A9F79E3F510570F05CCFA6CF5F3FECF3B9
:1007F000983EDCF3869577956795B795F795E795DD
:100800009F5FC1F7FE2B880F911D9695879597F9ED
:1008100008950F931F93CF93DF93EC018B01009703
:1008200031F46115710519F480E090E037C06EE095
:1008300070E081E090E064D0FC010097A9F380E8CB
:1008400083830115110571F01387028781E8838383
:1008500080910E0290910F02892B21F4F0930F02E8
:10086000E0930E022097C9F0D187C0878381826010
:1008700083838091100290911102892B71F4F0937F
:100880001102E09310028091120290911302892BC1
:1008900021F4F0931302E0931202CF01DF91CF9184
:1008A0001F910F9108950F931F93CF93DF93E091C2
:1008B0001002F0911102238121FF1BC0EC0100E026
:1008C00010E089916091100270911102DB0118967D
:1008D000ED91FC911997882331F01995892B89F3B3
:1008E0000FEF1FEFEECF8AE01995892B11F4C801A5
:1008F00002C08FEF9FEFDF91CF911F910F9108956D
:100900000F931F93CF93DF93869F8001879F100DD6
:10091000969F100D1124C8010DD0EC01009721F015
:10092000A80160E070E02DD1CE01DF91CF911F9141
:100930000F910895CF93DF938230910510F482E0F8
:1009400090E0E0911602F091170220E030E0A0E084
:10095000B0E0309739F14081518148175907B8F01C
:100960004817590771F482819381109729F01396E3
:100970009C938E9312972CC090931702809316022B
:1009800027C02115310531F04217530718F0A9018E
:10099000DB0101C0EF019A01BD01DF010280F3819B
:1009A000E02DD7CF21153105F9F0281B390B243064
:1009B000310580F48A819B816115710521F0FB016D
:1009C0009383828304C09093170280931602FE01E2
:1009D000329644C0FE01E20FF31F8193919322509F
:1009E0003109398328833AC02091140230911502CD
:1009F000232B41F42091020230910302309315021F
:100A0000209314022091000230910102211531053A
:100A100041F42DB73EB74091040250910502241BCA
:100A2000350BE0911402F0911502E217F307A0F4E0
:100A30002E1B3F0B2817390778F0AC014E5F5F4F34
:100A40002417350748F04E0F5F1F5093150240934F
:100A500014028193919302C0E0E0F0E0CF01DF91B6
:100A6000CF910895CF93DF93009709F487C0FC01DD
:100A7000329713821282C0911602D09117022097EA
:100A800081F420813181280F391F809114029091C7
:100A900015028217930779F5F0931502E09314027B
:100AA0006DC0DE0120E030E0AE17BF0750F41296B3
:100AB0004D915C9113979D014115510509F1DA01A2
:100AC000F3CFB383A28340815181840F951F8A178E
:100AD0009B0771F48D919C911197840F951F02963D
:100AE0009183808312968D919C9113979383828337
:100AF0002115310529F4F0931702E09316023EC048
:100B0000D9011396FC93EE9312974D915D91A40F2A
:100B1000B51FEA17FB0779F480819181840F951F37
:100B20000296D90111969C938E938281938113969C
:100B30009C938E931297E0E0F0E08A819B8100976E
:100B400019F0FE01EC01F9CFCE010296288139811E
:100B5000820F931F20911402309115022817390734
:100B600069F4309729F4109217021092160202C00D
:100B700013821282D0931502C0931402DF91CF9199
:100B80000895DC0101C06D9341505040E0F7089595
:040B9000F894FFCF07
:0C0B940000001802200052657365740018
:00000001FF
