:1000000071C000008EC000008CC000008AC00000DB
:1000100088C0000086C0000084C0000082C00000CC
:1000200080C000007EC000007CC000007AC00000DC
:1000300078C0000076C0000074C0000072C00000EC
:1000400070C000006EC000006CC000006AC00000FC
:1000500068C0000066C0000064C0000062C000000C
:1000600060C000005EC000005CC000005AC000001C
:1000700058C0000056C0000054C0000052C000002C
:1000800050C000004EC000004CC000004AC000003C
:1000900048C0000046C0000044C0000042C000004C
:1000A00040C000003EC000003CC000003AC000005C
:1000B00038C0000036C0000034C0000032C000006C
:1000C00030C000002EC000002CC000002AC000007C
:1000D00028C0000026C0000024C0000022C000008C
:1000E00020C0000011241FBECFEFD1E2DEBFCDBF84
:1000F00000E00CBF12E0A0E0B2E0E2E1FDE000E0D1
:100100000BBF02C007900D92AE32B107D9F722E0C3
:10011000AEE2B2E001C01D92A833B207E1F713D1FD
:10012000F6C56ECF5DD1D5D087EA91E60197F1F79C
:1001300000C0000040E460EE8FE0F1D041E061E0FB
:100140008BE2EDC00895EF92FF920F931F93CF9330
:10015000DF937C01FC0140815181440F551F429582
:100160005295507F5427407F5427552760EE82E3F5
:10017000D6D0F70160817181769567957695679500
:100180007695679581E3B7D0F70142816FE085E30B
:10019000C6D0F701828193811816190694F487015D
:1001A0000C5F1F4FC0E0D0E0F80161918F018C2FF0
:1001B0008A5CA1D02196F70122813381C217D3072F
:1001C0009CF3A8D0DF91CF911F910F91FF90EF90FA
:1001D00008957F928F929F92AF92BF92CF92DF92BB
:1001E000EF92FF920F931F93CF93DF93CDB7DEB7BC
:1001F0002C970FB6F894DEBF0FBECDBF5C0182E630
:100200006DD0C82E81E66AD0DD24C7FCD094D59489
:10021000C794D594C794D594C794D594C794D594CE
:10022000C79497E0C922DD24E8E08E02C00CD11CFF
:100230001124DD24DF92CF9286E092E09F938F938A
:100240004CD185E64BD0982F9F70892E992487FC3E
:1002500090940F900F900F900F901816ACF48E01A1
:100260000B5F1F4F7801E80EF11C87FDFA940F2EEB
:10027000F6E67F2EF02D872D31D0F80181938F0186
:100280007394EE15FF05B9F740E061E08CE247D0CA
:10029000DA82C9829C828B828CE0FE013196D50184
:1002A00001900D928A95E1F7C5012C960FB6F8944E
:1002B000DEBF0FBECDBFDF91CF911F910F91FF9099
:1002C000EF90DF90CF90BF90AF909F908F907F90F6
:1002D000089599D080EC8CD099C00895CF93C82F01
:1002E00092D083E085D08C2F83D087D0C82F8ED03A
:1002F0008C2FCF910895CF93DF93D82FC62F83D023
:1003000082E076D08D2F74D08C2F72D07FD0DF9189
:10031000CF91089578D081E86BD078C008951F936D
:10032000CF93DF93182FD62FC42F6DD085E060D0E8
:10033000812F5ED08D2F5CD08C2F5AD067D0DF916B
:10034000CF911F910895CF93DF93CDB7DEB7689714
:100350000FB6F894DEBF0FBECDBF87E690E068D041
:1003600089E092E0CBD02FE38DE093E021508040F4
:100370009040E1F700C00000D5DE8DEA90E09A835E
:10038000898381E090E09C838B8389E98D83CE0112
:100390000196D9DE2FE38DE093E02150804090401C
:1003A000E1F700C00000CE010D9613DF2989822FEE
:1003B000992787FD90959F932F9388898F938F8599
:1003C0008F938E858F938D858F938FE092E09F938F
:1003D0008F9383D00FB6F894DEBF0FBECDBFFFCF93
:1003E00084B1876084B92398289A81E58CBD0895EB
:1003F0008EBD0DB407FEFDCF08951EBC0DB407FEE3
:10040000FDCF8EB5089585B115B80895289A089541
:10041000E0ECF0E0908195FFFDCF8093C600089559
:10042000E0ECF0E080818823ECF78091C60008952D
:100430008093C40088E18093C10060E172E088E0AD
:1004400092E001C008950F931F93CF93DF93EC01C7
:100450008B01009731F46115710519F480E090E08B
:1004600037C06EE070E081E090E063D2FC0100975D
:10047000A9F380E883830115110571F013870287C2
:1004800081E8838380912E0290912F02892B21F4A1
:10049000F0932F02E0932E022097C9F0D187C087F6
:1004A0008381826083838091300290913102892B15
:1004B00071F4F0933102E093300280913202909116
:1004C0003302892B21F4F0933302E0933202CF01FF
:1004D000DF91CF911F910F910895CF93DF93CDB707
:1004E000DEB7FE01369661917191AF0180913002C5
:1004F0009091310230D0DF91CF9108950F931F93E7
:10050000CF93DF93E0913002F0913102238121FFFC
:100510001BC0EC0100E010E0899160913002709105
:100520003102DB011896ED91FC911997882331F087
:100530001995892B89F30FEF1FEFEECF8AE01995FC
:10054000892B11F4C80102C08FEF9FEFDF91CF918B
:100550001F910F9108952F923F924F925F926F9249
:100560007F928F929F92AF92BF92CF92DF92EF9243
:10057000FF920F931F93CF93DF93CDB7DEB72C97E6
:100580000FB6F894DEBF0FBECDBF7C016B018A01B0
:10059000FC0117821682838181FFB0C1CE010196D2
:1005A0004C01F7019381F60193FD859193FF8191B1
:1005B0006F01882309F49EC1853239F493FD85913A
:1005C00093FF81916F01853221F4B70190E00FD341
:1005D000E8CF512C312C20E02032A0F48B3269F08E
:1005E00030F4803259F0833269F420612CC08D32AE
:1005F00039F0803339F4216026C02260246023C0A2
:10060000286021C027FD27C030ED380F3A3078F43C
:1006100026FF06C0FAE05F9E300D1124532E13C052
:100620008AE0389E300D1124332E20620CC08E32A9
:1006300021F426FD5FC1206406C08C3611F42068C9
:1006400002C0883641F4F60193FD859193FF8191B4
:100650006F018111C1CF982F9F7D9554933028F45D
:100660000C5F1F4FFFE3F9830DC0833631F08337F2
:1006700071F0833509F057C021C0F801808189836A
:100680000E5F1F4F44244394512C540114C0380171
:10069000F2E06F0E711CF801A080B18026FF03C04C
:1006A000652D70E002C06FEF7FEFC5012C8794D2FB
:1006B0002C0183012C852F77222E16C03801F2E001
:1006C0006F0E711CF801A080B18026FF03C0652D5C
:1006D00070E002C06FEF7FEFC5012C876BD22C0159
:1006E0002C852068222E830123FC19C0832D90E0E5
:1006F00048165906A0F4B70180E290E078D23A9407
:10070000F5CFF50127FC859127FE81915F01B701A7
:1007100090E06DD231103A94F1E04F1A5108411433
:10072000510479F7DEC0843611F0893631F5F801CD
:1007300027FF07C060817181828193810C5F1F4F09
:1007400008C060817181882777FD8095982F0E5FA2
:100750001F4F2F76B22E97FF09C090958095709508
:1007600061957F4F8F4F9F4F2068B22E2AE030E077
:10077000A4016FD2A82EA81843C0853729F42F7E74
:10078000B22E2AE030E025C0F22FF97FBF2E8F363F
:10079000C1F018F4883579F0ADC0803719F088378A
:1007A00021F0A8C02F2F2061B22EB4FE0DC08B2DDA
:1007B0008460B82E09C024FF0AC09F2F9660B92E0E
:1007C00006C028E030E005C020E130E002C020E1B2
:1007D00032E0F801B7FE07C06081718182819381A8
:1007E0000C5F1F4F06C06081718180E090E00E5F5A
:1007F0001F4FA4012ED2A82EA818FB2DFF77BF2EC5
:10080000B6FE0BC02B2D2E7FA51450F4B4FE0AC0EB
:10081000B2FC08C02B2D2E7E05C07A2C2B2D03C0D8
:100820007A2C01C0752C24FF0DC0FE01EA0DF11DCC
:100830008081803311F4297E09C022FF06C07394A1
:10084000739404C0822F867809F0739423FD12C03C
:1008500020FF06C05A2C731418F4530C5718732C2D
:10086000731460F4B70180E290E02C87C0D17394D8
:100870002C85F6CF731410F4371801C0312C24FFE7
:1008800011C0B70180E390E02C87B1D12C8522FF05
:1008900016C021FF03C088E590E002C088E790E021
:1008A000B7010CC0822F867851F021FD02C080E292
:1008B00001C08BE227FD8DE2B70190E098D1A5142D
:1008C00030F4B70180E390E092D15A94F8CFAA9423
:1008D000F401EA0DF11D8081B70190E088D1A110EB
:1008E000F6CF332009F45DCEB70180E290E07FD1EE
:1008F0003A94F7CFF7018681978102C08FEF9FEF7F
:100900002C960FB6F894DEBF0FBECDBFDF91CF910E
:100910001F910F91FF90EF90DF90CF90BF90AF901D
:100920009F908F907F906F905F904F903F902F900F
:1009300008950F931F93CF93DF93869F8001879F26
:10094000100D969F100D1124C8010DD0EC010097D9
:1009500021F0A80160E070E038D1CE01DF91CF91A5
:100960001F910F910895CF93DF938230910510F47A
:1009700082E090E0E0913602F091370220E030E032
:10098000A0E0B0E0309739F1408151814817590714
:10099000B8F04817590771F482819381109729F0B4
:1009A00013969C938E9312972CC09093370280934A
:1009B000360227C02115310531F04217530718F0D0
:1009C000A901DB0101C0EF019A01BD01DF01028035
:1009D000F381E02DD7CF21153105F9F0281B390B14
:1009E0002430310580F48A819B816115710521F0E5
:1009F000FB019383828304C0909337028093360275
:100A0000FE01329644C0FE01E20FF31F81939193E1
:100A100022503109398328833AC020913402309121
:100A20003502232B41F420910202309103023093CE
:100A300035022093340220910002309101022115E9
:100A4000310541F42DB73EB74091040250910502A3
:100A5000241B350BE0913402F0913502E217F307C5
:100A6000A0F42E1B3F0B2817390778F0AC014E5F1E
:100A70005F4F2417350748F04E0F5F1F5093350224
:100A8000409334028193919302C0E0E0F0E0CF0103
:100A9000DF91CF910895CF93DF93009709F487C03A
:100AA000FC01329713821282C0913602D091370234
:100AB000209781F420813181280F391F80913402E1
:100AC000909135028217930779F5F0933502E09300
:100AD00034026DC0DE0120E030E0AE17BF0750F4F5
:100AE00012964D915C9113979D014115510509F1A5
:100AF000DA01F3CFB383A28340815181840F951F24
:100B00008A179B0771F48D919C911197840F951F03
:100B100002969183808312968D919C911397938373
:100B200082832115310529F4F0933702E0933602D0
:100B30003EC0D9011396FC93EE9312974D915D91AF
:100B4000A40FB51FEA17FB0779F480819181840F08
:100B5000951F0296D90111969C938E938281938161
:100B600013969C938E931297E0E0F0E08A819B812C
:100B7000009719F0FE01EC01F9CFCE010296288111
:100B80003981820F931F209134023091350228174A
:100B9000390769F4309729F410923702109236021F
:100BA00002C013821282D0933502C0933402DF91C7
:100BB000CF910895FC010590615070400110D8F765
:100BC000809590958E0F9F1F0895DC0101C06D9355
:100BD00041505040E0F70895FC0161507040019091
:100BE0000110D8F7809590958E0F9F1F08950F9351
:100BF0001F93CF93DF93182F092FEB018B8181FD7A
:100C000003C08FEF9FEF20C082FF10C04E815F8135
:100C10002C813D81421753077CF4E881F9819F01C3
:100C20002F5F3F4F39832883108306C0E885F985FD
:100C3000812F1995892B29F72E813F812F5F3F4FF7
:100C40003F832E83812F902FDF91CF911F910F91A2
:100C50000895FA01AA27283051F1203181F1E89452
:100C60006F936E7F6E5F7F4F8F4F9F4FAF4FB1E09F
:100C70003ED0B4E03CD0670F781F891F9A1FA11D9A
:100C8000680F791F8A1F911DA11D6A0F711D811D9B
:100C9000911DA11D20D009F468943F912AE0269F60
:100CA00011243019305D3193DEF6CF010895462FBF
:100CB0004770405D4193B3E00FD0C9F7F6CF462FA0
:100CC0004F70405D4A3318F0495D31FD4052419309
:100CD00002D0A9F7EACFB4E0A695979587957795C6
:100CE0006795BA95C9F700976105710508959B014D
:100CF000AC010A2E06945795479537952795BA95D6
:100D0000C9F7620F731F841F951FA01D0895F894E3
:020D1000FFCF13
:100D120000003802200025640052657365740049A2
:100D2200443A2025642C206C656E6774683A20254D
:0E0D3200642C20646174613A2025640A00007C
:00000001FF
