:1000000071C000008EC000008CC000008AC00000DB
:1000100088C0000086C0000084C0000082C00000CC
:1000200080C000007EC000007CC000007AC00000DC
:1000300078C0000076C0000074C0000072C00000EC
:1000400070C000006EC000006CC000006AC00000FC
:1000500068C0000066C0000064C0000062C000000C
:1000600060C000005EC000005CC000005AC000001C
:1000700058C0000056C0000054C0000052C000002C
:1000800050C000004EC000004CC000004AC000003C
:1000900048C0000046C0000044C0000042C000004C
:1000A00040C000003EC000003CC000003AC000005C
:1000B00038C0000036C0000034C0000032C000006C
:1000C00030C000002EC000002CC000002AC000007C
:1000D00028C0000026C0000024C0000022C000008C
:1000E00020C0000011241FBECFEFD1E2DEBFCDBF84
:1000F00000E00CBF12E0A0E0B2E0E0E5FCE000E0D0
:100100000BBF02C007900D92A434B107D9F722E0CB
:10011000A4E4B2E001C01D92AE34B207E1F7C0D052
:1001200095C56ECFFBD096D087EA91E60197F1F79F
:1001300000C0000040E060EE8FE09ED08EE08FD0E7
:10014000282F332727FD30953F938F9386E092E049
:100150009F938F9361D141E061E08BE28DD00F904E
:100160000F900F900F9008958F929F92AF92BF9231
:10017000CF92DF92EF92FF920F931F93CF93DF9373
:10018000CDB7DEB72C970FB6F894DEBF0FBECDBF4C
:100190005C018CE264D080FF49C082E660D0182FF9
:1001A00081E65DD0212F332727FD309535952795A2
:1001B0003595279535952795359527953595279527
:1001C0002770332798E08902200D311D1124490141
:1001D000992485E644D08F70C82EDD24C7FCD094C6
:1001E0007E01E5E0EE0EF11C00E010E008C086E6BE
:1001F000800F35D0F70181937F010F5F1F4F0C15E2
:100200001D05ACF30830110594F340E061E08CE289
:1002100033D09A828982DC82CB828CE0FE013196D7
:10022000D50101900D928A95E1F700C0C5012C9689
:100230000FB6F894DEBF0FBECDBFDF91CF911F91F7
:100240000F91FF90EF90DF90CF90BF90AF909F9075
:100250008F90089576D080EC69D077C00895CF93C1
:10026000C82F6FD083E062D08C2F60D064D0C82FAD
:100270006CD08C2FCF9108951F93CF93DF93182FBD
:10028000D62FC42F5ED085E051D0812F4FD08D2F37
:100290004DD08C2F4BD059D0DF91CF911F91089525
:1002A000CF93DF93CDB7DEB72C970FB6F894DEBFB0
:1002B0000FBECDBF87E690E05AD081E192E0BDD07D
:1002C0002FE38DE093E0215080409040E1F700C0A3
:1002D000000028DF07E112E0CE01019645DF2E8104
:1002E000822F992787FD90959F932F932D81822FA1
:1002F000992787FD90959F932F938C818F938B8166
:100300008F938A818F9389818F931F930F9384D0CA
:100310000FB6F894DEBF0FBECDBFDECF84B18668C6
:1003200084B92398209A81E58CBD08958EBD0DB4C3
:1003300007FEFDCF08951EBC0DB407FEFDCF8EB5A0
:10034000089585B1887385B908952F9A0895E0ECD2
:10035000F0E0908195FFFDCF8093C6000895E0EC1A
:10036000F0E080818823ECF78091C60008958093A7
:10037000C40088E18093C1006FEA71E087EA91E0F0
:1003800001C008950F931F93CF93DF93EC018B016E
:10039000009731F46115710519F480E090E037C0E1
:1003A0006EE070E081E090E063D2FC010097A9F379
:1003B00080E883830115110571F01387028781E8B6
:1003C00083838091440290914502892B21F4F0931C
:1003D0004502E09344022097C9F0D187C08783810A
:1003E000826083838091460290914702892B71F449
:1003F000F0934702E09346028091480290914902AF
:10040000892B21F4F0934902E0934802CF01DF9158
:10041000CF911F910F910895CF93DF93CDB7DEB7A2
:10042000FE01369661917191AF01809146029091E3
:10043000470230D0DF91CF9108950F931F93CF9350
:10044000DF93E0914602F0914702238121FF1BC018
:10045000EC0100E010E08991609146027091470242
:10046000DB011896ED91FC911997882331F01995CD
:10047000892B89F30FEF1FEFEECF8AE01995892BB7
:1004800011F4C80102C08FEF9FEFDF91CF911F9150
:100490000F9108952F923F924F925F926F927F92A9
:1004A0008F929F92AF92BF92CF92DF92EF92FF9284
:1004B0000F931F93CF93DF93CDB7DEB72C970FB673
:1004C000F894DEBF0FBECDBF7C016B018A01FC0139
:1004D00017821682838181FFB0C1CE0101964C0143
:1004E000F7019381F60193FD859193FF81916F014F
:1004F000882309F49EC1853239F493FD859193FFD9
:1005000081916F01853221F4B70190E00FD3E8CFDC
:10051000512C312C20E02032A0F48B3269F030F4E1
:10052000803259F0833269F420612CC08D3239F069
:10053000803339F4216026C02260246023C0286003
:1005400021C027FD27C030ED380F3A3078F426FF60
:1005500006C0FAE05F9E300D1124532E13C08AE0CE
:10056000389E300D1124332E20620CC08E3221F4BF
:1005700026FD5FC1206406C08C3611F4206802C0DD
:10058000883641F4F60193FD859193FF81916F01C7
:100590008111C1CF982F9F7D9554933028F40C5F23
:1005A0001F4FFFE3F9830DC0833631F0833771F0BD
:1005B000833509F057C021C0F801808189830E5F1F
:1005C0001F4F44244394512C540114C03801F2E0CD
:1005D0006F0E711CF801A080B18026FF03C0652D4D
:1005E00070E002C06FEF7FEFC5012C8794D22C0121
:1005F00083012C852F77222E16C03801F2E06F0E72
:10060000711CF801A080B18026FF03C0652D70E049
:1006100002C06FEF7FEFC5012C876BD22C012C85B8
:100620002068222E830123FC19C0832D90E04816F8
:100630005906A0F4B70180E290E078D23A94F5CF61
:10064000F50127FC859127FE81915F01B70190E0BC
:100650006DD231103A94F1E04F1A5108411451040F
:1006600079F7DEC0843611F0893631F5F80127FFBD
:1006700007C060817181828193810C5F1F4F08C028
:1006800060817181882777FD8095982F0E5F1F4FBD
:100690002F76B22E97FF09C0909580957095619541
:1006A0007F4F8F4F9F4F2068B22E2AE030E0A40189
:1006B0006FD2A82EA81843C0853729F42F7EB22EFA
:1006C0002AE030E025C0F22FF97FBF2E8F36C1F02F
:1006D00018F4883579F0ADC0803719F0883721F0EB
:1006E000A8C02F2F2061B22EB4FE0DC08B2D8460C8
:1006F000B82E09C024FF0AC09F2F9660B92E06C0ED
:1007000028E030E005C020E130E002C020E132E026
:10071000F801B7FE07C060817181828193810C5F0F
:100720001F4F06C06081718180E090E00E5F1F4F17
:10073000A4012ED2A82EA818FB2DFF77BF2EB6FE3F
:100740000BC02B2D2E7FA51450F4B4FE0AC0B2FCB2
:1007500008C02B2D2E7E05C07A2C2B2D03C07A2CA1
:1007600001C0752C24FF0DC0FE01EA0DF11D808132
:10077000803311F4297E09C022FF06C0739473945C
:1007800004C0822F867809F0739423FD12C020FFE5
:1007900006C05A2C731418F4530C5718732C731486
:1007A00060F4B70180E290E02C87C0D173942C856F
:1007B000F6CF731410F4371801C0312C24FF11C088
:1007C000B70180E390E02C87B1D12C8522FF16C0C1
:1007D00021FF03C088E590E002C088E790E0B70100
:1007E0000CC0822F867851F021FD02C080E201C04A
:1007F0008BE227FD8DE2B70190E098D1A51430F48B
:10080000B70180E390E092D15A94F8CFAA94F40112
:10081000EA0DF11D8081B70190E088D1A110F6CFDB
:10082000332009F45DCEB70180E290E07FD13A94A5
:10083000F7CFF7018681978102C08FEF9FEF2C964B
:100840000FB6F894DEBF0FBECDBFDF91CF911F91E1
:100850000F91FF90EF90DF90CF90BF90AF909F905F
:100860008F907F906F905F904F903F902F90089562
:100870000F931F93CF93DF93869F8001879F100D67
:10088000969F100D1124C8010DD0EC01009721F0A6
:10089000A80160E070E038D1CE01DF91CF911F91C7
:1008A0000F910895CF93DF938230910510F482E089
:1008B00090E0E0914C02F0914D0220E030E0A0E0A9
:1008C000B0E0309739F14081518148175907B8F0AD
:1008D0004817590771F482819381109729F0139674
:1008E0009C938E9312972CC090934D0280934C0250
:1008F00027C02115310531F04217530718F0A9011F
:10090000DB0101C0EF019A01BD01DF010280F3812B
:10091000E02DD7CF21153105F9F0281B390B2430F4
:10092000310580F48A819B816115710521F0FB01FD
:100930009383828304C090934D0280934C02FE0106
:10094000329644C0FE01E20FF31F8193919322502F
:100950003109398328833AC020914A0230914B02F1
:10096000232B41F4209102023091030230934B0279
:1009700020934A0220910002309101022115310595
:1009800041F42DB73EB74091040250910502241B5B
:10099000350BE0914A02F0914B02E217F307A0F405
:1009A0002E1B3F0B2817390778F0AC014E5F5F4FC5
:1009B0002417350748F04E0F5F1F50934B024093AA
:1009C0004A028193919302C0E0E0F0E0CF01DF9111
:1009D000CF910895CF93DF93009709F487C0FC016E
:1009E000329713821282C0914C02D0914D0220970F
:1009F00081F420813181280F391F80914A02909122
:100A00004B028217930779F5F0934B02E0934A0269
:100A10006DC0DE0120E030E0AE17BF0750F4129643
:100A20004D915C9113979D014115510509F1DA0132
:100A3000F3CFB383A28340815181840F951F8A171E
:100A40009B0771F48D919C911197840F951F0296CD
:100A50009183808312968D919C91139793838283C7
:100A60002115310529F4F0934D02E0934C023EC06C
:100A7000D9011396FC93EE9312974D915D91A40FBB
:100A8000B51FEA17FB0779F480819181840F951FC8
:100A90000296D90111969C938E938281938113962D
:100AA0009C938E931297E0E0F0E08A819B810097FF
:100AB00019F0FE01EC01F9CFCE01029628813981AF
:100AC000820F931F20914A0230914B022817390759
:100AD00069F4309729F410924D0210924C0202C032
:100AE00013821282D0934B02C0934A02DF91CF91BE
:100AF0000895FC010590615070400110D8F7809571
:100B000090958E0F9F1F0895DC0101C06D93415099
:100B10005040E0F70895FC016150704001900110D1
:100B2000D8F7809590958E0F9F1F08950F931F9370
:100B3000CF93DF93182F092FEB018B8181FD03C029
:100B40008FEF9FEF20C082FF10C04E815F812C810C
:100B50003D81421753077CF4E881F9819F012F5FA3
:100B60003F4F39832883108306C0E885F985812F9C
:100B70001995892B29F72E813F812F5F3F4F3F83A6
:100B80002E83812F902FDF91CF911F910F91089588
:100B9000FA01AA27283051F1203181F1E8946F93AE
:100BA0006E7F6E5F7F4F8F4F9F4FAF4FB1E03ED054
:100BB000B4E03CD0670F781F891F9A1FA11D680FF2
:100BC000791F8A1F911DA11D6A0F711D811D911D25
:100BD000A11D20D009F468943F912AE0269F11249A
:100BE0003019305D3193DEF6CF010895462F4770FE
:100BF000405D4193B3E00FD0C9F7F6CF462F4F7059
:100C0000405D4A3318F0495D31FD4052419302D0B6
:100C1000A9F7EACFB4E0A69597958795779567955C
:100C2000BA95C9F700976105710508959B01AC015C
:100C30000A2E06945795479537952795BA95C9F783
:100C4000620F731F841F951FA01D0895F894FFCF96
:100C500000004E02200053746174203D2025640A78
:100C600000526573657400526563656976696E67E5
:100C70003A2049443A2025642C206C656E677468DC
:100C80003A2025642C20783A2025692C20793A25B1
:040C9000690A0000ED
:00000001FF
