:1000000071C000008EC000008CC000008AC00000DB
:1000100088C0000086C0000084C0000082C00000CC
:1000200080C000007EC000007CC000007AC00000DC
:1000300078C0000076C0000074C0000072C00000EC
:1000400070C000006EC000006CC000006AC00000FC
:1000500068C0000066C0000064C0000062C000000C
:1000600060C000005EC000005CC000005AC000001C
:1000700058C0000056C0000054C0000052C000002C
:1000800050C000004EC000004CC000004AC000003C
:1000900048C0000046C0000044C0000042C000004C
:1000A00040C000003EC000003CC000003AC000005C
:1000B00038C0000036C0000034C0000032C000006C
:1000C00030C000002EC000002CC000002AC000007C
:1000D00028C0000026C0000024C0000022C000008C
:1000E00020C0000011241FBECFEFD1E2DEBFCDBF84
:1000F00000E00CBF12E0A0E0B2E0E0EFF0E100E0D1
:100100000BBF02C007900D92A432B107D9F722E0CD
:10011000A4E2B2E001C01D92AE32B207E1F7E8D02E
:10012000E5C76ECFEAE7F0E0808180688083808158
:1001300087608083ECE7F0E08081807E8083ABE79E
:10014000B0E08C91877F8C938081806480838081F4
:100150008F7780830895CF93DF93EAE7F0E0808183
:1001600080648083808186FDFDCFC8E7D0E08881F0
:10017000998193709F938F9386E092E09F938F93E2
:100180009BD3888199810F900F900F900F9093705F
:10019000DF91CF91089564D185D087EA91E60197E8
:1001A000F1F700C0000040E060EE8FE08DD041E04C
:1001B00061E08BE289C008958F929F92AF92BF92C7
:1001C000CF92DF92EF92FF920F931F93CF93DF9323
:1001D000CDB7DEB72C970FB6F894DEBF0FBECDBFFC
:1001E0005C018CE264D080FF49C082E660D0182FA9
:1001F00081E65DD0212F332727FD30953595279552
:1002000035952795359527953595279535952795D6
:100210002770332798E08902200D311D11244901F0
:10022000992485E644D08F70C82EDD24C7FCD09475
:100230007E01E5E0EE0EF11C00E010E008C086E66D
:10024000800F35D0F70181937F010F5F1F4F0C1591
:100250001D05ACF30830110594F340E061E08CE239
:1002600033D09A828982DC82CB828CE0FE01319687
:10027000D50101900D928A95E1F700C0C5012C9639
:100280000FB6F894DEBF0FBECDBFDF91CF911F91A7
:100290000F91FF90EF90DF90CF90BF90AF909F9025
:1002A0008F900895F0D080ECE3D0F1C00895CF9303
:1002B000C82FE9D083E0DCD08C2FDAD0DED0C82F75
:1002C000E6D08C2FCF9108951F93CF93DF93182FF3
:1002D000D62FC42FD8D085E0CBD0812FC9D08D2F79
:1002E000C7D08C2FC5D0D3D0DF91CF911F91089567
:1002F000CF93DF93CDB7DEB72C970FB6F894DEBF60
:100300000FBECDBF87E690E0D4D082E192E0E5D287
:100310002FE38DE093E0215080409040E1F700C052
:10032000000000DF38DF29D0E12CF12C08E112E0D9
:10033000CE01019641DF6D81772767FD7095872F8C
:10034000972F59D141D08E2D9F2D0CD0E82EF92E0C
:100350009F938F931F930F93AFD20F900F900F9097
:100360000F90E6CFCF93DF93EC01F5DEC2970CF44C
:100370002196CE01DF91CF910895259AA1E8B0E0B2
:100380008C9188618C93E0E8F0E0808182608083CA
:1003900080818E7F808380818068808380818F7B55
:1003A00080838FE39CE9909387008093860088EB9D
:1003B0009BE090938900809388008C918A7F8C9336
:1003C0008C9182608C930895CF92DF92EF92FF928E
:1003D0002CE933E549EC56EBC2D126EA3BE944EC83
:1003E0005AE373D06B017C0127E230EA49E05BE31A
:1003F000B2D1181654F02AEF3DEE4BE65AE3C7018E
:10040000B601C7D0882364F015C00F2EF7E2CF2EB7
:10041000F0EADF2EF9E0EF2EFBE3FF2EF02D0AC00D
:100420000F2EFAEFCF2EFDEEDF2EFBE6EF2EFAE3D6
:10043000FF2EF02D20E030E44CE157E4C701B60177
:100440008ED120E030E048E452E489D1A6D0709308
:10045000890060938800FF90EF90DF90CF9008951F
:1004600084B1866884B92398209A81E58CBD08956B
:100470008EBD0DB407FEFDCF08951EBC0DB407FE62
:10048000FDCF8EB5089585B1887385B908952F9AEB
:100490000895E0ECF0E0908195FFFDCF8093C600D9
:1004A0000895E0ECF0E080818823ECF78091C600AD
:1004B00008958093C40088E18093C10061E572E0F3
:1004C00089E492E0AFC108955058BB27AA270ED007
:1004D00008C1F9D030F0FED020F031F49F3F11F484
:1004E0001EF4EEC00EF4E095E7FBE4C0E92F0AD15C
:1004F00080F3BA17620773078407950718F071F441
:100500009EF522C10EF4E0950B2EBA2FA02D0B0103
:10051000B90190010C01CA01A0011124FF27591B48
:1005200099F0593F50F4503E68F11A16F040A22F4E
:10053000232F342F4427585FF3CF469537952795BF
:10054000A795F0405395C9F77EF41F16BA0B620BBE
:10055000730B840BBAF09150A1F0FF0FBB1F661F05
:10056000771F881FC2F70EC0BA0F621F731F841F48
:1005700048F4879577956795B795F7959E3F08F06E
:10058000B3CF9395880F08F09927EE0F979587952D
:1005900008956CD008F481E00895BCD088F09F578E
:1005A00090F0B92F9927B751A0F0D1F0660F771FBF
:1005B000881F991F1AF0BA95C9F712C0B13081F09F
:1005C000C3D0B1E00895C0C0672F782F8827B85FE7
:1005D00039F0B93FCCF3869577956795B395D9F700
:1005E0003EF490958095709561957F4F8F4F9F4F0A
:1005F0000895E89409C097FB3EF490958095709516
:1006000061957F4F8F4F9F4F9923A9F0F92F96E95E
:10061000BB279395F695879577956795B795F111D3
:10062000F8CFFAF4BB0F11F460FF1BC06F5F7F4F70
:100630008F4F9F4F16C0882311F096E911C0772382
:1006400021F09EE8872F762F05C0662371F096E88B
:10065000862F70E060E02AF09A95660F771F881F5A
:10066000DAF7880F9695879597F90895990F0008FE
:10067000550FAA0BE0E8FEEF16161706E807F90774
:10068000C0F012161306E407F50798F0621B730B0F
:10069000840B950B39F40A2661F0232B242B252B90
:1006A00021F408950A2609F4A140A6958FEF811D33
:1006B000811D089597F99F6780E870E060E00895D4
:1006C0009FEF80EC089500240A941616170618066A
:1006D0000906089500240A94121613061406050646
:1006E0000895092E0394000C11F4882352F0BB0FD7
:1006F00040F4BF2B11F460FF04C06F5F7F4F8F4F3A
:100700009F4F089557FD9058440F551F59F05F3F74
:1007100071F04795880F97FB991F61F09F3F79F023
:1007200087950895121613061406551FF2CF4695A5
:10073000F1DF08C0161617061806991FF1CF869527
:100740007105610508940895E894BB27662777270B
:10075000CB0197F908958ADF08F48FEF08950BD045
:10076000C0CFB1DF28F0B6DF18F0952309F0A2CF93
:10077000A7CF1124EACFC6DFA0F3959FD1F3950F41
:1007800050E0551F629FF001729FBB27F00DB11D15
:10079000639FAA27F00DB11DAA1F649F6627B00DA5
:1007A000A11D661F829F2227B00DA11D621F739F8E
:1007B000B00DA11D621F839FA00D611D221F749F9C
:1007C0003327A00D611D231F849F600D211D822FE3
:1007D000762F6A2F11249F5750408AF0E1F088232A
:1007E0004AF0EE0FFF1FBB1F661F771F881F915037
:1007F0005040A9F79E3F510570F05CCFA6CF5F3FF8
:10080000ECF3983EDCF3869577956795B795F79569
:10081000E7959F5FC1F7FE2B880F911D96958795F1
:1008200097F908950F931F93CF93DF93EC018B01FA
:10083000009731F46115710519F480E090E037C03C
:100840006EE070E081E090E063D2FC010097A9F3D4
:1008500080E883830115110571F01387028781E811
:1008600083838091240290912502892B21F4F093B7
:100870002502E09324022097C9F0D187C0878381A5
:10088000826083838091260290912702892B71F4E4
:10089000F0932702E093260280912802909129028A
:1008A000892B21F4F0932902E0932802CF01DF91F4
:1008B000CF911F910F910895CF93DF93CDB7DEB7FE
:1008C000FE01369661917191AF018091260290915F
:1008D000270230D0DF91CF9108950F931F93CF93CC
:1008E000DF93E0912602F0912702238121FF1BC0B4
:1008F000EC0100E010E089916091260270912702DE
:10090000DB011896ED91FC911997882331F0199528
:10091000892B89F30FEF1FEFEECF8AE01995892B12
:1009200011F4C80102C08FEF9FEFDF91CF911F91AB
:100930000F9108952F923F924F925F926F927F9204
:100940008F929F92AF92BF92CF92DF92EF92FF92DF
:100950000F931F93CF93DF93CDB7DEB72C970FB6CE
:10096000F894DEBF0FBECDBF7C016B018A01FC0194
:1009700017821682838181FFB0C1CE0101964C019E
:10098000F7019381F60193FD859193FF81916F01AA
:10099000882309F49EC1853239F493FD859193FF34
:1009A00081916F01853221F4B70190E00FD3E8CF38
:1009B000512C312C20E02032A0F48B3269F030F43D
:1009C000803259F0833269F420612CC08D3239F0C5
:1009D000803339F4216026C02260246023C028605F
:1009E00021C027FD27C030ED380F3A3078F426FFBC
:1009F00006C0FAE05F9E300D1124532E13C08AE02A
:100A0000389E300D1124332E20620CC08E3221F41A
:100A100026FD5FC1206406C08C3611F4206802C038
:100A2000883641F4F60193FD859193FF81916F0122
:100A30008111C1CF982F9F7D9554933028F40C5F7E
:100A40001F4FFFE3F9830DC0833631F0833771F018
:100A5000833509F057C021C0F801808189830E5F7A
:100A60001F4F44244394512C540114C03801F2E028
:100A70006F0E711CF801A080B18026FF03C0652DA8
:100A800070E002C06FEF7FEFC5012C8794D22C017C
:100A900083012C852F77222E16C03801F2E06F0ECD
:100AA000711CF801A080B18026FF03C0652D70E0A5
:100AB00002C06FEF7FEFC5012C876BD22C012C8514
:100AC0002068222E830123FC19C0832D90E0481654
:100AD0005906A0F4B70180E290E078D23A94F5CFBD
:100AE000F50127FC859127FE81915F01B70190E018
:100AF0006DD231103A94F1E04F1A5108411451046B
:100B000079F7DEC0843611F0893631F5F80127FF18
:100B100007C060817181828193810C5F1F4F08C083
:100B200060817181882777FD8095982F0E5F1F4F18
:100B30002F76B22E97FF09C090958095709561959C
:100B40007F4F8F4F9F4F2068B22E2AE030E0A401E4
:100B50006FD2A82EA81843C0853729F42F7EB22E55
:100B60002AE030E025C0F22FF97FBF2E8F36C1F08A
:100B700018F4883579F0ADC0803719F0883721F046
:100B8000A8C02F2F2061B22EB4FE0DC08B2D846023
:100B9000B82E09C024FF0AC09F2F9660B92E06C048
:100BA00028E030E005C020E130E002C020E132E082
:100BB000F801B7FE07C060817181828193810C5F6B
:100BC0001F4F06C06081718180E090E00E5F1F4F73
:100BD000A4012ED2A82EA818FB2DFF77BF2EB6FE9B
:100BE0000BC02B2D2E7FA51450F4B4FE0AC0B2FC0E
:100BF00008C02B2D2E7E05C07A2C2B2D03C07A2CFD
:100C000001C0752C24FF0DC0FE01EA0DF11D80818D
:100C1000803311F4297E09C022FF06C073947394B7
:100C200004C0822F867809F0739423FD12C020FF40
:100C300006C05A2C731418F4530C5718732C7314E1
:100C400060F4B70180E290E02C87C0D173942C85CA
:100C5000F6CF731410F4371801C0312C24FF11C0E3
:100C6000B70180E390E02C87B1D12C8522FF16C01C
:100C700021FF03C088E590E002C088E790E0B7015B
:100C80000CC0822F867851F021FD02C080E201C0A5
:100C90008BE227FD8DE2B70190E098D1A51430F4E6
:100CA000B70180E390E092D15A94F8CFAA94F4016E
:100CB000EA0DF11D8081B70190E088D1A110F6CF37
:100CC000332009F45DCEB70180E290E07FD13A9401
:100CD000F7CFF7018681978102C08FEF9FEF2C96A7
:100CE0000FB6F894DEBF0FBECDBFDF91CF911F913D
:100CF0000F91FF90EF90DF90CF90BF90AF909F90BB
:100D00008F907F906F905F904F903F902F900895BD
:100D10000F931F93CF93DF93869F8001879F100DC2
:100D2000969F100D1124C8010DD0EC01009721F001
:100D3000A80160E070E038D1CE01DF91CF911F9122
:100D40000F910895CF93DF938230910510F482E0E4
:100D500090E0E0912C02F0912D0220E030E0A0E044
:100D6000B0E0309739F14081518148175907B8F008
:100D70004817590771F482819381109729F01396CF
:100D80009C938E9312972CC090932D0280932C02EB
:100D900027C02115310531F04217530718F0A9017A
:100DA000DB0101C0EF019A01BD01DF010280F38187
:100DB000E02DD7CF21153105F9F0281B390B243050
:100DC000310580F48A819B816115710521F0FB0159
:100DD0009383828304C090932D0280932C02FE01A2
:100DE000329644C0FE01E20FF31F8193919322508B
:100DF0003109398328833AC020912A0230912B028D
:100E0000232B41F4209102023091030230932B02F4
:100E100020932A0220910002309101022115310510
:100E200041F42DB73EB74091040250910502241BB6
:100E3000350BE0912A02F0912B02E217F307A0F4A0
:100E40002E1B3F0B2817390778F0AC014E5F5F4F20
:100E50002417350748F04E0F5F1F50932B02409325
:100E60002A028193919302C0E0E0F0E0CF01DF918C
:100E7000CF910895CF93DF93009709F487C0FC01C9
:100E8000329713821282C0912C02D0912D022097AA
:100E900081F420813181280F391F80912A0290919D
:100EA0002B028217930779F5F0932B02E0932A0225
:100EB0006DC0DE0120E030E0AE17BF0750F412969F
:100EC0004D915C9113979D014115510509F1DA018E
:100ED000F3CFB383A28340815181840F951F8A177A
:100EE0009B0771F48D919C911197840F951F029629
:100EF0009183808312968D919C9113979383828323
:100F00002115310529F4F0932D02E0932C023EC007
:100F1000D9011396FC93EE9312974D915D91A40F16
:100F2000B51FEA17FB0779F480819181840F951F23
:100F30000296D90111969C938E9382819381139688
:100F40009C938E931297E0E0F0E08A819B8100975A
:100F500019F0FE01EC01F9CFCE010296288139810A
:100F6000820F931F20912A0230912B0228173907F4
:100F700069F4309729F410922D0210922C0202C0CD
:100F800013821282D0932B02C0932A02DF91CF9159
:100F90000895FC010590615070400110D8F78095CC
:100FA00090958E0F9F1F0895DC0101C06D934150F5
:100FB0005040E0F70895FC0161507040019001102D
:100FC000D8F7809590958E0F9F1F08950F931F93CC
:100FD000CF93DF93182F092FEB018B8181FD03C085
:100FE0008FEF9FEF20C082FF10C04E815F812C8168
:100FF0003D81421753077CF4E881F9819F012F5FFF
:101000003F4F39832883108306C0E885F985812FF7
:101010001995892B29F72E813F812F5F3F4F3F8301
:101020002E83812F902FDF91CF911F910F910895E3
:10103000FA01AA27283051F1203181F1E8946F9309
:101040006E7F6E5F7F4F8F4F9F4FAF4FB1E03ED0AF
:10105000B4E03CD0670F781F891F9A1FA11D680F4D
:10106000791F8A1F911DA11D6A0F711D811D911D80
:10107000A11D20D009F468943F912AE0269F1124F5
:101080003019305D3193DEF6CF010895462F477059
:10109000405D4193B3E00FD0C9F7F6CF462F4F70B4
:1010A000405D4A3318F0495D31FD4052419302D012
:1010B000A9F7EACFB4E0A6959795879577956795B8
:1010C000BA95C9F700976105710508959B01AC01B8
:1010D0000A2E06945795479537952795BA95C9F7DF
:1010E000620F731F841F951FA01D0895F894FFCFF2
:1010F00000002E022000526573756C743A2025643E
:101100000A0052657365740053636F72653A202557
:04111000640A00006D
:00000001FF
